:020000021000EC
:1090000000600020759301005D9301005F930100F3
:10901000619301006393010065930100000000006B
:109020000000000000000000000000006793010045
:1090300069930100000000006B9301006D93010033
:1090400051B101006F93010075B601006F930100EB
:109050006F93010000000000B9B4010095BB01004E
:1090600041C2010051C2010061C2010081C2010080
:109070006F9301006F9301006F9301006F930100E4
:109080006F9301009D9E01006F9301006F9301009B
:10909000399F01006F930100D1E501006F9301003A
:1090A0006F9301006F9301000000000000000000BA
:1090B0006F9301006F9301000000000000000000AA
:1090C00000000000000000000000000000000000A0
:1090D0000000000000000000000000000000000090
:1090E0000000000000000000000000000000000080
:1090F0000000000000000000000000000000000070
:10910000000000000000000000000000000000005F
:10911000000000000000000000000000000000004F
:10912000000000000000000000000000000000003F
:10913000000000000000000000000000000000002F
:10914000000000000000000000000000000000001F
:10915000000000000000000000000000000000000F
:1091600000000000000000000000000000000000FF
:1091700000000000000000000000000000000000EF
:1091800000000000000000000000000000000000DF
:1091900000000000000000000000000000000000CF
:1091A00000000000000000000000000000000000BF
:1091B00000000000000000000000000000000000AF
:1091C000000000000000000000000000000000009F
:1091D000000000000000000000000000000000008F
:1091E000000000000000000000000000000000007F
:1091F000000000000000000000000000000000006F
:10920000354936480A1A02D0072291438D4634491F
:1092100034480A1A06D00722914381F309880222B2
:1092200082F3148830483149314A00F044F831481B
:109230003149324A00F03FF831483249324A00F0B1
:109240003AF832483249334A00F035F83248334967
:10925000334A00F030F833483349344A00F02BF8F1
:1092600033483449344A00F026F83448344900225F
:1092700000F02CF833483449002200F027F8334836
:109280003349091A082902DB002202604160314A91
:1092900090471F481F49884205D00268043003B434
:1092A000904703BCF7E700208646EC4600200021EB
:1092B000294A9047FEE7884207D0521A05D0037822
:1092C00001300B700131013AF9D17047884202D068
:1092D00002700130FAE7704700600020005800205B
:1092E0000060002000600020F8FB01000025002045
:1092F0005C250020C0930100C09301000CEC01002C
:10930000F8FB0100002500200025002018ED0100D9
:1093100018ED010018ED010018ED010018ED010035
:1093200018ED010018ED010018ED0100F8FB010037
:1093300054FC01005C2500205C2500205C250020F9
:109340003035002030350020303500203035002009
:10935000303D00208B93010071CF0100FEE7FEE756
:10936000FEE7FEE7FEE7FEE7FEE7FEE7FEE7FEE7D5
:10937000704700BF0C4880470C484FF007018843F6
:1093800085460B488047FFF73BBF0A480A490B4A0E
:10939000884207D0521A05D0037801300B70013192
:1093A000013AF9D17047000071930100006000207C
:1093B00031AD010018ED010000250020002500203E
:1093C0007047000007B5044B0093044A402300F0A7
:1093D00032F803B05DF804FBE19301005D25002045
:1093E0002DE9F84389461446B2B10F4B0F4E0325C1
:1093F000002743F00108224609EB0701002003F093
:109400006DFE0744241A48B933782BB14FF47A40E3
:10941000C047013D02D13570BDE8F88301233370A8
:10942000002CE8D1F8E700BF18ED01005C25002012
:10943000704703F087BEF0B595B01C461646084647
:109440000D4601F098FB1A9B0D93CDE908640024AA
:109450002346082205A928460A948DF82C400C942E
:1094600001F0A6FB079B0293069B03939DF8143023
:109470008DF8114003F00302012A1DD1BDF81440FC
:10948000059EC3F3C203C4F383148DF81030A20009
:1094900008230EA9284601F08BFBC6F3952608ABDE
:1094A0000093224602AB0EA9304600F05DFB284631
:1094B00001F065FB15B0F0BD022AF8D1BDF81640E9
:1094C000C3F3C203A4098DF810300827082C2646E0
:1094D00028BF08263B4632460EA9284601F068FB05
:1094E000A41B08AB02AA31460EA8374400F0A0FB2B
:1094F000002CEBD1DBE7000008B5FFF79AFF042151
:10950000034800F09FFA034B01225A7108BD00BFC7
:1095100008ED010000250020037813F0040216D0A6
:1095200003F00303012B03D0022B09D00120704765
:109530000A6800880232C0F3831002440A60F5E72B
:109540000B684288023303EB92130B60EEE7104680
:10955000704700002DE9F04F87B000230446851CBA
:109560000DF107000F4690468DF8073000F0CEFF52
:10957000454806683E60D0E90132134401339B1B25
:10958000824600F21C4600F5836900F21447AB42A4
:109590001BD30022B8F1000F70D0052363F307023C
:1095A00064F38912DAF80010DAF808309DF8070041
:1095B0000B4003330D444AF82320CAF8005000F052
:1095C000C9FF012007B0BDE8F08F0121304601F04E
:1095D0001EF8484601F031F8384601F02EF8DAF866
:1095E0000400DAF808B0029000EA0B0003300AEB3E
:1095F000800002A9FFF790FF029B50BB0BEA030219
:109600000AEB820203F1020CD2680392013303EAEF
:109610000B0B0AEB8B0B02F00302012ACDF808C0FA
:10962000DBF80C1022D0022A16D08346384601F00F
:1096300007F810B1029BCAF804305946304600F0D2
:10964000E6FFDAE901231344DAF8002001339B1A1C
:109650009DE70BEA0300C9E7BDF80E309B09033311
:109660004FEA114B0CEB93030293DFE7BDF80C308C
:10967000C3F383134FEA114B6344F5E7062363F307
:10968000070264F39F528DE7702600200B4B0C48B5
:10969000FF2210B59A600022C3F81824C3E9002203
:1096A000C3F8142483F8202401F01EFA044610B9EC
:1096B000044801F0BBFA204610BD00BF7026002010
:1096C00074EC01003CED010030B50A4C71B10A4A5E
:1096D0000A49121BD20800239A4201D1002030BD52
:1096E00031F82350854202D00133F5E7034654F8A0
:1096F0003300F4E788EC010008ED010000250020AC
:10970000094B013903EBC000032909D8DFE801F058
:109710000A020406042070470079704740797047B8
:10972000002070470220704788EC0100034BD3E90A
:109730000030C31A58425841704700BF70260020BD
:109740002DE9F04387B0FFF7F1FF0646002840F00F
:10975000FB807E4DC5F81804BFF34F8F6868AC6876
:1097600002902040033005EB800002A9FFF7D4FEF1
:10977000029B18B1D5F81824002A5FD004EA03022E
:10978000991C013305EB8202234005EB8303D26869
:10979000DB68049302F00303022B0392029162D16F
:1097A000BDF80E306A484FEA9318B8F1500FC14621
:1097B00028BF4FF0500969F38F1309F10801ADF884
:1097C0000E3001F0A9F90746002800F0A88001F04A
:1097D000D2F903A900230822384601F0DFF90299E3
:1097E00024EA01060136B600B14535D95FFA89F998
:1097F0007EB3F6B2A9EB0609214003315FFA89F482
:10980000B146544E05EB810108234A46384601F023
:10981000C5F936B109F1080322463146384601F050
:10982000BDF9029B08F1030803EB98030293D5F8F6
:109830001834002B4BD1D5F810445BE02A689A42CB
:1098400004D86A60304607B0BDE8F08304EA03003C
:1098500088E740493446D7E72140033108234A4688
:1098600005EB8101DAE7012B59D1BDF80C303848FE
:10987000C3F38311062928BF062161F3891302313E
:109880008900ADF80C3001F047F90746002846D0B2
:1098900001F071F90023082203A9384601F07EF98E
:1098A0000026BDF80C20C2F38312B300964203F1E8
:1098B0000803BCD202994A1C21400331029205EBF5
:1098C00081010422384601F069F90136E9E738469A
:1098D00001F055F9FFF72AFF80F00100C6B2B1E7A9
:1098E000E3685B7923B1236839461B6820469847B3
:1098F000E3681C68002CF3D1384601F040F90DF103
:1099000007008DF8074000F001FED5F818340BB9B8
:10991000029B6B609DF8070000F01CFEDAE7D5F8AB
:10992000104454B90C4B0D480D49C01AC00800042E
:1099300040F0020000F06EF8CCE7236820469B68F8
:109940009847E3681C68ECE700267BE77026002058
:1099500074EC01007C26002088EC0100C8EC0100BA
:1099600048ED01002DE9F74F284C80460F469246FE
:1099700001A9012218469B46D4F80890FFF7EAFD9A
:1099800080B3019D0026A91C5E4506EB010233D180
:1099900000211F4800F010FE80F310006A1C02EA4C
:1099A000090204EB8202000405EA0903033340EADA
:1099B0001840D06014F8232068F3C50204F823206F
:1099C00034F8232066F3891224F8232054F8232046
:1099D00067F39F2244F8232002F0F80242F00102CC
:1099E00004F8232094F820341BB1FFF7A9FE0028C7
:1099F000FBD103B0BDE8F08F09EA020204EB82025A
:109A00005AF82630D3600136BEE700BF702600202A
:109A10008C2A002000231A46FFF7A4BF07B50123B4
:109A2000019201AAFFF79EFF03B05DF804FB07B5A2
:109A3000CDE9002302236A46FFF794FF03B05DF8E7
:109A400004FB000030B50F49D1F810240023144660
:109A50003CB9C468237152B9C1F810042260184699
:109A600030BDE46825799D4206D02468F0E7D268CD
:109A7000116821601060F2E701330A2BE7D14FF043
:109A8000FF33ECE770260020094A38B50123D2F8ED
:109A9000104482F820341D4604B938BDE3685D7176
:109AA000236820465B689847E3681C68F4E700BFBA
:109AB00070260020037A052B10B50C460FD0437A90
:109AC00023B1084A0849204600F01DFE07492046F8
:109AD00000F019FE2046BDE8104000F009BE002A43
:109AE000F8D0F3E790ED010095ED0100B5ED010030
:109AF000C38873B504460D4633B1144A0092144925
:109B0000144A284600F0FFFD217A05291CD0637A0B
:109B10004BB1A088FFF7F4FD0F4B104953F82020FC
:109B2000284600F0F0FD227A0D4BA08853F8226001
:109B30000021FFF7C9FD0B4903463246284602B013
:109B4000BDE8704000F0DFBD02B070BD90ED0100D7
:109B5000A0ED010098ED010060ED010095ED010020
:109B6000C4ED0100B8ED01002DE9F04385B01F46BA
:109B70000C9D002306460C46904695F80C902B73DE
:109B800029463846FFF7B4FFB8F1060F09D8DFE8D9
:109B900008F00412181F283340003146284600F010
:109BA000B2FD002229463846FFF784FF85F80C9065
:109BB00005B0BDE8F08322683146284600F0A3FDD9
:109BC000EFE7D4E900233146284600F09CFDE8E7A2
:109BD000A36800933146D4E90023284600F093FDA2
:109BE000DFE7E3680193A36800933146D4E90023DB
:109BF000284600F088FDD4E723690293E3680193C7
:109C0000A36800933146D4E90023284600F07BFD89
:109C1000C7E76369039323690293E3680193A36829
:109C200000933146D4E90023284600F06CFDB8E7E4
:109C300008292DE9F84F80460E4617461C4636D8AF
:109C4000002593F80C901D7319461046FFF750FF3E
:109C5000DFF87CA0DFF87CB0AE422AD918F80520E6
:109C60005946204600F04FFD0135082DF4D1164924
:109C7000DFF864B0204600F046FD0025AE421DD955
:109C800018F805A0504604F069FE002814BF52469B
:109C90002E225946204600F036FD0135082DEDD123
:109CA000012221463846FFF705FF84F80C90BDE8F5
:109CB000F88F5146204600F026FDD5E7034920469F
:109CC00000F021FDE9E700BF8EED01008CED010001
:109CD0008AED010084ED0100E9F501001FB50021C6
:109CE000039001AA44F20100CDE9011100F004F84B
:109CF00005B05DF804FB000010B572B6FFF7C4FEB6
:109D0000FFF71EFD0028FBD1104B114C1149E41A3E
:109D1000E408240444F00100FFF77CFE0E4B1B68AE
:109D2000DB0700D500BE0D4944F00200FFF772FECC
:109D3000BFF34F8F0A490B4BCA6802F4E06213432A
:109D4000CB60BFF34F8F00BFFDE700BF88EC010081
:109D5000C8EC010023EE0100F0ED00E02FEE010061
:109D600000ED00E00400FA0549B152B1531E1A405B
:109D700007D1826001608380C260104670470E2068
:109D800070470920704710B58468C2688388121B29
:109D9000934208D3C26813400268D154C3680133A8
:109DA000C360002010BD0420FCE78268C3689A42AB
:109DB0000AD08268838813400268D35C0B70836882
:109DC000013383600020704705207047094A5378AB
:109DD00091780133DBB2994208BF00231178994290
:109DE0001FBF03705078182303FB002014BF0430FA
:109DF000002070472C2B002073B5054600240DF180
:109E000007000E468DF8074000F080FB0DF10600BC
:109E1000FFF7DCFF90B10670094B9DF80620456006
:109E20005A709DF8070000F095FB24B9054B4FF4DC
:109E30008012C3F80021204602B070BD0424F0E770
:109E40002C2B002000E100E0024B4FF43C6043F07B
:109E5000010318473CEE010038B50C4B0C4C4FF495
:109E60000032C3F8802001254FF48033C4F8483312
:109E7000C4F808336560FFF7E7FF064BA5600024D0
:109E80001C60FFF7E1FF044B1C7038BD00E100E0EF
:109E900000100140482C0020392C0020F8B51F4B41
:109EA0001F491B680025C1F84051C1F84451C1F851
:109EB0004851C1F84C51C1F80051C1F804514BB39D
:109EC000D1F8044517490968641A24F07F442F46E5
:109ED0001A68A24209D8A41A15441A7CDE691AB17C
:109EE0001F74D3E905209047AEB90F4A0F4B117884
:109EF0001B788B4205D10133DBB2022B08BF002354
:109F0000137012780A4B43F822500A4B4FF4801218
:109F1000C3F80021F8BD3346DAE700BF4C2C00201F
:109F200000100140482C0020452C0020442C00202B
:109F30003C2C002000E100E02DE9F04FA14AA249AD
:109F400013780978A14D994285B03CD00133DBB23A
:109F5000022B08BF002313709D4912789D4B0F6898
:109F600053F822003B1823F07F4300220B602B683C
:109F700016461446944613B942B12B6006E01968A0
:109F800081420ED902B12B60091A196001272B6892
:109F9000DFF848A201934FF00008BEB9DFF844B2E1
:109FA00066E0401A0C44D968C3F800C0D3F81CE03E
:109FB00031B13A1922F07F42C3E90121DE611E4628
:109FC00001227346D7E700263746E0E73446F669B4
:109FD0007F4A63681268DFF810C2A068991A21F0FE
:109FE0007F41614500F2A680014421600122227474
:109FF0002A680023C4E90133E361002A40F0A3800A
:10A000002C60CAE75A1C9BF80210D2B291428BF81E
:10A01000002004BF00228BF80020182202FB03B3AB
:10A020001A799C68022A1CD0032A12D0012A1FD157
:10A03000207CE8B9D3E90312A2605A69E2609A6908
:10A04000654BA2611B78002B0CBF0B460346636077
:10A05000BEE700222B681146002B67D142B12B606E
:10A0600006E029680A468946002A5AD1002323744B
:10A070009BF800309BF801209A42C3D12B68B8F1BD
:10A08000000F04D1019A9A4201D1002F43D0002B36
:10A0900073D0D3F800A0514D4D4BD5F804751C6812
:10A0A000DFF848813E1B98F8003026F07F460336E3
:10A0B0009BB94FF48033C5F84433C5F80433484B9B
:10A0C0004FF400324FF00109C3F880211A60C5F83F
:10A0D0000090FFF7B9FE88F80090B2452CBF5444B9
:10A0E000A41924F07F44C5F84045D5F80435DB1B9E
:10A0F00023F07F43E41B033324F07F44A3420AD9B7
:10A10000D5F80435C5F84035FFF79EFE344B4FF4C3
:10A110000032C3F80021304B00221A7005B0BDE8B0
:10A12000F08F94422CD09146D2699DE71974012298
:10A13000DB6991E7D31A23F07F43834234BFC31A0C
:10A140000023236052E721681368994213D8591AF3
:10A150001160E26154E7091AD8691A4638B103461A
:10A1600018688842F7D3401A1860184613462160D1
:10A17000E061DC6111E71346F2E7FFF76DFECAE725
:10A180004C4511D1CB692B6073B9DFF844E0012055
:10A19000CDE90212CAF80800CEF800300E4B187054
:10A1A000FFF752FEDDE902121368D269C9F81C20DC
:10A1B00012B11068034413602B68994218BF4FF026
:10A1C000010853E7442C0020452C00204C2C002093
:10A1D000482C00203C2C0020382C0020001001408E
:10A1E00000E100E02C2B0020FEFF7F00392C002036
:10A1F00008B5FFF731FE104B00200B2218809A7033
:10A200000E4B18600E4B18700E4B18700E4B4FF41F
:10A210008012C021C3F8802183F814131A6002F160
:10A220008042A2F56F22C2F8080583F81113074B8C
:10A23000D2F804251A6008BD2C2B00204C2C0020DD
:10A24000442C0020452C002000E100E0482C002098
:10A25000074B9B784BB132B128B10368187C20B909
:10A2600059745A617047072070470820704700BF33
:10A270002C2B00202DE9F7431E4FBB7805460E46D8
:10A280009046A3B398B304292FD943697BB3437C89
:10A290000024012B0DF107000CBF8946A1468DF863
:10A2A000074000F033F90DF10600FFF78FFDD0B144
:10A2B00001230370104B4560D3F80435C0E90498BE
:10A2C000C0E902369DF806307B709DF8070000F06B
:10A2D00041F924B9094B4FF48012C3F800212046FC
:10A2E00003B0BDE8F0830424EFE70724F7E7082470
:10A2F000F5E700BF2C2B00200010014000E100E03A
:10A30000064A92783AB130B1426922B10022027411
:10A310000221FFF771BD0820704700BF2C2B0020E1
:10A3200037B50578012D05D0002D36D0022D26D069
:10A3300003B030BD4368204C19782046FFF723FD59
:10A3400090B18DF8005001901C4B68461B689847EF
:10A35000A168E368A2885B1A9A420CD301221849CB
:10A36000184801F013FBE3E7A268E3689A42EFD0D4
:10A370008DF80000E8E7144B01221A70D8E7C36893
:10A380000F4910488DF800500122019301F0FEFAA8
:10A390000A4B68461B689847CAE70C490C48FFF708
:10A3A00004FD28B901220949064801F0A1FABFE7D6
:10A3B00003238DF80030EBE7542C0020502C0020B4
:10A3C000782C00200C250020642C0020792C002003
:10A3D000682C0020F0B51F46244B89B006461A6051
:10A3E0000C46002940D08A8821480968FFF7BCFC48
:10A3F000002837D1A289A1681E48FFF7B5FC0028C4
:10A4000030D11D4D0FCD6C460FC495E80F0084E888
:10A410000F0073690693337C184A19488DF81C7035
:10A42000003318BF01238DF81430737C002B14BF48
:10A430000E2300238DF81530F3680293B36803935D
:10A440003368019369467368009300F023FE48B9AE
:10A450000C4B18703368013304D001220A490B48B1
:10A4600001F094FA09B0F0BD0720FBE7502C002062
:10A47000542C0020682C002044EE010021A3010090
:10A4800008250020642C0020782C00200C250020BA
:10A4900070B50A4C01460A482678FFF786FC054647
:10A4A0004EB10023012207490748237001F06EFADC
:10A4B00008B1FFF713FC284670BD00BF642C0020D4
:10A4C000542C0020782C00200C25002010B50146CB
:10A4D0000B48FFF758FC044678B90A4801F04AFADD
:10A4E00058B909490648FFF760FC30B9012206490E
:10A4F0000448BDE8104001F0FBB9204610BD00BF84
:10A50000682C00200C250020792C002070B5EFF37A
:10A51000108672B60C4A946801239CB993600B4B69
:10A520000B4DD3F8801029401160C3F88050D3F848
:10A53000841051604FF0FF32C3F88420047006B9D4
:10A5400062B670BD0370FAE77C2C002000E100E0E9
:10A55000FC06FFBD084B9A6810B55AB150B9EFF32D
:10A56000108172B6054A1C6814605C68546098607B
:10A5700001B962B610BD00BF7C2C002000E100E0F4
:10A5800001F01F024B090121914000EB830000F014
:10A590001DB801F01F0301229A404B0900EB830014
:10A5A000D14300F029B84B0901F01F0150F82300F6
:10A5B000C84000F00100704750E8002F0B4640E80B
:10A5C000003C9CF0000FF7D11046704750E8003F68
:10A5D00043EA010240E8002C9CF0000FF6D110463F
:10A5E000704750E8002F02EA010340E8003C9CF06D
:10A5F000000FF6D11046704750E8003F03EA010211
:10A6000040E8002C9CF0000FF6D11046704750E84F
:10A61000003F03EB010240E8002C9CF0000FF6D154
:10A620001046704750E8003FA3EB010240E8002CC1
:10A630009CF0000FF6D1104670470121FFF7C6BF0E
:10A640000021FFF7CEBF10B590B1D0E9012301681A
:10A650009B1ADBB20A60013BDBB2FF2B026802D11E
:10A660000020107110BD11684C1C14600B70F2E7D3
:10A670000E20F7E737B5054600240DF107008DF8E9
:10A680000740FFF743FF2A686B68116899420ED9AB
:10A69000481E106011F8014CEB68298A01FB043454
:10A6A000AB6811791B1ADBB2994238BF13719DF860
:10A6B0000700FFF74FFF204603B030BD37B5054612
:10A6C00000230DF107000C468DF80730FFF71EFF41
:10A6D0002A681368591C1160E968641A298AB4FB56
:10A6E000F1F41C709DF80700FFF734FF03B030BD94
:10A6F000826810B504462AB1436901680069984729
:10A700000023A36010BD0EB403B5039921B104ABBF
:10A7100001AA019300F06CF802B05DF804EB03B0FD
:10A720007047826830B40468551C8560A154D0E934
:10A7300001329A4202D330BCFFF7DABF30BC704717
:10A740002DE9F84F9946DDE90A43174682468846C7
:10A750000A460126BA420FD24E4538BF4E4613F084
:10A76000010B01D164B900240125B9F1010F1AD9F7
:10A7700009F1FF397D43F8E7B2FBF7F20136E9E76B
:10A780009B070ED5B9F1000F0CBF30252025A6423E
:10A79000EAD2013C29465046FFF7C3FF002CF6D110
:10A7A000E1E72025F3E7B8FBF5F39F42E2D9DFF8B4
:10A7B0003C90B8FBF5F3504619F8031005FB1388DD
:10A7C000FFF7AFFFB5FBF7F3BD4207D2BBF1000FB8
:10A7D00002D00CB1A64203D3BDE8F88F1D46E8E7CE
:10A7E00020215046013CFFF79CFFF2E764EE010098
:10A7F0002DE9F74F054617468846002900F03081BD
:10A8000018F8011B49B92B7B002B00F02981284641
:10A8100003B0BDE8F04FFFF76BBF252940F0C080C3
:10A82000002698F800302D2B424608F1010823D06D
:10A83000302B24D02B2B25D000242A2B02F1010110
:10A8400023D13B681A1D1B683A601C440A461378E2
:10A850002E2B26D101324FF00009104610F8011BB3
:10A86000A1F1300CBCF1090F1DD80A2303FB091319
:10A87000A3F130090246F0E746F00106D1E746F0C1
:10A880000206CEE746F00406CBE711F8013CA3F13F
:10A8900030000928DBD80A2202FB0434303C0A4687
:10A8A000CBE74FF0000912F8011B01F0FB0068280C
:10A8B0009046F8D069290ED04AD8582964D006D8D5
:10A8C00025296DD098F80030002B99D19BE763299A
:10A8D00062D06429F6D13A68D2F800A0111D8AEA44
:10A8E000EA723960A2EBEA724FF0010B092A5BDCD5
:10A8F000CB4538BFCB462CB1BAF1000F01DB720754
:10A9000000D5013CB30702D5B9F1000F04D0F00720
:10A9100002D4002C4ED10024BAF1000F52DACAF151
:10A92000000A2D212846FFF7FCFE06F00302022A4A
:10A9300005D1B9F1000F02D1002C47D10024CDE997
:10A9400000464B460A2251462846FFF7F9FEB9E772
:10A9500073294CD014D87029B4D13B681A1D3A60C1
:10A96000302128461C68FFF7DCFE78212846FFF7D7
:10A97000D8FE00220823CDE9003221461022E3E769
:10A9800075292BD078299DD139680A1D3A60CDE907
:10A9900000464B46102228E03B681A1D19783A60A1
:10A9A0002846FFF7BEFE8DE70A230BF1010BB2FB31
:10A9B000F3F29BE7A345AFD220212846013CFFF7E5
:10A9C000B0FEA6E77107B0D52B21ABE7A345B6D201
:10A9D00030212846013CFFF7A4FEADE73968CDE9F8
:10A9E00000460A1D3A604B460A220968ACE73B68FC
:10A9F0001A1D3A6016F00106D3F800A020D1BAF172
:10AA0000000F03D0504604F0CFF80646B44200D9F8
:10AA1000C4B90AF1FF3A1EE028460136FFF781FE6D
:10AA20001AF806100029F7D1A642BFF44BAF002C4C
:10AA30003FF448AF20212846013CFFF772FEF3E7C0
:10AA40000026EDE720212846013CFFF76AFEDDE7FE
:10AA50002846FFF766FE1AF8011F0029F8D131E7F2
:10AA600003B0BDE8F08F2DE9F047B0F806904479C7
:10AA7000D2F800A09DF8208009FB04F4043C0646AF
:10AA80000AEB0300A0420F4688BFA4EB030A191D7E
:10AA9000C2F800A0B1FBF9F509FB15114DB9A9EBFE
:10AAA0000104544528BF5446BAF1000F04D1BDE853
:10AAB000F0873668013DF1E704317B1970182246B2
:10AAC000B8F1000F0ED001461846AAEB040A03F0B5
:10AAD000EDFFD145254436684C464FF0000128BFB4
:10AAE0005446E1E71946F0E7FFF7ADBDF8B5467902
:10AAF0000146721E0546002393422D6803D30024AD
:10AB0000A64202D8F8BD0133F6E70F682846FFF7E2
:10AB1000D5FD01343946F3E72DE9F843068ACD1C0B
:10AB20000746FFF7A7FD043E35440446B5FBF6F59E
:10AB3000F0B14FF48073EDB28380C680013D0760B1
:10AB400081464FF00008A84512D23846FFF792FD23
:10AB5000064648B163790133637108F10108C9F809
:10AB6000000007608146EEE72046FFF7BFFF34464E
:10AB70002046BDE8F88301210430FFF748BD10B539
:10AB8000012104460430FFF74DFD10F0FF0F04D102
:10AB90002046BDE81040FFF7A9BF10BD1FB50392C6
:10ABA0000022009203AAFFF75EFF05B05DF804FBE8
:10ABB0001FB503920122009203AAFFF754FF05B0CC
:10ABC0005DF804FB41DF70470B4B0C480C49C01A81
:10ABD000C008000410B540F00300FEF71BFF094B4E
:10ABE00000241C70084B1C60BFF35F8F07490848A6
:10ABF00000F025F8204610BD88EC010000ED0100B2
:10AC000074EE0100902C0020942C00207CEE0100BA
:10AC1000882C002008B503F0C1FC18B1BDE808403D
:10AC2000FFF7D0BF20BF40BF20BF08BD8368002210
:10AC30005A609A60C3E90422DA601A6070470B68B0
:10AC40004A684360934208BF0023016008BF436025
:10AC50007047436843B10268916852680B4493425D
:10AC6000436004BF002343607047000010B50D49E6
:10AC7000A1F59472914201D800200FE08B1ADB10ED
:10AC800003EBD3735B1002EBC30452F833308342FF
:10AC900005D802D204F10802ECE7606810BD214635
:10ACA000E8E700BFCCEF010008B5FFF7DFFF024B7C
:10ACB000002808BF184608BD91EE01000C4B1B7818
:10ACC000062B10D10B4B1B681A070CD10A4B1868C6
:10ACD00000F0F003302B08D000F0E000A0F14003BA
:10ACE000584258417047002070470120704700BF0C
:10ACF000E00F00F0E40F00F0E80F00F0094B1B78C4
:10AD0000062B0CD1084B1B681A0708D1074B186893
:10AD100000F0F000A0F13003584258417047002085
:10AD2000704700BFE00F00F0E40F00F0E80F00F004
:10AD300008B5FFF7C3FF28B16F4B704A1B68C3F318
:10AD400004231360FFF7DAFF10B16D4B6D4A1A60F0
:10AD50006D4B6E4A1B68C3F342331360FFF7CEFF9F
:10AD600020B16B4AD36823F08073D3604FF08043E7
:10AD70000022C3F80C21C3F81021C3F83825FFF7CF
:10AD8000BDFF10B1634B03221A60FFF7B7FF40B15C
:10AD9000614B05221A6001229A6700229A603F22C5
:10ADA0005A604FF080525D4BD2F80414C3F820155E
:10ADB000D2F80814C3F82415D2F80C14C3F82815D7
:10ADC000D2F81014C3F82C15D2F81414C3F83015A7
:10ADD000D2F81814C3F83415D2F81C14C3F840156F
:10ADE000D2F82014C3F84415D2F82414C3F8481537
:10ADF000D2F82814C3F84C15D2F82C14C3F8501507
:10AE0000D2F83014C3F85415D2F83414C3F86015CE
:10AE1000D2F83814C3F86415D2F83C14C3F8681596
:10AE2000D2F84014C3F86C15D2F84424C3F8702546
:10AE300003F54053FB22C3F81825FFF73FFF28B165
:10AE4000374B384A1B6803F04F0313604FF08043C1
:10AE5000D3F80024D20744BF6FF00102C3F80024E6
:10AE6000314B1B68062B08D1304B1B68062B01BFEA
:10AE70002F4A136843F4806313604FF01023D3F814
:10AE80000022002A03DBD3F80432002B2FDA294BEF
:10AE90000122C3F80425D3F80024002AFBD04FF088
:10AEA00010221521C2F80012D3F80024002AFBD08A
:10AEB0004FF010231522C3F804221E4B1A46D3F874
:10AEC00000140029FBD00021C3F80415D2F8003487
:10AED000002BFBD0BFF34F8F1749184BCA6802F401
:10AEE000E0621343CB60BFF34F8F00BFFDE7144B0D
:10AEF000144A1A6008BD00BF240300104035014009
:10AF000074C007400DF0ADBA440200103C0500408B
:10AF1000F0ED00E0A00500401056004000C00040E9
:10AF200058020010E40E00403001001034010010FF
:10AF30003C17004000E0014000ED00E00400FA058D
:10AF4000142500200090D00338B5074C051E04F1ED
:10AF5000080318BF1C4623682BB11A6822605B687F
:10AF600028469847F7E738BDA02C002020B9054BAC
:10AF700001225A70FFF7E8BF012802D1014A907000
:10AF8000F8E77047982C002020B9034B01225A7033
:10AF9000FFF7DABF704700BF982C002038B50B4C84
:10AFA000237883B90A486360A3602361E36000F0FB
:10AFB000A3F8054603F0F2FA08B900F0A9F8012356
:10AFC0002370284638BD8525FBE700BF982C00205C
:10AFD0006DAF010037B50B4C00230DF107008DF864
:10AFE0000730FFF793FAE368013BE360E56815B9C2
:10AFF00000F0A2F8A5709DF80700FFF7ABFA03B0C8
:10B0000030BD00BF982C0020012813B509D018B11D
:10B0100003281CD002B010BD0F4B0122C3F88020C2
:10B02000F8E70E4C00230DF107008DF80730FFF70D
:10B030006DFA23780BB9FFF7B1FFE3689DF80700BD
:10B040000133E3600123A370FFF784FAE2E700F025
:10B050005FF8FFF7BFFFDDE700E100E0982C00207C
:10B060001FB503788DF8003043680193037A8DF89B
:10B070000830C3680393054A054B684653F82130EE
:10B0800052F82110984705B05DF804FBAC2C002065
:10B09000B02C0020F0B506460F4B16F804CB43F851
:10B0A0002C200E4B17460C460A6943F82C200FCC77
:10B0B00089B06D460FC594E80F00002F85E80F009A
:10B0C000074ACDF810C008BF3A466946304600F03E
:10B0D00047FB09B0F0BD00BFB02C0020AC2C002015
:10B0E00061B0010000F18040002382B0036003687A
:10B0F0000193019B02B07047044A137923B90121DF
:10B10000106091801846704785207047B42C00204D
:10B11000084B1A68D20706D4C02283F80023012204
:10B12000C3F880211A604FF080430122C3F818252C
:10B13000704700BF00E100E0044B01221A604FF0AD
:10B140008042D2F81834DB03FBD470470C00004077
:10B15000124B1B6810B573B14FF48070FFF7C2FF3C
:10B160004FF080430122C3F808230D4B587910B9E2
:10B170005A711B6898470B4B1B6873B14FF4827070
:10B18000FFF7B0FF4FF080430222C3F80823044BBF
:10B1900001201B68BDE81040184710BD00010040A9
:10B1A000B42C00200401004000F1804000F5C040B4
:10B1B000002382B0036003680193019B02B07047D3
:10B1C000800000F1A040D0F8003723F44033C0F8ED
:10B1D0000037D0F8003743EA0141C0F80017704744
:10B1E000054B4FF0FF32072843F8202084BF1B187F
:10B1F00083F84820704700BFBC2C0020C2080549D6
:10B2000000F0070001238340885C20EA0300885493
:10B21000704700BF102D002010B5184C94F858301E
:10B2200053BB04F130032021FF22013911F0FF014B
:10B2300003F8012BF9D1C8B2FFF7D2FF01310C2975
:10B24000F9D1042200210E4803F059FC0D4BC02215
:10B2500083F806234022C3F880214FF4BE701A60A1
:10B26000FFF7A2FF084B4FF00042C3F8042301236D
:10B2700084F85830002010BD0820FCE7BC2C0020CA
:10B28000102D002000E100E000600040034B93F827
:10B290005800003018BF0120704700BFBC2C0020B0
:10B2A00030B52E4B1A1892F93040013453D18C78B6
:10B2B000002C4CD01C46002254F8045B013541D1CF
:10B2C0001C1884F83020002443F82240920002F138
:10B2D000804202F5C0420B78D2F810554C7825F424
:10B2E00098151B04240525F4F85504F4801403F480
:10B2F0004033C2F8105523430402D2F8105504F429
:10B30000F85423432B43C2F810354A780123012A0D
:10B310004FF0A04203FA00F30CBFC2F80835C2F8A0
:10B320000C3500F5E073032142F82310C2080C49E4
:10B33000012300F0070003FA00F08B5C18438854E7
:10B34000002003E00132082AB6D1042030BDFE23DC
:10B3500082F83030D9E70820F8E700BFBC2C002085
:10B36000102D002038B516490D18044695F8300008
:10B37000072809D8FFF734FF95F93030114A03F553
:10B38000A273002042F823000B19FF2201EBD40125
:10B3900083F8302091F85420012304F007018B40FA
:10B3A0001A420BD004F5E0724FF0A043022143F89B
:10B3B00022102046BDE83840FFF720BF38BD00BF4F
:10B3C000BC2C002000600040012303FA00F04FF085
:10B3D000A043C3F8080570470E4B034493F930208F
:10B3E000072A02DD0021FFF7EBBED3B2072B10D8EE
:10B3F000930003F1804303F5C043D3F8101521F007
:10B400000101C3F81015012303FA02F2024BC3F83D
:10B4100008237047BC2C00200060004038B5164C53
:10B420000546FFF7D9FF631993F93030DAB2072ADE
:10B430009FBF03F5A273114A002142F8231004EBC9
:10B44000D50305F0070193F8542001238B401A42DD
:10B4500009D005F5E0734FF0A042022142F8231015
:10B460002846FFF7CBFE2C4494F83000FFF7B8FED7
:10B47000FF2384F8303038BDBC2C00200060004031
:10B4800038B50B4D002415F9013B9A1C0AD1204612
:10B49000FFF768FF0134202CF5D1064B002283F81A
:10B4A000582038BD002BF5DB2046FFF7B7FFF1E74A
:10B4B000EC2C0020BC2C00202DE9F04F85B000249E
:10B4C0005A4D01944FF48072012102F1804303F53B
:10B4D000C04390B21B68012B06D1D5F804330B4250
:10B4E00002D0FFF761FE0C430432B2F5907F4FEAC1
:10B4F0004101EAD14E4B1B68012B0AD14FF4BE70BB
:10B50000FFF752FE4FF0A04344F00044D3F810354B
:10B51000019314F0FF0F1AD0464F00250126344244
:10B5200010D0AB0003F1804303F5C043D3F81005FE
:10B53000D3F8101557F8253023B1C1F30141C0F3FA
:10B54000042098470135082D4FEA4606E7D1002C24
:10B5500064DA00224FF0FF33CDE90223354D012795
:10B560004FF0000A344E54464FF0A04816F9012B14
:10B57000531C46D0D2B222F0C0094FEAD90104A828
:10B58000084402F0070310F804CC07FA03F31CEA9E
:10B59000030F36D005EB090C92099CF930C055F821
:10B5A0002CB0BBF1000F0AD1032A2AD10DF1080EED
:10B5B0001EF801C04CEA030C0EF801C001E0032A9A
:10B5C000F4D009F5E07110F80C0C58F8211018426D
:10B5D000C1F3014105D0022913D1032A0BD1114631
:10B5E00004E003290DD1032A05D102214846FFF7C3
:10B5F000E7FD0134E4B2BBF1000F02D0114648462A
:10B60000D8470AF1010ABAF1040FAFD134B14FF0B3
:10B61000A043019AD3F81035934202D105B0BDE89A
:10B62000F08F0193029B03939AE700BF00600040F4
:10B630007C610040BC2C00200C2D002000207047B5
:10B640000023435082B043580193019B02B07047DE
:10B650001FB501238DF80030054B8DF808000191CE
:10B660006846D3E90012904705B05DF804FB00BFBF
:10B67000182D00207FB5384AD2F82461002E49D019
:10B6800010464FF49271FFF7DBFF02238DF8003074
:10B69000D2F88034C2F880340393D2F83C358DF868
:10B6A00008302E4BDA6801920022C3E90622684670
:10B6B000D3E900129047284AD2F8443173B14FF4CD
:10B6C000A2711046FFF7BCFF244B996931B10021EC
:10B6D0009961D2F83C05D968FFF7BAFF1E4AD2F843
:10B6E0002031ABB14FF490711046FFF7A9FF1B4B0F
:10B6F000596969B1D2F84C158DF808100022996883
:10B700008DF8002001915A616846D3E900129047F4
:10B7100004B070BDD2F81031002BCCD04FF488713A
:10B720001046FFF78DFF0D4BD2F83C059969884212
:10B73000C1D1DC69D96864B1D2F8005225F0200586
:10B74000C2F800521A699C61DA60DE61FFF780FF7F
:10B75000B1E79C61FAE700BF00200040182D0020EF
:10B760002DE9F8435E4B06799146242202FB06320E
:10B77000044692F820200D469846002A40F0AB80FF
:10B7800058490068FFF75AFF0746002840F0A58097
:10B7900029682368481C0BD04FF0A04001228A4042
:10B7A000C0F8082501F5E0724FF0030C40F822C004
:10B7B0006868421C1FBF00F5E0724FF0A04C4FF0CC
:10B7C000000E4CF822E0AA6995F814C0C3F82425AD
:10B7D0006A7DBCF1010F4CEA0202C3F86C25C3F884
:10B7E0000C15C3F814051DD1AA68511C1FBF02F522
:10B7F000E0714FF0A0404FF0000C40F821C0E96824
:10B80000481C0BD04FF0A04C01208840CCF8080514
:10B8100001F5E0704FF0030E4CF820E0C3F8081576
:10B82000C3F810252423734308EB0302C2F80490E5
:10B830002A6948F80320B9F1000F3BD04FF4887112
:10B8400020682D7FFFF7FCFE4FF490712068FFF712
:10B85000F7FE4FF492712068FFF7F2FE20684FF474
:10B86000A271FFF7EDFE22681F4BC2F80433120BE2
:10B8700053B2002BA8BF03F160404FEA53134FEAC5
:10B880004511BABF194802F00F0500F561404FEAB3
:10B890008303C9B203F16043B4BF415580F800137C
:10B8A00003F5614302F01F02012101FA02F2C3F81D
:10B8B00080211A6023680822C3F80025242303FB93
:10B8C00006830022C3E906225A61012283F8202060
:10B8D0003846BDE8F8830827FAE71127F8E700BFE4
:10B8E000182D002075B601001003020014ED00E0D1
:10B8F00001F06043B3F1005F2DE9F041074632D11A
:10B900001B4B0679242505FB063598466C6964BBFC
:10B910006A61A96000684FF49071FFF791FE4FF4DF
:10B92000AC713868FFF78CFE3B686A69A968C3F898
:10B930004415C3F8482501229A606A6862B9D3F8B1
:10B940002021D3F8584152B9002CF8D00F242423D9
:10B9500003FB0686002373612046BDE8F081002CBE
:10B9600018BF0F24F3E71024F6E71124F4E700BF13
:10B97000182D00200379044A242101FB0323586970
:10B98000003018BF01207047182D0020F8B501F0D5
:10B990006043B3F1005F04460F465ED10379304D3A
:10B9A000242101FB0351486820B121684FF404763B
:10B9B000C1F80863242101FB03539E6956B1D9697C
:10B9C000002939D020B123684FF40472C3F804234E
:10B9D000112030E09A61DF60DE614FF488712068E9
:10B9E000FFF72EFE4FF4A2712068FFF729FE2368AF
:10B9F000C3F83475C3F8382516BB01221A602179C3
:10BA0000242202FB015252680ABBD3F81041D3F83A
:10BA10004421D3F82401144302D10028F5D0224652
:10BA2000242303FB01550023984218BF03209A42A8
:10BA3000AB6118BF0F20F8BD1F61DA610126CCE7AA
:10BA4000D3F8002242F02002C3F80022D7E74FF4D7
:10BA50000472C3F804230020EDE71020EBE700BFD9
:10BA6000182D00202DE9F74F4FF00009154D164E07
:10BA700007464FF0040AC8465FFA89FB01240DF11E
:10BA8000070004FA0BF48DF80780FEF73FFD2C4207
:10BA900008D0336814EA030201BF2343336087F8F8
:10BAA00000B092469DF80700FEF754FDBAF1000F72
:10BAB00003D0A54309F10109DED1504603B0BDE82A
:10BAC000F08F00BFFFFF01003C2D002037B501259E
:10BAD0008540C5F31003ABB10B4B0024C3F80855E8
:10BAE0000DF107008DF80740FEF710FD074A9DF89D
:10BAF0000700136823EA05051560FEF72BFD2046B5
:10BB000003B030BD0720FBE700F001403C2D0020D2
:10BB100010B5A1B19AB101238340C3F3100484B1DD
:10BB20000A4C246823420ED0C00000F1804000F58A
:10BB3000F830C0F81015C0F81425002010BD0E20F4
:10BB4000FCE70720FAE70820F8E700BF3C2D0020BB
:10BB500001238340580C400440B91BB1054A1268C8
:10BB6000134205D0044AC2F80435704707207047D5
:10BB7000082070473C2D002000F0014000F180407B
:10BB800000F5E040002382B0036003680193019B4D
:10BB900002B07047F0B5534B534C1B6885B0002B77
:10BBA0003DD04FF4827094F82E20FFF7E7FF2AB3C0
:10BBB00094F82F3013BB4D4B1B68002B33D04FF440
:10BBC0008070FFF7DBFF94F82D20638B91B28B42DE
:10BBD0004ED95B1A21899BB26383CB1A616801EB52
:10BBE0004301434BC3F82C16C3F830264FF4827040
:10BBF000FFF7C4FF3F4B01221A6014E06368029311
:10BC00002389ADF80C30E36800218DF8041023BBC4
:10BC10002374236801A89847002384F82F3094F8F0
:10BC20002E30002BC7D1344B1B685BB14FF48870AA
:10BC3000FFF7A4FF0023237402238DF8043001A82A
:10BC4000236898472D4B1B6813B34FF48A70FFF796
:10BC500095FF0023237405B0F0BD208B60836360E3
:10BC60002081E160002AD4D1214B01221A60D0E763
:10BC7000BCD1E368012184F82F103BB1002161831E
:10BC80001B49C1F82C36C1F83026AFE76383ADE716
:10BC900066694FF000470125002EDCD0B6FA86F227
:10BCA00027FA02F34632920026EA030602F18043A5
:10BCB00003F5E0431B68002BEED01046FFF75EFF54
:10BCC000A2F58C72D30882F00402C2F380028DF8D0
:10BCD00008308DF804508DF80920236801A8984792
:10BCE000DAE700BF04710040402D002000710040E1
:10BCF000007000400470004010710040147100405A
:10BD000038B51D4B044693F82C0098BB1B4A1960AC
:10BD10002178C2F8F0156178C2F8F415E578187446
:10BD2000012183F82C1083F82D00586183F82F002F
:10BD300083F82E506FF00043C2F808334FF482703E
:10BD4000FFF71CFF4FF48070FFF718FFA3780C4833
:10BD50005B01DBB280F807338023C0F880310360D9
:10BD60000223C2F804330DB1C2F80413C2F800155F
:10BD7000002038BD0820FCE7402D00200070004066
:10BD800000E100E02A4B1A7C70B502F0FF05002AA2
:10BD90004BD10A79012A9CBF264CC4F8005500F10A
:10BDA0000C0503EB4504247924B993F82D400134A4
:10BDB00083F82D4003EB4503CC790D7A8E781C7106
:10BDC0005D714B7836021B0106F4E06603F0300328
:10BDD00033430E7806F003063343CE78360306F479
:10BDE00080563343160406F4E02633434E798979AE
:10BDF000360506F480160906334301F080710B43C3
:10BE00000C4901EB0016000100F1804000F5E04014
:10BE1000012AC6F81835C0F81455C0F8104502D8E4
:10BE20000123C1F80035002000E0112070BD00BFE3
:10BE3000402D002000700040054B93F82E30002B61
:10BE400014BF0020042000F1804000F5E04070475E
:10BE5000402D0020264A274B70B505461220C2F817
:10BE600008031C7C022C03D1C2F80403112070BD0E
:10BE7000187C01281DD1D86818B10223C2F80433F8
:10BE8000F4E7DD60198393F82E3063B91A4A13681A
:10BE9000002BFCD04FF48070FFF770FE144BC3F8FA
:10BEA0002C56C3F83016124B0222C3F8042300208C
:10BEB000DDE7022093F82E40C2F80403012600209B
:10BEC0001E745D601981D8603CB1598393F82D30A0
:10BED000C2F82C56C2F83036C9E7C2F82C564FF4D7
:10BEE0008070C2F83016FFF749FE20461660BEE7A4
:10BEF00000700040402D002000710040024B187C73
:10BF0000003018BF01207047402D0020F0B51B4FB6
:10BF10008BB207EB001443EA0243C4F81C35184BFC
:10BF200040005C6900F1010C4FF0004611F5006F14
:10BF300026FA0CF64FF0800505FA00F50BBFB44366
:10BF400034435C615C610CBFC7F80853C7F8045305
:10BF500040244FF000455969844025FA00F040F232
:10BF6000FF75AA42054A0BBF8143014359615961DC
:10BF70000CBFC2F80843C2F80443F0BD0070004093
:10BF8000402D0020124B1A7C10B5F2B900F10C01C3
:10BF900003EB4102127922B193F82D20013A83F884
:10BFA0002D2003EB410300249C80030103F1804317
:10BFB00003F5E04340F2FF72C3F814450549C3F8A6
:10BFC0001045FFF7A3FF204610BD1120FCE700BF7E
:10BFD000402D002000F8FFFF38B5134B6FF00042F2
:10BFE000C3F80823114A8021C2F88010104A0121A9
:10BFF0001160104942F21072086808B9013AFBD189
:10C000000D4D0024C3F800452C7405EB44031B7F41
:10C0100013B1E0B2FFF7B6FF0134082CF5D10023CD
:10C0200085F82C3038BD00BF0070004000E100E012
:10C030000870004014710040402D00202DE9F743A6
:10C04000002406460F4600F5A0754FF48038A1463F
:10C05000A0002B6800F5A07080B26BB1D6F8043355
:10C0600008FA04F21A4207D0C5F800902B68019331
:10C07000019BD7E9003198470134042C05F10405F0
:10C08000E6D103B0BDE8F083F7B50579334C0C2653
:10C090006E43A7193B7A002B5DD1A2514A687A60A2
:10C0A000467900681F46DAB296424BD8020B53B26B
:10C0B000CE78002BA8BF03F16047D2B24FEA5313EA
:10C0C000B8BF02F00F0C4FEA4616B4BF244F07F575
:10C0D00061474FEA8303F6B203F16043B4BF07F848
:10C0E0000C6087F8006303F56143012602F01F022C
:10C0F00006FA02F2C3F880211A60D0F804254B78C2
:10C1000022F0030203F003031343C0F80435D0F810
:10C1100008258B7822F0030203F003031343C0F8D1
:10C120000835D0F810250B7822F00F0203F00F032A
:10C130001343C0F810350C2303FB0544002026727E
:10C1400003B0F0BD9A0002F5A07201338750825807
:10C150000192019AA7E70820F2E700BF702D0020A6
:10C1600014ED00E0036801221A600379034A0C21F0
:10C1700001FB032302221A72704700BF702D0020BA
:10C180000368044901221A6103790C2000FB0313A0
:10C190001A727047702D00200268110B38B54BB22F
:10C1A00001245B0901F01F0104FA01F120330B4C5B
:10C1B00044F823100546D2F8003200244FF0FF3334
:10C1C000C2F80042C2F80833FFF7DAFF2B79044ABD
:10C1D0000C2101FB03231C7238BD00BF00E100E00D
:10C1E000702D002037B54FF480348C4000687BB14F
:10C1F00001F150039B000025C550C3580193019BDA
:10C20000C0F8044301F5A87140F8212003B030BD07
:10C21000C0F80843F6E770B4046840F20116D4F899
:10C2200000528E4025EA0605C4F80052D4F80052A8
:10C230002B43C4F800329DF80C3070BCFFF7D2BF1E
:10C2400001490248FFF7FABE702D0020008000402F
:10C2500001490248FFF7F2BE7C2D0020009000400B
:10C2600001490248FFF7EABE882D002000A00040E7
:10C270000023435082B043580193019B02B07047A2
:10C280002DE9F041224E234FDFF88C8000254FF43A
:10C290008034D7F8043306F5A041234289B20CD08C
:10C2A000336853B1C7F848433846C7F80843FFF727
:10C2B000DFFFD8F80030E8B298470135032D4FEA88
:10C2C000440406F10406E4D11248D0F80433DA0736
:10C2D0000AD5D0F800313BB14FF48071FFF7C8FFA9
:10C2E0000D4B04201B6898470A48D0F804339B077D
:10C2F0000CD5D0F804314BB14FF48271FFF7B8FF81
:10C30000054B05201B68BDE8F0411847BDE8F081EA
:10C3100040B1004000B00040942D0020032813D805
:10C32000012A0BD1012908D100F10E02D2B200EB93
:10C3300040000C4B1A540020704700220129F6D00F
:10C340004BB24BB1022901D007207047054B00EBDF
:10C35000400018444270EEE7024900EB40000844F8
:10C360008270E8E7982D002008B501220221002004
:10C37000FFF7D4FF08B1072810D1072202210120BE
:10C38000FFF7CCFF08B1072808D100210A22084690
:10C39000FFF7C4FF10B1072808BF002008BD000048
:10C3A0000388102B10B502D0112B1ED010BD1A4CD3
:10C3B0002168B1B901220846FFF7B0FF08B107288C
:10C3C00024D1072202210120FFF7A8FF08B1072886
:10C3D0001CD1042202210020FFF7A0FF08B107288A
:10C3E00014D1236801332360E0E70B4A1368013B53
:10C3F0001360002BDAD1FFF7B7FF0028D6D0074B28
:10C400001B68002BD2D0BDE810401847034B1B68B7
:10C41000002BE6D09847E4E7A82D0020A42D0020AB
:10C4200033DF704776DF70477ADF70477CDF704715
:10C430007FDF70478FDF7047B1DF70477047632839
:10C4400004DC0A28B4BF0120022070470320704793
:10C45000FDF744BC08B530B9FFF7E2FF18B1BDE8FD
:10C460000840FDF73BBC08BD30B50E4D0FCD8BB07D
:10C4700004AC0FC495E803000B4B0C4A00934FF437
:10C48000807384E80300CDE902230193084A07235F
:10C49000694604A8FDF79EFF08B1FDF71FFC0BB02D
:10C4A00030BD00BFB8F30100CC2F0020D2300020F7
:10C4B00011C9010008B5FDF79BFE044A106018B1D0
:10C4C000BDE80840FDF70ABC08BD00BFBC2D002038
:10C4D00008B5FEF779FB18B1BDE80840FDF7FEBBD3
:10C4E00008BD07B502F01CF808B1FDF7F7FB002303
:10C4F00001A90120019302F0A1F808B1FDF7EEFBBC
:10C5000001A802F069F908B1FDF7E8FB03B05DF896
:10C5100004FB00000388212B13B546D01DD8112B36
:10C5200029D0132B4DD0102B15D12E4B81882E489E
:10C53000198001F0D7FD08B1FDF7D0FB2B4B2C483B
:10C540002C4901221A702C4BC01AC008000440F07C
:10C550000300FDF763FA02B010BD522B39D0562B01
:10C5600001D03B2BF7D113218088FFF75BFF1F4BD6
:10C5700000221A7020E0204B1D4CE41A037AE408D4
:10C580002404082B44F0030403D11C492046FDF782
:10C5900041FA144B1A494FF6FF721A80134B0022CE
:10C5A00020461A70FDF736FAD5E7002301A98088E6
:10C5B000ADF80430FFF73EFF0028CCD0FDF78EFB2E
:10C5C000C9E7084800231A4685210088FFF730FF95
:10C5D000F2E7044800231A4619460088FFF72CFFAB
:10C5E000EAE700BF1E250020A02F0020B92D002063
:10C5F000C8EC0100D0F3010088EC0100E6F3010073
:10C60000FAF301001FB5112310488DF8043002F031
:10C61000CBFA0E4982B201A8FFF708FF08B1FDF777
:10C620005DFB08220DEB0200002102F068FA084AC7
:10C630004FF0C87302A8CDE90223FFF7F5FE08B159
:10C64000FDF74CFB05B05DF804FB00BF35F40100BD
:10C6500010003C0007B50D4B0D48019301A901F0F6
:10C660002FFD08B1FDF73AFB00210422684602F0D5
:10C6700046FA084B08480093694601F05DFE08B190
:10C68000FDF72CFB03B05DF804FB00BF51C40100B3
:10C69000A02F00208DC901002025002000B5ADB0DD
:10C6A000AC22002101A802F02AFA02238DF80430FE
:10C6B0004FF4A0630F4AADF806300123ADF85030B7
:10C6C00015928DF880304FF4FF7241F28833CDE936
:10C6D000232301A9084B09482A9300F0C2FF08B19F
:10C6E000FDF7FCFA0121054800F0B8FF2DB05DF818
:10C6F00004FB00BF1825002055C40100B82E0020FF
:10C7000000B589B01C22002101A802F0F8F900232D
:10C710004FF42032CDE90132ADF812304FF47022DF
:10C720008DF81430084B039206930322074B8DF8C3
:10C73000102001A8079301F03DFA08B1FDF7CEFAE9
:10C7400009B05DF804FB00BF29CB010025CB010037
:10C7500008B50321044800F0F6FF18B1BDE8084011
:10C76000FDF7BCBA08BD00BFB82E00201FB5204B96
:10C770002048C01A204BC0081B78000440F003007A
:10C7800043BB1E49FDF746F902234FF48032019264
:10C790000222ADF808201A491A488DF80B30002201
:10C7A0008DF80A208DF80C20FFF7AAFA08B1FDF7E2
:10C7B00095FA01A90020FFF7E5FA08B1FDF78EFA16
:10C7C0000B211148FFF746FB08B1FDF787FA05B0CA
:10C7D0005DF804FB0D4B1B7823B90D49FDF71AF9E1
:10C7E0000423D2E70B49FDF715F90123CDE700BF7C
:10C7F00088EC0100C8EC0100BA2D00205CF50100B6
:10C80000B5CB01000BF40100702F0020B82D0020E3
:10C8100079F5010096F501001FB5184A1848002364
:10C82000CDE9022302A9174AFFF72EFC08B1FDF754
:10C8300055FA154BD3F8102500214FF40C70D2B2E5
:10C8400020FA02F2009101230D48FFF7E4FC0C48A6
:10C85000FFF788FCFFF7F0FA04460C48FFF702F9EF
:10C8600008B1FDF73BFA094B094918782246FFF752
:10C870004FF908B1FDF732FA04B010BD0000030211
:10C8800060F401003DC40100009000409C2F002096
:10C890004091004008B5054B1878FFF759F918B1D9
:10C8A000BDE80840FDF71ABA08BD00BF9C2F002064
:10C8B000632970B519D90A256426B1FBF5F4B1FBDB
:10C8C000F6F305FB141406FB13131B1BB3FBF5F364
:10C8D000DAB205FB0242891A3033B1FBF6F130348B
:10C8E000303101704370847070BD09290CD90A225F
:10C8F000B1FBF2F302FB1313C91A3033B1FBF2F1AF
:10C90000303101704370EFE730310170ECE7000027
:10C910000378F7B573BB184C184D20782844FDF701
:10C92000B7FD23780133DBB21D44237015F8012CC9
:10C930000A2A05D00D2A03D0114A12889A4219D822
:10C94000012B15D90F4D0D4E0F4F2378ADF8063042
:10C950000DF106022B883146384601F063FD0828A8
:10C9600006D01328F1D0052802D008B1FDF7B6F99A
:10C970000023237003B0F0BDB42E0020C02D002092
:10C980001C2500201E250020202500202DE9F04137
:10C990000578064645BB1E4C1E4BDFF88080E41A26
:10C9A000E408240444F00104B28A95420AD33369AE
:10C9B000134413F8013C0D2B16D10A20FDF786FD18
:10C9C0001128F9E73369585DFDF780FD074648B146
:10C9D0001128F7D0024641462046FDF71FF8384699
:10C9E000FDF77CF90135DFE73378012B0DD10848DD
:10C9F000084B0949C01AC008000440F00300FDF7C5
:10CA000009F8FCF79DFE0028FBD1BDE8F08100BFCE
:10CA1000C8EC010088EC010097F401006CF40100FF
:10CA20002DE9F84F384D394FD5F800B0384C0E4647
:10CA30008146594610469046FFF73AFFD7F800A0C6
:10CA400030465146FFF734FF2068FFF7F8FC0246F6
:10CA50005846FFF7F4FC0244504692B2FFF7EFFC51
:10CA600003322C4BDFF8B8B02B4902442B48C01AD4
:10CA7000C008000492B240F00300ABF80020FCF7BD
:10CA8000CDFFBBF8000001F06FFF82462068FFF782
:10CA9000D6FC49460246504602F008F82068FFF7E7
:10CAA000CEFC01300AEB00032868FFF7C8FC4146C2
:10CAB0000246184601F0FAFF2068FFF7C0FC034663
:10CAC0002868FFF7BCFC0344023338685344FFF77F
:10CAD000B6FC31460246184601F0E8FF2068FFF731
:10CAE000AEFC2C220AF8002003462868FFF7A7FCBA
:10CAF0005344034450465A70BBF8003053440A2252
:10CB000003F8012CBDE8F88FB42D0020AC2D0020D7
:10CB1000B02D002088EC010025F40100C8EC0100D4
:10CB2000D0300020FDF7DAB838B50378EBB90F4BF9
:10CB30000F481049104DC01AC008000440F003000F
:10CB4000FCF768FF40F6B83445F001054FF47A4031
:10CB5000A847013CFAD1094B3B211888FFF762FC3A
:10CB600018B1BDE83840FDF7B9B838BD88EC010010
:10CB7000C8EC0100AFF4010010F401001E250020F4
:10CB800008B50A48FFF708FB094B1878FEF79EFF27
:10CB9000FFF722FAFFF7B2F90028FBD1FFF7E6FD15
:10CBA000FFF73AFEBDE80840FFF774BE60F40100ED
:10CBB0009C2F002070B503788AB0044663BB0B211C
:10CBC0004068FFF747F908B1FDF788F8636800226D
:10CBD00003F1140033F9021F0029A8BF521898422C
:10CBE000F8D10A23574DB2FBF3F2574BED1A574BCE
:10CBF000ED0819782D0445F0030579B954490A6008
:10CC00000121197028465349FCF708FFFCF798FDED
:10CC10000028FBD1FFF7B4FF0AB070BD4E4C21785D
:10CC200061B94E4B4E491A602846FCF7F7FEFCF7F7
:10CC300087FD0028FBD101232370EBE7494C4A49CB
:10CC400022602846FCF7EAFEFCF77AFD0028FBD1BB
:10CC50003F4B26681968414BADF81C0063298DF8DD
:10CC60001E00ADF820008DF82200ADF824008DF8EC
:10CC70002600ADF81000ADF81400ADF818008DF8DE
:10CC800004008DF808008DF80C001C682DD907A849
:10CC9000FFF70EFE632E1ED909AA632C20D908A91E
:10CCA00007A8FFF7BDFE314B18603148FFF774FA53
:10CCB000304B1878FEF70AFFFFF78EF9FEF7E0FB1E
:10CCC0002D492846FCF7A6FEFCF73AFD0028FBD1CB
:10CCD000FFF73EFDA0E7092E8CBF06AA03AADCE7FA
:10CCE000092C8CBF05A902A9DAE7092914D904A8DF
:10CCF000FFF7DEFD632E05D909AA632C07D908A921
:10CD000004A8CEE7092E8CBF06AA03AAF5E7092CD2
:10CD10008CBF05A902A9F3E701A8FFF7C9FD632E9F
:10CD200005D909AA632C07D908A901A8B9E7092ED2
:10CD30008CBF06AA03AAF5E7092C8CBF05A902A996
:10CD4000F3E700BFC8EC010088EC0100BA2D002019
:10CD5000B02D0020C4F40100B82D0020AC2D00201F
:10CD6000E0F40100B42D0020FEF40100CC300020DE
:10CD700060F401009C2F00201CF5010007B5002382
:10CD8000ADF804308DF80630FEF780FA08B9FEF7EA
:10CD900043FA01A90420FEF783FA0420FEF714FBEE
:10CDA000044B4FF47A4043F00103984703B05DF819
:10CDB00004FB00BF10F4010008B50748FDF7A0FA16
:10CDC000FFF7DCFF054B4FF4FA3043F001039847BF
:10CDD000BDE80840FFF7BCBCAC2F002010F40100F8
:10CDE00008B5114B13211888FFF71CFB08B1FCF79D
:10CDF00075FF00224FF4A0210C48FDF73BFA08B163
:10CE0000FCF76CFF0A480B4B0B49C01AC008000422
:10CE100040F00300FCF7FEFDFCF792FC0028FBD17C
:10CE2000BDE80840FDF7F6BE1E250020AC2F00200F
:10CE3000C8EC010088EC010016F4010008B50849AF
:10CE4000084801F06EF808B1FCF748FFF7210548E3
:10CE500001F076F818B1BDE80840FCF73FBF08BD07
:10CE600015CF0100882F00202DE9F0411D4B1E4CED
:10CE70001E4DDFF89C80E41AE408240444F0030407
:10CE80002F461B4EB8F8003029681A48324601F088
:10CE9000C9FA98B9184A386800231370174A1370F2
:10CEA00001F0ACFD16492046FCF7B4FDFCF748FC48
:10CEB0000028FBD1BDE8F041FFF792BF11492046A1
:10CEC000FCF7A8FD2B6810499A7A2046FCF7A6FDCE
:10CED00032880E492046FCF7A1FDFCF731FC002802
:10CEE000FBD1CEE788EC0100C8EC0100CC3000207B
:10CEF000D030002020250020BA2D0020B82D0020A1
:10CF0000F7F50100B3F50100E1F50100ECF50100D2
:10CF10001E250020114B4A881B889A4210B50C46EA
:10CF20001AD10A8840F677239A4215D10C480D4B46
:10CF30000D49C01AC008000440F00300FCF76AFD68
:10CF4000FCF7FEFB0028FBD1A388084A033BBDE8A1
:10CF500010401380FFF788BF10BD00BF1E250020C2
:10CF6000C8EC010088EC010041F401001C25002000
:10CF700008B54FF400410020FCF788FB08B1FCF72E
:10CF8000ADFEFCF7B9FAFFF76FFAFFF793FAFFF778
:10CF90009FFAFFF7A6FAFFF735FBFFF74FFFFFF702
:10CFA00059FBFFF77BFBFFF7ABFB094A0948002160
:10CFB000FDF74EF908B1FCF791FEFFF7DFFEFFF732
:10CFC000D5FBFFF729FCFFF765FC002008BD00BF7B
:10CFD000B9CD010068F401000369C1688B429DBFAF
:10CFE0008268D21802F1FF3203F1FF3394BF501A66
:10CFF000581A70472DE9F041D0E9027405463E1BEE
:10D000004068964220448846144404D901F04EFDFD
:10D01000EC60BDE8F0813246E41B01F047FD22469A
:10D0200008EB06016868F1E72DE9F843C568064694
:10D03000894617464FF000083469B3687068A54206
:10D0400028BFE418013C621B5C1BBC4228BF3C4665
:10D05000944228BF144649462844224601F026FD42
:10D06000B3682544AB4208BF00253F1BA044A14440
:10D07000F560E1D14046BDE8F883000010B5114CE1
:10D08000114AA2610223C4E90433104BE361A26494
:10D090004FF400730E4A2362E264002310220D490C
:10D0A000A362E01D6362E362A3656365E3652265D5
:10D0B00001F058FD0849204601F054FD2023A371DA
:10D0C00010BD00BFD43100200CF601005C320020FE
:10D0D0004C32002015F6010019F60100F8B5184C85
:10D0E000182300FB033503FB00402544C46A012CD0
:10D0F0000F46164611D024B1022C1BD00024204626
:10D10000F8BD2846FFF768FFB042F8D332463946EB
:10D110002846FFF76FFF3446F1E72846FFF75CFF2C
:10D120008642344628BF0446224639462846FFF741
:10D1300061FFE4E72846BDE8F840FFF775BF00BF90
:10D14000D4310020FFF79ABF6DDF704779DF704759
:10D150007DDF704764DF70472DE9F04F85B0002513
:10D160000E9CBDF83CB027880191804691469A46B6
:10D170002E46B8F80020B2420CDC3DB12288013ABC
:10D18000D21B92B2FF2A3BD80AF80720002005B034
:10D19000BDE8F08FD8F8042052F826000390002252
:10D1A0000DF10B0103A8FFF7D5FF0028EFD19DF883
:10D1B0000B204A4522D12288002D14BF00200220D6
:10D1C00002EB0901014459451ADC45B9013292B21A
:10D1D000019B22800AF802302288013222802288B4
:10D1E0000DF10B01524403A8FFF7B4FF0028CED184
:10D1F00021889DF80B200A44228001250136B8E7DA
:10D200000C20C4E72DE9F341089CBDF824501746D3
:10D21000CDE90045022206469846FFF79DFF50B92A
:10D220004346102239463046CDE9084502B0BDE8F4
:10D23000F041FFF791BF02B0BDE8F0812DE9F04F5A
:10D2400000231688138090F82D3085B007460D46D0
:10D25000144653B3082E01D80C2027E102A8FFF78B
:10D2600073FF002840F0228123880822EA54238893
:10D2700001339BB21B222380EA542088013080B204
:10D28000208006220DF10901284401F00FFC2388BB
:10D290009DF8082006339BB212F0FE0218BF01224F
:10D2A0002380EA54238801332380BB78FBB1238891
:10D2B0000433B342D0D802A8FFF748FF002840F05B
:10D2C000F58023880322EA54238801339BB2192274
:10D2D0002380EA542388BDF8082001339BB2E91863
:10D2E0002380EA54120A4A70238802332380FA7892
:10D2F0009AB12388D91CB142AED80221E9542388BF
:10D3000001339BB201212380E95423880B449BB253
:10D310002380EA5423880B4423807A68AAB12388A7
:10D32000D91CB14298D8022192F90020E9542388EF
:10D3300001339BB20A212380E954238801339BB235
:10D340002380EA542388013323803B89002B40F05B
:10D35000A1803B8A5BB1CDE900462B460722032121
:10D3600007F11000FFF74EFF002840F09F803B8B35
:10D370005BB1CDE900462B461522142107F11800B8
:10D38000FFF740FF002840F091803A6A002A40F001
:10D390009080D7F82480B8F1000F30D0B8F804306E
:10D3A0002188981C8A1C0244B2423FF655AFFE28E1
:10D3B0003FF652AF03336B54238801339BB2FF22F5
:10D3C0002380EA54238801339BB22380B8F80020DD
:10D3D000EA54E918120A4A702088023080B220808C
:10D3E000B8F804205AB1D8F8081000296BD02844A6
:10D3F00001F05CFB2388B8F804201344238097F8DD
:10D400002C30002B40F09A80387800284ED03B8892
:10D41000012B58D0228802F1020CB4453FF61CAF14
:10D42000012805D17B78023313449E42FFF414AFE8
:10D43000023EB61AB6B202A905EB0C00ADF80860C0
:10D44000FFF786FE90BB3978BDF80820022900F06E
:10D45000BA807B78934202D3B24240F2B280012973
:10D4600040F0B3809BB29E42C0F0AF80ADF8083070
:10D470000821BDF80830FE2B3FF6EEAE22880133BE
:10D48000AB542288013292B22280A95422881344DC
:10D4900023800BE0CDE900462B460622022107F14E
:10D4A0000800FFF7AFFE00283FF453AF05B0BDE81A
:10D4B000F08FB4F800C00CF10603B3423FF6CCAED7
:10D4C0001188052901D80720F0E76FF4486E01EBB9
:10D4D0000E039BB24FF27D3E7345F4D95388052B62
:10D4E000F1D96FF44860181880B27045EBD94FF647
:10D4F000FF70814203D0834201D09942E3D80523D3
:10D5000005F80C30238801339BB212212380E954A3
:10D51000238801339BB223801188E954E818090A53
:10D520004170238802339BB223805288EA54E91861
:10D53000120A4A702388023323802AE7BB6A002B31
:10D54000C1D04FF000094FF00C0A4FF0160B97F8BE
:10D550002C305FFA89F293427FF656AFB96A0AFB24
:10D5600002F201EB0208B8F80430981CFE283FF6DE
:10D5700073AE208803332B54238801339BB223805E
:10D5800005F803B0238801339BB223808A5AEA54FA
:10D59000E918120A4A702088023080B22080B8F858
:10D5A00004205AB1D8F8081000298CD0284401F082
:10D5B0007DFA2388B8F804201344238009F1010977
:10D5C000C5E7092155E7B242FBD9ADF808604FE73E
:10D5D00070B5C0B14AB116880024B44203D305190E
:10D5E0006D789D4208D0A14201D800200BE0055D76
:10D5F00001352C44A4B2F0E7A142F6D9A31C138054
:10D60000005D013880B270BD13B50023ADF806305F
:10D6100013460DF106020446FFF7DAFF10B1BDF81C
:10D620000600204402B010BD72DF704773DF704700
:10D6300038B5012204460D46B0F89810D0F8940091
:10D64000FFF7E2FF00B1057004F13C0204F1940120
:10D6500004F15400BDE83840FFF7E6BF80F8301011
:10D660007047F8B504460F46002968D0002866D0F8
:10D6700091F87A301BB191F89830002B61D1D7F82E
:10D68000A030042B5DD0D7F89C30042B59D007F183
:10D6900078060FCE4FF0000C251D84F802C00FC590
:10D6A0000FCE0FC596E8070085E8070084F830C064
:10D6B000D7F8A4306363D7F8A830A3634FF6FF759B
:10D6C00004F19403C4F8A430A4F8A85007226146DA
:10D6D00004F1AA0001F013FA23780BB984F854502E
:10D6E000224604F155011F25C4F89410384622F84B
:10D6F000985FFFF7A3FD08BB224604F17401C4F84C
:10D700009C1007F13C0022F8A05FFFF797FDA8B935
:10D71000A369A4F848304FF480730125A4F8503071
:10D7200063692064014684F83C50636404F13C0260
:10D7300004F15400FFF778FF00B92570F8BD0E2002
:10D74000FCE70720FAE7F8B5077804460D46002FF6
:10D7500000F0F98000F1AA06A170072200213046EE
:10D7600001F0CDF9E38813B1A378012B04D0E3795C
:10D770004BB1A378022B06D1636BA3B1012284F8CD
:10D78000B12008209847334604F1B00113F8012F67
:10D7900012B98B42FAD117466B1E032B52D8DFE821
:10D7A00003F0050B0F1284F8B130ECE7A3791BB13D
:10D7B00094F8243003B95FB9E3790BB1002F43D15A
:10D7C000237A002B42D1637A002B0CBF002504255D
:10D7D000636BA570002B3BD0033D012D38D86279D7
:10D7E000002A35D094F8B22092BB84F8B4200122EC
:10D7F00084F8B3200720984704F13C051822002143
:10D80000284601F07CF9E36A591E0122022928BF4B
:10D81000134684F8513094F8243084F83C2033B116
:10D82000914296BFA36A84F8522084F85230A278BD
:10D83000002384F85030042A1BD8DFE802F06C0D76
:10D84000223252000025C3E70225C1E70325BFE7C6
:10D85000002384F8B330CFE7C4F8A430C4E91063E0
:10D860000223012284F83C30802384F83120A4F87C
:10D870004830A378002B51D1636B002B5FD100207F
:10D880005CE0022384F83130032384F83C302369C0
:10D89000A4F848300023C4F8A430E3682664636425
:10D8A000E7E763696364A369A4F848306379B3B1B7
:10D8B00094F8B2309BB994F8B43083B1022384F861
:10D8C000503004212046FFF7B3FE0028D1D10523B4
:10D8D00084F8313004F19403C4F8A430C9E7032379
:10D8E000F6E7E3696364236AA4F84830637983B197
:10D8F00094F8B2306BB994F8B43053B1022384F881
:10D90000503004212046FFF793FE0028B1D10623B2
:10D91000DEE70423DCE784F83130AAE72A46D4F8AE
:10D92000A41004F15400FFF77FFE38B994F83010CA
:10D9300094F85400FFF77AFE00289DD0F8BD94F8C3
:10D94000310098479BE70820F8E70388112B10B5B2
:10D950000C460AD0262B1FD0102B05D1C37B012BE0
:10D9600002D18388A1F8A83010BD0022838881F8F5
:10D97000B220B1F8A8209A42F6D10B79002BF3D14E
:10D9800001212046FFF7DFFE0028EDD0A36B002B1E
:10D99000EAD0BDE810401847037A013B012BE3D8D9
:10D9A000897805230131B1FBF3F303EB8303C91A33
:10D9B000C9B2E6E7704775DF704776DF70477ADFF8
:10D9C00070477BDF70470000034B1A8882420CBF10
:10D9D00018460020704700BF78340020024B9B6936
:10D9E00003B11847704700BF5C34002073B586B29E
:10D9F0003046FFF7E9FF044670B1164D027A2B7BE3
:10DA00009A420BD200F10A013046FFF7D4FFE8B189
:10DA1000112801D0FFF7E2FF02B070BD00230372AE
:10DA20002B7C43B13B213046FFF7C7FF30F00803A2
:10DA300001D0FFF7D3FF6B69002BEDD000228DF8EA
:10DA40000420ADF8066001A89847E5E7237A013382
:10DA50002372E1E75C34002013B50B46497A0F4C82
:10DA6000024669B9D4E901101C7A002C18BF01469E
:10DA70005868FCF7FFFB08B1FFF7B0FF02B010BD1C
:10DA8000002119726369002BF8D00121ADF806005E
:10DA90008DF8041001A89847F0E700BF5C3400201F
:10DAA0004B8802889A4213D842889A4210D38088C1
:10DAB0008A8840F2F313984294BF031AC31A934220
:10DAC00006D800F2F310904234BF002001207047C6
:10DAD000002070470388112B70B5014648D002D84A
:10DAE000102B1ED070BD122B52D0502BFAD12F4BC1
:10DAF000C288DB899A42F5D1038A022BF2D186884B
:10DB00003046FFF761FF05460028EBD001F1120017
:10DB100000F05BF930BB6868FCF7F2FB0028E1D04D
:10DB200009E0C37B012BDDD14FF6FF70FFF74CFFFF
:10DB3000054620B90420BDE87040FFF74FBF1C4ADE
:10DB40008E880680002303721368C5F80A300A30F5
:10DB5000536843601031FFF7A3FF144B6872DB89F1
:10DB6000002BBFD129463046BDE87040FFF774BF97
:10DB70008088FFF729FF04460028B3D04068FCF7EF
:10DB8000BFFB08B1FFF72AFF4FF6FF732380A9E719
:10DB900086883046FFF718FF05460028A2D00831D6
:10DBA0000A30FFF77DFF6872DCE700BF5C340020BD
:10DBB0008C340020F8B5064648B305460FCD154F06
:10DBC0003C460FC495E8070084E807003068124C13
:10DBD0003C60B0B1FFF7F3FEC0B932681368236050
:10DBE000536863600D480E4A4FF6FF7303800D4B78
:10DBF00040F8043F0021FCF72BFB002818BF03204E
:10DC000004E02046FFF7DDFE0028EBD0F8BD0E2033
:10DC1000FCE700BF5C3400208C3400207834002006
:10DC2000EDD901009434002073B50191019C0646A2
:10DC30006CB100252C46294601A8FCF7B4FC18B1AC
:10DC400006EB440301349D800135142DF3D1304699
:10DC5000346002B070BD00002DE9F047038884886D
:10DC6000112B8CB006463CD01A2B3FD0102B17D16D
:10DC7000274DAB68DB43009369686846FCF7BCFC42
:10DC8000009901A8FFF7D0FF0DF108094FF0000837
:10DC9000019B984507D3132C13D90420FCF71EF8D9
:10DCA0000CB0BDE8F08739F802AB002701375146C8
:10DCB00005EB8700FCF76DFC1D2FF7D108F101087B
:10DCC000E6E721461348FCF75BFC21461248FCF7C7
:10DCD00057FCF37B012BE3D010482146FCF750FCA6
:10DCE000DEE70C482146FCF754FCD9E7057A0C48DE
:10DCF0002D09012D214606D9FCF742FC022D2146B3
:10DD00000848F0D0EAE7FCF744FC21460548EAE77A
:10DD1000B4340020BC340020B8340020C0340020CB
:10DD2000C4340020C83400201328014602D8024819
:10DD3000FCF739BC00207047B834002010B5044609
:10DD4000FFF7F2FF002814BF2046142010BD70B565
:10DD5000054616460AB90E2070BD00231360002840
:10DD6000F9D00368002BF6D0C38813F003040FD159
:10DD70000846FFF7E3FFC0B214280BD02B7983428B
:10DD80000AD9EB882A6800FB032333602046E3E7C7
:10DD90000720E1E70520DFE70420DDE7AADF704781
:10DDA000002301380B70042806D8DFE800F00306D2
:10DDB000080A0C0011230B7070472123FBE7312365
:10DDC000F9E71223F7E72223F5E7007800F00100D6
:10DDD0007047F0B58B7891B0002B0C4608BF01233B
:10DDE0008DF80E3005460B88ADF80C300021164634
:10DDF0006846032200F083FE6946607CFFF7D0FF8F
:10DE00000DF10101A07CFFF7CBFF9DF80230E27B12
:10DE100062F3C303227C62F30413227B62F30003E8
:10DE2000227D002A14BF0222012262F34203002154
:10DE30001C2209A88DF8023000F061FE637B13F00C
:10DE4000300F15D002AF03220021384600F057FEF4
:10DE50000DF10901E07CFFF7A3FF11238DF80830D5
:10DE60009DF80A300E97012262F342038DF80A30C2
:10DE7000637B8DF824301422A37B8DF8253000219C
:10DE800004A800F03CFE03AB0493A388ADF81C305B
:10DE9000A368CDF814D01BB1E288ADF81820089320
:10DEA000A369002B2ED001AF03220021384600F0D9
:10DEB00026FEA3691A88ADF82C205A88187BADF885
:10DEC0002E2039465A680A920D97FFF769FFA36919
:10DED0000DF10501587BFFF763FFA2699DF806303D
:10DEE000917A61F3C303D17A61F30413117A927BBF
:10DEF000002A61F3000314BF0222012262F34203ED
:10DF00008DF80630E36903B10C93334604AA09A9DE
:10DF10002846FFF743FF11B0F0BDA5DF7047B5DF1E
:10DF2000704758B14FF0F7130360FB230371F723D9
:10DF3000C3801723C1608360002070470E207047A4
:10DF400030B1A1F11703E02B04D801800020704705
:10DF50000E2070470720704713B5034680880C4693
:10DF600080B91A88112A60D00ED8102A3AD0A37A24
:10DF700043B1E1880020FFF7D0FF002872D14FF4B1
:10DF80008073638102B010BD3A2A53D0552AEED176
:10DF9000DB88C988A072172B38BF17238B4228BF94
:10DFA0000B462381FFF7BBFF60B1FCF77DFE354ACE
:10DFB000354B36499B1ADB081B04024643F001002F
:10DFC000FBF72CFDE37A002BD1D1E368002BCED0F8
:10DFD00040F6772200922289ADF804206946204657
:10DFE0009847C4E7DB7B012B04BF0B88CB80C98833
:10DFF00023898B42BBD20020FFF78FFF10B901238A
:10E00000E372B4E7112802D10123A372AFE7FCF752
:10E010004BFE1C4A1C4B1E499B1ADB081B04024684
:10E0200043F00100FBF7FAFCA1E7F723CB801723AD
:10E030008B609CE75B89CA88934228BF1346172BE5
:10E04000CA6838BF17230B814AB1C97A39B140F683
:10E0500077210091ADF804306946204690470023AF
:10E06000638184E711288DD0FCF71EFE054A064B1C
:10E0700007499B1ADB081B04024643F00100FBF72B
:10E08000CDFC7FE788EC0100E0EC010051F60100D7
:10E0900020F60100B0DF704766DF704710B5002141
:10E0A00004464088FFF7F8FF034608B9237210BD05
:10E0B000112801D10123F9E76368BDE81040184732
:10E0C00060B159B10378DE2B0AD00B684360DE23C0
:10E0D00003704FF6FF734380002070470E20704797
:10E0E0000820704728B10378DE2B04D1418000203E
:10E0F00070470E20704708207047F0B5054685B080
:10E100000C46F1B1E8B10B78DE2B1AD182884B882E
:10E110009A4204D10B7A13B10846FFF7BFFF2B8850
:10E12000112B32D0512B0ED0012B0AD12B7A012B7F
:10E1300007D1A9886288914203D123722046FFF754
:10E14000ADFF05B0F0BDAE886388B342F9D1AF79B9
:10E15000022FF6D1AD7B2B1F022BF2D8002110220B
:10E16000684600F0CCFC052D14BF4FF4C0730023AB
:10E17000694630468DF80070ADF80430FFF78AFF2D
:10E180000028DED063689847DBE76388AA889A4254
:10E1900004BF4FF6FF736380D3E7A8DF7047ADDF9E
:10E1A0007047AEDF704762DF7047000070B504460D
:10E1B0008AB00D46002900F0A680002800F0A38058
:10E1C0000388502B45D0572B00F08B80102B40F04C
:10E1D0009A80002381886869019301AAFFF7B7FD3F
:10E1E00050B15248524BA2885249C01AC00800048C
:10E1F00040F00100FBF712FC082200210DEB0200A9
:10E2000000F07DFC022302AA298AA088CDF80CD058
:10E210000293FFF7C4FF002875D1AB69002B72D0C1
:10E220000398FFF7D2FD00286DD0019B0BB10122AE
:10E230001A701822002104A800F061FC02238DF856
:10E240001030A388ADF81830019B05950793AB6992
:10E2500030E08188686902AAFFF779FD50B1334840
:10E26000334BA2883349C01AC008000440F00100B3
:10E27000FBF7D4FB1822002104A800F040FCA3887F
:10E28000ADF818302989E388029A059599420792DA
:10E2900018D1268A022E15D1002A34D004F112009A
:10E2A000FFF793FD029B40B101221A708DF81060B8
:10E2B000AB6943B304A8984725E0187003238DF891
:10E2C0001030F5E7AA899A421DD1AB69DBB1002273
:10E2D0008DF8102004F112020892228AADF8242051
:10E2E000E8E78188686902AAFFF731FD014660B15D
:10E2F0000E480F4BA2880F49C01AC008000440F016
:10E300000100FBF78BFB0AB070BD029B1B78002B52
:10E31000F9D0182204A800F0F2FB01238DF8103088
:10E32000A388ADF818300595029B8FE7D0EC01006B
:10E3300088EC01009DF60100F0B5384B8FB002AAC1
:10E3400004460E4603F1100C174618685968154626
:10E3500003C5083363452A46F7D1002C5BD0002E55
:10E3600059D03368A36121463846FFF71CFF0028C7
:10E370004FD12246012512F8023B8DF8063001A943
:10E380002846ADF80450FFF708FF002841D10146A8
:10E39000202206A800F0B3FB22460223ADF8183075
:10E3A00012F80C3B8DF81A30BDF824301C4E6088F2
:10E3B000079603F4734343F440632B4306A9ADF877
:10E3C00024308DF829508DF82A50FFF702FD00BB4C
:10E3D0000146202206A800F092FB22460323ADF856
:10E3E000183012F8043B8DF81A30BDF824306088DC
:10E3F000079603F46F4343F480532B43ADF8243066
:10E4000006A940F201138DF82950ADF82A30FFF724
:10E41000E0FC0FB0F0BD0E20FBE700BF8DF6010061
:10E42000F4000100F0B50F4687B016461C460546BD
:10E4300018B301AA19464069FFF789FCD8B94FF60D
:10E44000FF739C421BD0019BCBB11B78CBB13388AF
:10E45000F42B18D80146102202A800F050FBAB881C
:10E46000ADF8083002A901232046CDE904678DF8F4
:10E470000A30FFF796FE07B0F0BD0E20FBE705203F
:10E48000F9E70820F7E70720F5E710DF70470000FD
:10E4900013B5044609496846FCF7D1FB019808B951
:10E4A00002B010BDD0E900312046984718B1684647
:10E4B000FCF7CFFBF2E71120F2E700BFECF601001A
:10E4C00013B5044607496846FCF7B9FB019B0BB935
:10E4D00002B010BD2046D3E9002190476846FCF702
:10E4E000B8FBF3E704F701000B4991F816335A091A
:10E4F000EC231341DB0706D5084B9A683AB94FF471
:10E5000080030B60704742F20200FBF7E7BB1A681A
:10E5100042F480021A60704700E100E07C2C002089
:10E52000F7B5194F3C7864BB184E0125204635706D
:10E53000FFF7AEFF112821D02046FFF7C1FF144B93
:10E540008DF80340186801900DF10300FBF7DEFF22
:10E55000104901A8FFF799FF0446B0FA80F040097E
:10E5600038709DF80300FBF7F5FF3CB90A4B347097
:10E570001C70FFF7B9FF2846FFF7A2FF204603B043
:10E58000F0BD0824FAE700BF2D3500202C3500200F
:10E59000E5F60100F99C01002E350020014B1878AA
:10E5A000704700BF2D35002007B508496846FCF7C5
:10E5B00046FB019B13B903B05DF804FBD3E90020CF
:10E5C00090476846FCF745FBF3E700BFF8F601000B
:10E5D000FFF7EABF60DF704769DF704761DF7047B0
:10E5E00030B5114DADF5017D4FF4FA740DF1020116
:10E5F00003A8ADF80240FFF7F1FF70B9294601A862
:10E60000FCF71DFB029B002BF0D003A8D3E90021EF
:10E61000904701A8FCF71DFBF4E7052801D0FBF7A4
:10E620005DFB0DF5017D30BD88F90100024B1B78C3
:10E630000BB1FFF7D5BF70472F35002030B5054629
:10E6400085B00C46002900F0B2805A4B0B600C22BA
:10E65000002101A800F053FA01238DF8063022684A
:10E660008DF80450062301A92020ADF80830FFF7EB
:10E67000B3FF60B1FCF718FB4F4A504B50499B1A4F
:10E68000DB081B04024643F00100FBF7C7F90C222C
:10E69000002101A800F033FA012322688DF805302B
:10E6A00001A94020FFF798FF60B1FCF7FDFA424A4C
:10E6B000424B44499B1ADB081B04024643F001000D
:10E6C000FBF7ACF90C22002101A800F018FAF7239F
:10E6D00022688DF8045001A92320ADF80630FFF719
:10E6E0007BFF60B1FCF7E0FA334A344B36499B1AA2
:10E6F000DB081B04024643F00100FBF78FF90C22F4
:10E70000002101A800F0FBF9012022688DF8040027
:10E7100001A9FFF761FF60B1FCF7C6FA264A274B53
:10E720002A499B1ADB081B04024643F00100FBF751
:10E7300075F90C22002101A800F0E1F94FF4B06353
:10E740002268019301A9A120FFF746FF60B1FCF701
:10E75000ABFA194A194B1E499B1ADB081B040246E7
:10E7600043F00100FBF75AF90C22002101A800F048
:10E77000C6F99DF8043022686FF3000301A9A020B8
:10E780008DF80430FFF728FF034668B1FCF78CFAD8
:10E79000094A0A4B0F499B1ADB081B04024643F047
:10E7A0000100FBF73BF90023184605B030BD0E23EE
:10E7B000FAE700BF0025002088EC0100F0EC010022
:10E7C00018F701005EF70100AAF70100F1F7010058
:10E7D0003DF801008EF80100F8B506460768FFF71E
:10E7E000F9FE3368BB4205461DD9194B194C1A492D
:10E7F000E41AE408240444F002042046FBF70AF972
:10E80000336816493A462046FBF711F94FF080531A
:10E810003268D3F80C3112499B0203F100539A1A63
:10E820002046FBF7FBF825B90E4B01221A7028464B
:10E83000F8BD2846FCF738FA054A064B0A499B1AE8
:10E84000DB081B04024643F00100FBF7E7F8EEE7A4
:10E8500088EC0100F0EC0100E1F8010010F9010082
:10E8600041F901002F3500206BF901004BDF7047A3
:10E870001FB50D4C01A8FFF7F9FF70B9214602A89A
:10E88000FCF7DDF9039B002BF4D00198D3E90021BC
:10E89000904702A8FCF7DDF9F4E7052801D0FBF763
:10E8A0001DFA04B010BD00BFA0F901007F2805D8F3
:10E8B000034B185C034B5B5C1840704700207047AB
:10E8C000B8F9010038FA0100A0F16103192B98BFD3
:10E8D00020387047A0F14103192B98BF20307047B2
:10E8E0007F2805D8034B185C034B5B5C18407047CE
:10E8F00000207047B8F9010038FA0100A0F1610367
:10E90000192B98BF20387047A0F14103192B98BFED
:10E91000203070477F299ABF017001206FF02E00D0
:10E9200070475AB10A787F2A0AD800B102600021E4
:10E9300019605960501A18BF0120704700207047B5
:10E940006FF02E007047000008B5034B5B689B68B2
:10E950001B68984708BD00BF4425002008B5092161
:10E96000FFF7F2FF08BD000038B5214B214A9B1A82
:10E97000102B2CD9044600F047F904F1130020F0C5
:10E980000F021D4B1968F1B14B689A422AD04FF023
:10E99000FF34002505E0086850B14368934218D061
:10E9A00001469A42F7D2A3423CBF1C460D46F2E70D
:10E9B0004DB16B689B1A6B60A31AEC18EA5000F01B
:10E9C00024F904340CE000F020F9002408E00024CD
:10E9D00006E003680B60044644F8042B00F015F9C8
:10E9E000204638BD0868044B18600846F3E700BFAE
:10E9F000303D0020303500205825002000284ED022
:10EA000038B50446264A904248D3264A904245D813
:10EA100000F0FAF8211F3FD054F8040C224B1A687A
:10EA20005AB18A4211D344F8042C20601E4B19605D
:10EA3000084482421DD0002219E01B4B19600023BC
:10EA400044F8043C206027E01A461368DBB1994281
:10EA5000FAD844F8043C206011600844834217D17E
:10EA600020685D68284420601B6844F8043C9AB123
:10EA70000EE013460022F3E721680B44536054F87C
:10EA8000043C136008E0002344F8043C206011605B
:10EA90005368D0188142EFD000F0B7F838BD704706
:10EAA00030350020303D002058250020844640EAC3
:10EAB000010313F0030F18D18446202A0BD32DE94C
:10EAC000F007B1E8F807A0E8F807A2F12002202A31
:10EAD000F7D2BDE8F007042A07D351F8043B40F809
