:020000021000EC
:1090000000600020759301005D9301005F930100F3
:10901000619301006393010065930100000000006B
:109020000000000000000000000000006793010045
:1090300069930100000000006B9301006D93010033
:10904000C5BB01006F930100ADC101006F9301002A
:109050006F93010000000000CDBF010019C30100A3
:10906000A9C90100C1C901006F9301006F930100FC
:109070006F9301006F9301006F9301006F930100E4
:109080006F930100E5A201006F9301006F9301004F
:10909000A5A301006F930100992402006F930100C2
:1090A0006F9301006F9301000000000000000000BA
:1090B0006F9301006F9301000000000000000000AA
:1090C00000000000000000000000000000000000A0
:1090D0000000000000000000000000000000000090
:1090E0000000000000000000000000000000000080
:1090F0000000000000000000000000000000000070
:10910000000000000000000000000000000000005F
:10911000000000000000000000000000000000004F
:10912000000000000000000000000000000000003F
:10913000000000000000000000000000000000002F
:10914000000000000000000000000000000000001F
:10915000000000000000000000000000000000000F
:1091600000000000000000000000000000000000FF
:1091700000000000000000000000000000000000EF
:1091800000000000000000000000000000000000DF
:1091900000000000000000000000000000000000CF
:1091A00000000000000000000000000000000000BF
:1091B00000000000000000000000000000000000AF
:1091C000000000000000000000000000000000009F
:1091D000000000000000000000000000000000008F
:1091E000000000000000000000000000000000007F
:1091F000000000000000000000000000000000006F
:10920000354936480A1A02D0072291438D4634491F
:1092100034480A1A06D00722914381F309880222B2
:1092200082F3148830483149314A00F044F831481B
:109230003149324A00F03FF831483249324A00F0B1
:109240003AF832483249334A00F035F83248334967
:10925000334A00F030F833483349344A00F02BF8F1
:1092600033483449344A00F026F83448344900225F
:1092700000F02CF833483449002200F027F8334836
:109280003349091A082902DB002202604160314A91
:1092900090471F481F49884205D00268043003B434
:1092A000904703BCF7E700208646EC4600200021EB
:1092B000294A9047FEE7884207D0521A05D0037822
:1092C00001300B700131013AF9D17047884202D068
:1092D00002700130FAE7704700600020005800205B
:1092E0000060002000600020EC71020014250020C6
:1092F00090250020C0930100C09301000C5C020087
:10930000EC7102001425002014250020945D020059
:10931000945D0200945D0200945D0200945D020081
:10932000945D0200945D0200945D0200EC71020005
:1093300068720200902500209025002090250020D2
:109340009142002094420020984200209842002040
:10935000984A00208B9301009D430200FEE7FEE740
:10936000FEE7FEE7FEE7FEE7FEE7FEE7FEE7FEE7D5
:10937000704700BF0C4880470C484FF007018843F6
:1093800085460B488047FFF73BBF0A480A490B4A0E
:10939000884207D0521A05D0037801300B70013192
:1093A000013AF9D17047000071930100006000207C
:1093B00009B70100805D020000250020142500206F
:1093C000004870478C4200207047704700B583B05A
:1093D000044B00934023044A00F036F803B05DF8D4
:1093E00004FB00BFED930100942500201AB32DE982
:1093F000F84388461446032700250F4E0F4B43F0D1
:10940000010902E0012333709CB1224608EB0501FB
:10941000002003F0FDFB0544241A0028F2D1337824
:109420003BB14FF47A40C847013FEBD1024B0022D9
:109430001A70BDE8F883704790250020945D020003
:1094400008B503F01DFC08BDF0B595B00F461546F4
:109450001C46084601F00DFF0E950F940024109451
:109460008DF8444012941A9B13932346082208A9AE
:10947000384601F01CFF0A9B0B93BDF82430ADF871
:109480003030BDF82630ADF832308DF835409DF8DB
:10949000203003F00303012B06D0022B21D03846E5
:1094A00001F0EDFE15B0F0BD089DC5F395259DF8C2
:1094B0002030C3F3C2038DF83430BDF82040C4F32C
:1094C00083140823A2000DEB0301384601F0EFFEE0
:1094D0000EAB00930BAB224602A9284600F08EFD8E
:1094E000DDE7BDF82250AD099DF82030C3F3C2037B
:1094F0008DF8343008262C46082D28BF0824334622
:10950000224602A9384601F0D2FE26442D1B0EAB9E
:109510000BAA214602A800F0D5FD002DEBD1BEE735
:1095200008B5FFF78DFF0421034800F0BBFC034B97
:1095300001225A7108BD00BF705D02001425002091
:10954000037813F0040F18D003F00303012B03D0AA
:10955000022B0AD0012070470B6802330288C2F345
:10956000831213440B60012070470B68023342885A
:1095700003EB92130B60012070470020704700003E
:1095800030B585B0264C04F5836001F006FB04F28B
:10959000144001F002FB60680390A5682840033086
:1095A00004EB800003A9FFF7CBFF28B10398284004
:1095B000033004EB8000F5E7039B194905EA030239
:1095C00001EB8202D2680092581C054001EB850134
:1095D000C96801910233039302F00302012A0BD000
:1095E000022A12D1BDF80640BDF8022092090332CA
:1095F00003EB9203039309E0BDF80640BDF8002099
:10960000C2F383121344039300E00024054801F0E1
:10961000C9FA10B1024B039A5A60204605B030BD1A
:10962000D8260020EC2A002010B50C4BFF229A60AF
:1096300000221A605A60C3F81824C3F814240122C7
:1096400083F82024064801F0C1FD044608B12046F5
:1096500010BD044801F059FEF9E700BFD8260020EC
:10966000945C0200B85D0200F1B1114B114A9B1AE3
:10967000D908072B15D9104B1B88834213D010B47F
:1096800000230D4C01338B4208D234F82320824250
:10969000F8D11846074B53F8300000E0002010BC0A
:1096A0007047002070470020024B53F8300070478D
:1096B000705D0200A85C020014250020094B03EB3A
:1096C000C0000139032909D8DFE801F00A020406C5
:1096D0000420704700797047407970470020704738
:1096E00002207047A85C0200034B58681B68984230
:1096F00014BF002001207047D82600202DE9F04338
:1097000087B0FFF7F1FF002840F0148106468E482D
:109710000023C0F81834BFF34F8F43680593856862
:109720002B40033300EB8300874C03E028400330D9
:1097300004EB800005A9FFF703FF48B1D4F8183403
:1097400033B9236805988342F0D87F4A536031E0EB
:10975000059B7D4903EA050201EB8202D268029271
:10976000581C284001EB8001C9680391023305931E
:1097700002F00302022A21D0012A00F08C80724BF1
:10978000D3F810443CB123689B6820469847E368AF
:109790001C68002CF7D16D486D4BC01AC00800043E
:1097A0006C4940F0020000F0DBF8FFF79DFF80F00D
:1097B0000100C6B2304607B0BDE8F083BDF80A30FC
:1097C0009F093C46642F28BF642464F38F13ADF8CF
:1097D0000A3004F10801604801F018FD064600282F
:1097E000CDD001F046FD002308220DEB02013046EA
:1097F00001F052FD059A25EA020301339B009C42C9
:109800003ED9002B00F09880E41A5FFA84F8DCB2AD
:10981000DFF834912A40D11C0823224609EB81014C
:10982000304601F039FD04F10803424609F10C010C
:10983000304601F031FD0337059B03EB9703059399
:10984000414BD3F81834002B62D13F4BD3F810446E
:10985000002C65D1304601F012FD00238DF8073051
:109860000DF1070000F0EAFF374BD3F8183413B9B5
:10987000354B059A5A609DF8070001F00BF894E704
:109880002A40D11C082322462F4800EB8101304694
:1098900001F002FDCFE7BDF80820C2F38313062BC9
:1098A00028BF062363F38912ADF80820023399001C
:1098B000294801F0ABFC064600283FF460AF01F0F8
:1098C000D8FC002308220DEB0201304601F0E4FC35
:1098D000BDF8083013F4707FB2D000270824DFF8F9
:1098E00068904FF00408059B5A1C05922B40D91C28
:1098F0002346424609EB8101304601F0CDFC043499
:109900000137BDF80830C3F38313BB42EBD897E7A8
:10991000304601F0B4FC48E7E3681C68002C99D09D
:10992000E3685B79002BF7D023681B68314620463B
:109930009847F1E700263DE70823E2B207493046A1
:1099400001F0AAFC77E700BFD8260020E05C020007
:10995000A85C0200C45D0200945C0200E4260020C2
:109960002DE9F04782B080460F46384CA5680023A9
:109970008DF807300DF1070000F060FFD4F800907B
:10998000A368626813440133A3EB0903012B15D8C4
:1099900004F21C464FF0010A5146304601F0E2F84D
:1099A000FFF7EEFD0146304601F0DCF8A36862687F
:1099B0001344013322689B1A012BEDD9012646F08E
:1099C00004016FF38911214C2268A368134003330B
:1099D00044F82310023222609DF8070000F05AFF7D
:1099E000002104F21C4001F07CF880F3100009EB28
:1099F00006032B4004EB8303000440EA1840D860C0
:109A000005EA0903033314F8232068F3C50204F8B8
:109A1000232034F823206FF3891224F8232054F8EC
:109A2000232067F39F2244F8232066F301026FF39B
:109A3000820204F8232094F820341BB1FFF75EFE65
:109A40000028FBD102B0BDE8F08700BFD826002077
:109A50002DE9F04F83B080460F4692463B4CA568F7
:109A600000238DF807300DF1070000F0E7FED4F871
:109A70000090A368626813440133A3EB0903022B2F
:109A800015D804F21C464FF0010B5946304601F040
:109A900069F8FFF775FD0146304601F063F8A368E9
:109AA00062681344013322689B1A022BEDD9012608
:109AB00046F0040166F38911244C2268A368134020
:109AC000033344F82310033222609DF8070000F0AE
:109AD000E1FE09F102032B4004EB8303C3F80CA061
:109AE000002104F21C4000F0FCFF80F3100009EBA1
:109AF00006032B4004EB8303000440EA1840D860BF
:109B000005EA0903033314F8232068F3C50204F8B7
:109B1000232034F8232066F3891224F8232054F8F4
:109B2000232067F39F2244F8232066F301026FF39A
:109B3000820204F8232094F820341BB1FFF7DEFDE5
:109B40000028FBD103B0BDE8F08F00BFD82600206D
:109B50002DE9F04F87B08146019193469A460492D1
:109B600005933E4CA56800238DF80F300DF10F00D2
:109B700000F064FE2668A3686268134401339B1BEF
:109B8000032B15D804F21C474FF001084146384614
:109B900000F0E8FFFFF7F4FC0146384600F0E2FF72
:109BA000A36862681344013322689B1A032BEDD922
:109BB000012747F004014FF0020868F38911274C90
:109BC0002268A3681340033344F823100432226050
:109BD0009DF80F0000F05EFE06EB08032B4004EB3F
:109BE0008303C3F80CB0F31C2B4004EB8303C3F8CE
:109BF0000CA0002104F21C4000F073FF80F3100061
:109C0000F3192B4004EB8303000440EA1940D860A9
:109C10003540033514F8253069F3C50304F82530C1
:109C200034F8253068F3891324F8253054F82530AA
:109C3000019A62F39F2344F8253067F301036FF321
:109C4000820304F8253094F820341BB1FFF756FD49
:109C50000028FBD107B0BDE8F08F00BFD826002058
:109C60002DE9F04F87B08146019193469A460392C1
:109C70000493109B0593414CA56800238DF80B308D
:109C80000DF10B0000F0DAFD2668A368626813444A
:109C900001339B1B042B15D804F21C474FF001081D
:109CA0004146384600F05EFFFFF76AFC0146384641
:109CB00000F058FFA36862681344013322689B1ABE
:109CC000042BEDD9012747F004014FF0030868F396
:109CD00089112A4C2268A3681340434444F8231096
:109CE000053222609DF80B0000F0D4FDB31C2B4020
:109CF00004EB8303C3F80CB006EB08032B4004EB22
:109D00008303C3F80CA0331D2B4004EB8303109A8C
:109D1000DA60002104F21C4000F0E3FE80F3100042
:109D2000F3192B4004EB8303000440EA1940D86088
:109D30003540454414F8253069F3C50304F825304F
:109D400034F8253068F3891324F8253054F8253089
:109D5000019A62F39F2344F8253067F301036FF300
:109D6000820304F8253094F820341BB1FFF7C6FCB9
:109D70000028FBD107B0BDE8F08F00BFD826002037
:109D80002DE9F04786B007460E46019202930E9BDE
:109D900003930F9B0493109B0593414DAC680023E4
:109DA0008DF803300DF1030000F048FDD5F8008078
:109DB000AB686A6813440133A3EB0803062B15D87C
:109DC00005F21C494FF0010A5146484600F0CAFE10
:109DD000FFF7D6FB0146484600F0C4FEAB686A6850
:109DE000134401332A689B1A062BEDD9052060F332
:109DF00089102B4A116893680B40033342F8230003
:109E0000073111609DF8030000F044FD08F10203E2
:109E100001AA08F107052248591C52F804CB234037
:109E200000EB8303C3F80CC00B46A942F4D11C4DD0
:109E3000002105F21C4000F054FE80F3100008F1F0
:109E40000103234005EB8303000440EA1740D86078
:109E500004EA0803033315F8232067F3C50205F865
:109E6000232035F82320052161F3891225F82320CA
:109E700055F8232066F39F2245F82320012161F342
:109E800001026FF3820205F8232095F820341BB1FC
:109E9000FFF734FC0028FBD106B0BDE8F08700BF17
:109EA000D826002010B41A4BD3F81014002309E070
:109EB000174AC2F81004C2680021116010E0013393
:109EC0000A2B0BD079B1CA6814799C42F7D012687A
:109ED0004AB1D26814799C42F9D1F0E74FF0FF33D0
:109EE000184610BC7047B3F1FF3FF9D0C268137138
:109EF000074AD2F81024002ADAD0C168D268126862
:109F00000A60034AD2F81024D2681060E8E700BF64
:109F1000D826002038B5094BD3F81044012283F825
:109F2000202454B11546E3685D7123685B682046C0
:109F30009847E3681C68002CF5D138BDD82600206E
:109F400070B582B004460D46C388A3B9217A0529AD
:109F50000FD0637ABBB9227A104B53F822600021EC
:109F6000A088FFF781FB034632460D49284600F0E2
:109F70008AFE02B070BD0B4A00920B4A0B4928467C
:109F800000F081FEE2E7A088FFF798FB084B53F84A
:109F900020200849284600F076FEDCE7505E0200EB
:109FA000445E0200385E0200185E0200205E02007D
:109FB000DC5D0200405E020010B50C46037A052B02
:109FC0000FD0437A3BB90A49204600F05CFE204698
:109FD00000F04DFE10BD074A0749204600F053FE31
:109FE000F1E7002AF3D00249204600F04CFEEEE7EC
:109FF000145E0200385E0200405E02002DE9F0436C
:10A0000085B081460D4617461E460C9C94F80C8080
:10A010000023237321463046FFF792FF062F09D80D
:10A02000DFE807F00412181F283340004946204695
:10A0300000F029FE002221463046FFF7BDFF84F8DC
:10A040000C8005B0BDE8F0832A684946204600F040
:10A050001AFEEFE76B682A684946204600F013FEB7
:10A06000E8E7AB6800936B682A684946204600F031
:10A070000AFEDFE7EB680193AB6800936B682A6820
:10A080004946204600F0FFFDD4E72B690293EB68B8
:10A090000193AB6800936B682A684946204600F03C
:10A0A000F2FDC7E76B6903932B690293EB68019399
:10A0B000AB6800936B682A684946204600F0E3FDD0
:10A0C000B8E70000082900D970472DE9F04F83B0A8
:10A0D0001D4601920E46074693F80CB000241C73EF
:10A0E00019461046FFF72CFFDFF88090DFF88080DC
:10A0F00006E04946284600F0C6FD0134082C07D08A
:10A10000A642F6D93A5D4146284600F0BCFDF4E788
:10A110001549284600F0B7FD0024DFF858A0DFF805
:10A12000589006E05146284600F0ADFD0134082C59
:10A130000FD0A642F6D917F8048040460BF0DEFA9D
:10A14000002814BF42462E224946284600F09BFDB7
:10A15000ECE7012229460198FFF72EFF85F80CB0A5
:10A1600003B0BDE8F08F00BF0C5E0200085E020085
:10A17000005E02004C5E0200105E020000B585B079
:10A18000002101910291039001AA44F2010000F024
:10A1900003F805B05DF804FB10B572B6FFF7BAFE20
:10A1A000FFF7ACFA0028FBD1104C114BE41AE4087D
:10A1B0002404104944F00100FFF7D2FB0E4B1B684A
:10A1C00013F0010F00D000BE0C4944F00200FFF76D
:10A1D000C7FBBFF34F8F0A49CA6802F4E062094B1C
:10A1E0001343CB60BFF34F8F00BFFDE7E05C02007D
:10A1F000A85C0200BC5E0200F0ED00E0C85E020058
:10A2000000ED00E00400FA0570B50E4B4FF400328B
:10A21000C3F880200C4D4FF48033C5F84833C5F89F
:10A22000083301266E60094C34434FF43C60A0476C
:10A23000AE600025064B1D604FF43C60A047054B07
:10A240001D7070BD00E100E000100140D85E02000A
:10A25000B02C0020A12C00200B4A53780133DBB234
:10A2600092789A4208BF0023074A12789A4208D08F
:10A2700003700548437803EB430300EBC30004304D
:10A2800070470020704700BF942B002030B583B08A
:10A2900004460D4600238DF806300DF1060000F04F
:10A2A000CDFA0DF10700FFF7D7FF88B105704460C4
:10A2B0009DF80720094B5A709DF8060000F0EAFA55
:10A2C000074B4FF48012C3F80021002003B030BDCB
:10A2D0009DF8060000F0DEFA0420F7E7942B00203A
:10A2E00000E100E0F8B5284B0022C3F84021C3F894
:10A2F0004421C3F84821C3F84C21C3F80021C3F816
:10A300000421224B1B68002B31D002F1804202F560
:10A310008832D2F804451E4A1268A41A24F07F44F9
:10A320001A68944212D30026374608E01F745A690F
:10A33000986990475DB12A682B46A24207D8A41AB3
:10A340001644DD691A7C002AF4D0EFE70026114B91
:10A350001B78114A12789A420AD00E4B1A780F4B8A
:10A3600043F822600E4B4FF48012C3F80021F8BD71
:10A370000133DBB2022B02D0064A1370EDE7054B26
:10A3800000221A70E9E700BF00100140B42C002041
:10A39000B02C0020AD2C0020AC2C0020A42C0020E0
:10A3A00000E100E02DE9F04F83B07F4B1B787F4A3E
:10A3B00012789A4243D07E4A16680133DBB2022BF0
:10A3C00014D0794A1370784B1A787A4B53F82210CC
:10A3D000731823F07F43764A1360774B1B68002481
:10A3E00025462046A6464FF0010C0DE06E4B00229C
:10A3F0001A70E8E70CB170480360521A1A60012322
:10A4000001931EE064463B4693B11A688A42F1D834
:10A41000891A1044C3F800E0DF69DC68002CF1D031
:10A42000321822F07F425A609C60DD611D46E9E7E8
:10A4300014B1614B00221A600123019301E0002551
:10A4400001955D4BD3F800B04FF000095B4B43F032
:10A45000010A51E05A4A002111707DE0564B1D68F7
:10A46000002D49D000232B74ED69002DFBD1524BF8
:10A4700000221A6040E0504B1F68002F00F01F813F
:10A48000BC420AD0B846D8F81C60002E00F01781F4
:10A49000B44200F00381B046F5E73E46B846FB699A
:10A4A000454A1360002B40F0FC800123454A93602D
:10A4B0003F4A00211160444A13704FF43C60D0477A
:10A4C000EFE05B1A23F07F43A268934234BFD31AB4
:10A4D000002323601FE01C600EE001461A46374649
:10A4E000BE1AC86928B10368B342F6D3DB1B134414
:10A4F00003602660E061CC610DB32C46ED696168B4
:10A500002B4B1B68CA1A22F07F4230488242D8D8AF
:10A51000A3681A44226000236360A36001222274AE
:10A52000E361254B19680029D5D027680A6897424E
:10A53000D6D8D21B0A60E1611F4B1C60DCE7204AC1
:10A54000137852789A4243D05A1CD2B21C490A70EE
:10A55000897891423FF47EAF03EB4302184901EB47
:10A56000C20294681279022A85D0032A3FF476AF9A
:10A57000012AC1D1227C002ABED111495E00F21805
:10A5800001EBC202D06860601069A0605269E260AD
:10A59000334401EBC3018B69A3610B4B1B78002B88
:10A5A000ADD000236360AAE7AC2C0020AD2C0020C6
:10A5B000B02C0020A42C0020B42C0020D85E020077
:10A5C000942B002000100140A02C0020FEFF7F00F3
:10A5D000B9F1000F06D13B4B1B689B4502D1019B93
:10A5E000002B34D0374B1B68002B54D01F68364BE0
:10A5F000D3F80455354B1C682E1B26F07F460336D6
:10A60000334B1B784BB3B7422CBFE419A41924F089
:10A610007F442D4BC3F84045D3F804355B1B23F032
:10A620007F430333641B24F07F44A3420FD9264B9E
:10A63000D3F80425C3F84025264B4FF43C6043F083
:10A6400001039847244B4FF40032C3F80021234BF9
:10A6500000221A7003B0BDE8F08F03F1804303F5C8
:10A6600088334FF48032C3F84423C3F804231A4AD2
:10A670004FF40031C2F8801111604FF00108C3F8A7
:10A680000080144B4FF43C6043EA08039847104B9A
:10A6900083F80080B7E7FFF7B7FDD8E7B0453FF490
:10A6A000FEAE3168F369C8F81C3013B11A680A4469
:10A6B0001A60044B1B689F4218BF4FF0010900232A
:10A6C000237419E7B42C002000100140B02C0020A6
:10A6D000A12C0020D85E020000E100E0A02C0020A8
:10A6E00008B5FFF791FD114B0020187058700B2230
:10A6F0009A700F4B18600F4B18700F4B18700F4B60
:10A700004FF48012C3F88021C02183F814131A601B
:10A7100002F18042A2F56F22C2F8080583F81113F6
:10A72000D2F80425064B1A6008BD00BF942B002008
:10A73000B42C0020AC2C0020AD2C002000E100E067
:10A74000B02C0020094B9B783BB142B148B1036863
:10A75000187C40B959745A61704708207047072027
:10A760007047072070470820704700BF942B0020D7
:10A77000244B9B78002B36D0002836D0042936D9BC
:10A780004369002B35D0F0B583B016460D4604461C
:10A79000437C012B0CBF0F46002700238DF80730A8
:10A7A0000DF1070000F04AF80DF10600FFF754FD27
:10A7B00008B3012202704460134AD2F80425826073
:10A7C000C560076146619DF806200E4B5A709DF8E2
:10A7D000070000F05FF80D4B4FF48012C3F8002122
:10A7E000002003B0F0BD0820704708207047072004
:10A7F0007047082070479DF8070000F04BF80420D0
:10A80000EFE700BF942B00200010014000E100E0C2
:10A8100008B5094B9B7843B148B143694BB100235C
:10A8200003740221FFF732FD08BD0820FCE7082071
:10A83000FAE70820F8E700BF942B0020EFF310821E
:10A8400072B6114B9B68C3B930B40F4901238B60BA
:10A850000E4BD3F880400E4D2C400C60C3F8805056
:10A86000D3F884404C604FF0FF31C3F884100023CC
:10A87000037002B962B630BC7047012303700AB995
:10A8800062B67047704700BFB82C002000E100E0BE
:10A89000FC06FFBD084B9B686BB160B9EFF31081FC
:10A8A00072B6054B1868054A10605868506000225F
:10A8B0009A6001B962B67047B82C002000E100E050
:10A8C00079B110B40C46B2FBF3F103FB112189B24C
:10A8D00049B90460416081608281C381084610BC2F
:10A8E00070470E2070470920F9E782B050E8022F28
:10A8F000C188B2EB324F4FF0000317BF92B241EA6A
:10A90000014142EA014104E04268B2EB324F08BF24
:10A91000012340E80212002AE8D18DF807309DF8A3
:10A920000730DBB2002B14BF0020112002B07047AB
:10A9300030B482B050E8013F9DB2C4892544848977
:10A94000A54228BF2D1B0489A54202BFBFF32F8F4C
:10A95000002207E0C5EA030540E80154002CE9D1D4
:10A960004FF001028DF803200193019B0B609DF8CD
:10A9700003302BB10B880068184402B030BC70471C
:10A980000020FAE70A884B889A4201D000207047DD
:10A9900050E8012FC2EA024240E80123002BF7D120
:10A9A0000120704730B482B050E8023F1FFAA3F58F
:10A9B000C488A54202BFBFF32F8F00220DE0C489D7
:10A9C00025448489A54228BF2D1BC3EA054540E8DC
:10A9D0000254002CE8D14FF001028DF803200193BE
:10A9E000019B0B609DF803302BB14B880068184425
:10A9F00002B030BC70470020FAE70A884B889A42C0
:10AA000001D00020704750E8022FC2EA224240E8FD
:10AA10000223002BF7D10120704708B501F01F0277
:10AA20004B090121914000EB830000F06FF808BD55
:10AA300010B501F01F044B090121A14000EB830078
:10AA400000F059F8E04000F0010010BD08B501F039
:10AA50001F0301229A404B09D14300EB830000F011
:10AA60006BF808BD4B0950F8230001F01F01C840E6
:10AA700000F0010070472DE9F04705460F4601F14F
:10AA8000FF3A4FEA5A1A4FF0000904E009F10103B6
:10AA9000CA4522D0994605EB890855F82940E44378
:10AAA00094FAA4F4B4FA84F41F2CEFD84FEA4916B0
:10AAB0003444A742EAD921462846FFF7B9FF68B1D6
:10AAC000D8F80040E44394FAA4F4B4FA84F41F2CB8
:10AAD000DCD83444A742EED8D8E73C462046BDE84F
:10AAE000F08750E8002F0B4640E8003C9CF0000F38
:10AAF000F7D11046704750E8002F42EA010340E8C2
:10AB0000003C9CF0000FF6D11046704750E8003F23
:10AB100043EA010240E8002C9CF0000FF6D11046F9
:10AB2000704750E8002F02EA010340E8003C9CF027
:10AB3000000FF6D11046704750E8003F03EA0102CB
:10AB400040E8002C9CF0000FF6D11046704750E80A
:10AB5000002F02EB010340E8003C9CF0000FF6D10F
:10AB60001046704750E8003F03EB010240E8002C1C
:10AB70009CF0000FF6D11046704750E8003FA3EB61
:10AB8000010240E8002C9CF0000FF6D110467047FF
:10AB900008B50121FFF7AFFF08BD08B50121FFF798
:10ABA000B5FF08BD08B50021FFF7BBFF08BDC0B168
:10ABB00010B4044643688268D21AD2B201680B60AE
:10ABC000531EDBB242B121680A68501C0860137042
:10ABD000013BDBB2FF2BF6D123680020187110BCBB
:10ABE00070470E20704730B583B0044600238DF8BF
:10ABF00007300DF10700FFF721FE22681368616836
:10AC00008B4217D9591E116013F8015C228AE36840
:10AC100002FB05352268A36811685B1ADBB2117963
:10AC2000994200D213719DF80700FFF733FE2846C2
:10AC300003B030BD0025F6E730B583B005460C46BD
:10AC400000238DF807300DF10700FFF7F7FD2A68A4
:10AC50001368591C1160EA68A41A2A8AB4FBF2F43A
:10AC60001C709DF80700FFF715FE03B030BD826829
:10AC700042B110B504464369016800699847002352
:10AC8000A36010BD70470EB400B582B0039921B126
:10AC900004AB019301AA00F07DF802B05DF804EB6B
:10ACA00003B0704710B5026883685C1C8460D1549F
:10ACB000826843689A4200D210BDFFF7D8FFFBE7D5
:10ACC0002DE9F84F82460F4615461E46DDF82890BE
:10ACD0000B9AA94228D30B464FF00108B3FBF5F3BA
:10ACE00008F101089D42F9D9B04538BFB04612F0CD
:10ACF000010B17D1B9F1000F14D012F0020F16D0CA
:10AD0000002E14BF20243024C1450BD909F1FF398E
:10AD100021465046FFF7C6FFB9F1000F02D0C145EA
:10AD2000F4D1C14601240AE04FF00108DCE72024F9
:10AD3000EAE7B7FBF4F39D4205D805FB04F4012EC6
:10AD4000F7D9013EF9E7124E00E01C46B7FBF4F3D9
:10AD500004FB1377F15C5046FFF7A4FFB4FBF5F357
:10AD6000AC42F2D2BBF1000F10D0B9F1000F0DD000
:10AD7000C1450BD9202409F1FF3921465046FFF780
:10AD800091FFB9F1000F01D0C145F4D1BDE8F88FB2
:10AD9000E05E0200002900F0D3812DE9F04F85B07C
:10ADA000834690460C46DFF89CA3C2E0002602E0F2
:10ADB00046F00106013423782D2BF9D0302B1AD020
:10ADC0002B2B1CD02A2B1ED02578A5F13003DBB20B
:10ADD000092B25D8303D611C0C4611F8013BA3F12D
:10ADE0003002D2B2092A15D805EB850503EB4503DD
:10ADF000A3F13005F0E746F002060134DBE746F048
:10AE000004060134D7E7D8F800301A1DC8F800202E
:10AE10001D68013423782E2B04D0002723781DE0F1
:10AE20000025F7E7611C6378A3F13002D2B2092A4A
:10AE30000FD8002707EB870703EB4703A3F1300781
:10AE400011F8013FA3F13002D2B2092AF2D90C461F
:10AE5000E4E70C460027E1E714F8013F03F0FB02AA
:10AE6000682AF9D0253B532B5ED8DFE813F05A014E
:10AE70005D005D005D005D005D005D005D005D00EA
:10AE80005D005D005D005D005D005D005D005D00DA
:10AE90005D005D005D005D005D005D005D005D00CA
:10AEA0005D005D005D005D005D005D005D005D00BA
:10AEB0005D005D005D005D005D005D005D005D00AA
:10AEC0005D005D005D005D005D005D005D005D009A
:10AED0005D005D00F1005D005D005D005D005D00F6
:10AEE0005D005D005D005D005D0054006E005D0072
:10AEF0005D005D005D006E005D005D005D005D0059
:10AF00005D005D0042015D005D00FF005D00E3004B
:10AF10005D005D00F100D8F800301A1DC8F800206F
:10AF200019785846FFF7BEFE01342378002B00F055
:10AF3000FD8014F8011B002900F0F88025293FF45A
:10AF400035AF5846FFF7AEFEEFE7D8F800301A1DD0
:10AF5000C8F80020D3F8009089EAE973A3EBE973FD
:10AF6000092B2FDD012100E013468AFB0320DA17AD
:10AF7000C2EBA0020131632BF6DC0B46B94238BFAD
:10AF80003B46029335B1B9F1000F02DB16F0040F16
:10AF900000D0013D16F0020F00D0B7B116F0010F3E
:10AFA00013D195B1029BAB420FD203961E46013DD1
:10AFB00020215846FFF776FE35B1AE42F7D1039E09
:10AFC000029D02E00121D8E7039EB9F1000F0FDBDB
:10AFD00016F0040F13D106F00303022B14D00196D0
:10AFE00000953B460A2249465846FFF769FE9BE713
:10AFF000C9F100092D215846FFF754FEEBE72B213C
:10B000005846FFF74FFEE6E7002FE8D1002DE6D0C7
:10B01000029BAB42E3D203961E46013D30215846C7
:10B02000FFF740FE25B1AE42F7D1039E029DD6E761
:10B03000039ED4E7D8F800301A1DC8F8002019681C
:10B04000019600953B460A225846FFF739FE6BE70A
:10B05000D8F800301A1DC8F800201968019600952C
:10B060003B4610225846FFF72BFE5DE7D8F800302C
:10B070001A1DC8F800201F6816F001061CD0397888
:10B08000B9B13E46C7F1010707EB06095846FFF77D
:10B0900009FE16F8011F0029F6D14D457FF644AF91
:10B0A0002026013D31465846FFF7FCFD4D45F8D1BD
:10B0B0003AE74FF00009F0E71FB138460AF076FD95
:10B0C0000646B54209D945B14FF02009013D494630
:10B0D0005846FFF7E7FDB542F8D1397800293FF42B
:10B0E00023AF5846FFF7DEFD17F8011F0029F8D1FE
:10B0F0001AE7D8F800301A1DC8F800201D68302162
:10B100005846FFF7CFFD78215846FFF7CBFD0023C7
:10B11000019308230093102229465846FFF7D0FDDB
:10B1200002E725215846FFF7BDFDFDE69BF80C30F0
:10B1300013B905B0BDE8F08F5846FFF798FDF8E762
:10B14000704700BF676666662DE9F84F044689467A
:10B150009DF828A0C588477905FB07F7043FA84656
:10B1600003F1040CBCFBF5F005FB10C1166806EBFF
:10B17000030EBE4588BFFE1A1660AC4502D3246894
:10B180000138FCD16D1AB54228BF3546E6B100271B
:10B19000BB460CE02A4619460AF08AFC2468761B56
:10B1A0002F444546B04528BF3546594666B109EBA0
:10B1B000070304316018BAF1000FEBD02A460146AC
:10B1C00018460AF075FCE9E7BDE8F88F08B5FFF707
:10B1D000EEFC08BDF8B54679711E12D00246002378
:10B1E000126801339942FBD117684EB100240568FB
:10B1F00001463846FFF720FD01342846A642F6D81E
:10B20000F8BD01460068FFF717FDF9E72DE9F8439F
:10B210000746048A231F033101EB0308B8FBF3F848
:10B22000FFF7E1FC064608B30023037101234371D5
:10B23000043CC4805FFA88F80760B8F1010815D0B3
:10B24000814600253846FFF7CEFC044650B173799D
:10B2500001337371C9F80000076001358146A845C4
:10B26000F0D103E03046FFF7B5FF26463046BDE893
:10B27000F88308B501210430FFF774FC08BD10B550
:10B28000044601210430FFF778FCC0B200B110BDC4
:10B290002046FFF79FFFFAE700B585B00392002232
:10B2A000009203AAFFF750FF05B05DF804FB00B55C
:10B2B00085B003920122009203AAFFF745FF05B073
:10B2C0005DF804FB41DF704710B50024054B1C708E
:10B2D000054B1C60BFF35F8F0449054800F023F85D
:10B2E000204610BDCC2C0020D02C0020F05E0200A7
:10B2F000C42C002008B507F0B3F818B920BF40BF30
:10B3000020BF08BDFFF7DEFFFBE7826800239360E4
:10B3100082681361826853618268D3608268536077
:10B3200082681360704701600B6843604A6893420B
:10B3300004BF002343607047436843B102689168CB
:10B340000B4443605268934204BF0023436070473C
:10B3500030B4164A02F59475AB1ADB1003EBD373C5
:10B360005B1002EBC30152F83330984228BF0C4601
:10B3700012D28A420CD28B1ADB1003EBD3735B1010
:10B3800002EBC30452F83330834204D92146F0E77C
:10B39000002030BC70470D46984205D904F10802E0
:10B3A000AA42D9D30020F4E76068F2E71C5F0200EC
:10B3B00008B5FFF7CDFF024B002808BF184608BDAF
:10B3C000085F020029DF704728DF70470268936832
:10B3D00033B300B587B00023009302930393049323
:10B3E00001918368059303793BB1012B0FD09368DA
:10B3F0006846984707B05DF804FB01238DF80030DC
:10B4000003690293C368039343690493EFE702233C
:10B410008DF80030C3681B03029343690493E6E789
:10B42000704708467047002070470000024B187AAA
:10B43000003018BF01207047702D0020034B0122FF
:10B440005A74187AB0FA80F040097047702D0020C5
:10B4500008B510461A460AF02BFB002008BD000074
:10B4600008B51422002104480AF04BFB0348FFF7FB
:10B470003CFA002008BD00BF702D0020602D002088
:10B4800008B5094B43600948FFF782FB08B100206B
:10B4900008BD06F0E5FF054B18741C238C220449F7
:10B4A0000448FFF70DFAF2E730640200702D002027
:10B4B000D42C0020602D002008B5831E012B0ED84F
:10B4C000274B1B7A5BB1022B03D1022808D003283B
:10B4D0002CD0234B5B7C002B3ED100F049F808BDFB
:10B4E000204B18681E4B0022DA60037953B1012B00
:10B4F000EFD103690133036142699A4214BF00230B
:10B5000001230DE043698269991AB1F5805F94BF08
:10B51000521802F580528261934214BF0023012326
:10B52000002BD6D000210E4B19720EE00C4BDB68BD
:10B530000133082B02D80A4AD360CAE7084B00221D
:10B54000DA601A72074B18680D21FFF73FFF0649B2
:10B550000648FFF752FABCE706F06EFFBFE700BFF0
:10B56000702D0020882D0020842D0020602D0020CB
:10B5700010B5264B1B7AABB1244B02221A72244B16
:10B580001C682379D3B1012B31D003212046FFF76A
:10B590001DFF1E4B00221A725A601E491E48FFF7FB
:10B5A0002CFA10BD1B491C48FFF7FCF9184B18601A
:10B5B0000028E1D1154B00225A60F2E7A3696269C5
:10B5C000D21AB2F5805F28BF4FF480529208E1682A
:10B5D0002069012A38BF012219441844FFF7F2FEFE
:10B5E00058B11128D1D1094B01221A72D9E7E0686C
:10B5F00023691844FFF7E8FEF2E7044B1B7C002B9D
:10B60000CFD100210220FFF757FFCAE7702D00209D
:10B61000882D0020842D0020602D002008B500F02A
:10B62000FD03012B00D008BD054B00225A740128F0
:10B6300014BF002001201874FFF79AFFF3E700BF42
:10B64000702D002008B50548FFF7A2FA10B9044B89
:10B650005B7C03B108BDFFF78BFFFBE7742D002077
:10B66000702D00202DE9F04182B080460D4616462F
:10B670001F4601A90E48FFF75BF9B0B104461C2232
:10B6800000210AF03EFA01232371C4F80080A7606C
:10B690002D0BE560666101A90548FFF773F9FFF717
:10B6A000D1FF002002B0BDE8F0810420FAE700BF1E
:10B6B000602D00202DE9F04383B08146884617466F
:10B6C0001E4601A90F48FFF733F9C0B104461C22FA
:10B6D00000210AF016FA00252571C4F800900A9B93
:10B6E000A360C4F81080E760666101A90548FFF710
:10B6F00049F9FFF7A7FF284603B0BDE8F08304200F
:10B70000FAE700BF602D0020A94B1B78062B00F044
:10B710008E80A84B1B68C3F34233A74A1360A44B27
:10B720001B78062B00F0AE804FF080430022C3F858
:10B730000C21C3F81021C3F838259D4B1B78062B2C
:10B7400000F0B3804FF08052D2F804149B4BC3F842
:10B750002015D2F80814C3F82415D2F80C14C3F835
:10B760002815D2F81014C3F82C15D2F81414C3F805
:10B770003015D2F81814C3F83415D2F81C14C3F8D5
:10B780004015D2F82014C3F84415D2F82414C3F895
:10B790004815D2F82814C3F84C15D2F82C14C3F865
:10B7A0005015D2F83014C3F85415D2F83414C3F835
:10B7B0006015D2F83814C3F86415D2F83C14C3F8F5
:10B7C0006815D2F84014C3F86C15D2F84424C3F8B5
:10B7D000702503F54053FB22C3F81825744B1B78E2
:10B7E000062B00F08F804FF08043D3F8003413F025
:10B7F000010F05D04FF080436FF00102C3F8002421
:10B800006F4B1B68062B00F095804FF01023D3F888
:10B810000032002BC0F299804FF01023D3F804328D
:10B82000002BC0F29280674B674A1A607047674BE3
:10B830001B6813F00F0F14D1654B1B6803F0F00267
:10B84000302A03D003F0E003402B0AD1614B1B6880
:10B85000C3F30423604A1360554B1B78062B7FF417
:10B8600058AF5A4B1B6813F00F0F7FF452AF584B71
:10B870001B6803F0F003302B7FF44BAF574B584A53
:10B880001A6046E7514B1B6813F00F0F7FF44CAF63
:10B890004F4B1B6803F0F003302B7FF445AF514A48
:10B8A000D36823F08073D3603EE7484B1B6813F0E6
:10B8B0000F0F0DD1464B1B6803F0F003302B0DD159
:10B8C000494B03221A603A4B1B78062B7FF43AAFA0
:10B8D0003E4B1B6813F00F0F7FF434AF3C4B1B68DB
:10B8E00003F0F003302B7FF42DAF404B05221A609C
:10B8F000783301221A60703B00221A60043B3F2219
:10B900001A601FE7314B1B6813F00F0F7FF46BAF0A
:10B910002F4B1B6803F0F002302A04D003F0E00341
:10B92000402B7FF460AF324B1B6803F04F03314A6A
:10B93000136058E7304B1B68062B7FF466AF2F4A25
:10B94000136843F4806313605FE72D4B0122C3F853
:10B9500004251A46D2F80034002BFBD04FF01023F8
:10B960001522C3F80022264AD2F80034002BFBD05F
:10B970004FF010231522C3F80422214AD2F80034D4
:10B98000002BFBD01E4B0022C3F804251A46D2F828
:10B990000034002BFBD0BFF34F8F1A49CA6802F462
:10B9A000E062194B1343CB60BFF34F8F00BFFDE73D
:10B9B000E00F00F0440200103C05004000C00040D1
:10B9C000300100101C2500200090D003E40F00F08F
:10B9D000E80F00F0240300104035014074C0074018
:10B9E0000DF0ADBAF0ED00E0A005004010560040AB
:10B9F00058020010E40E0040340100103C170040D3
:10BA000000E0014000ED00E00400FA0538B538B16F
:10BA1000012813D10E4B01229A701C46154613E0E3
:10BA20000B4B01225A701C46002504E01A68A260E4
:10BA30005B6828469847A368002BF7D138BD1A6881
:10BA400022615B68284698472369002BF7D1F5E708
:10BA50008C2D002000B1704738B5074B01225A7079
:10BA60001C46002504E01A68A2605B6828469847D7
:10BA7000A368002BF7D138BD8C2D002010B50D4BDD
:10BA80001B7813B18524204610BD0A4B00229A6012
:10BA90005A601A61DA60084800F060F8044606F05F
:10BAA000DFFC18B1034B01221A70ECE700F066F8D6
:10BAB000F8E700BF8C2D00200DBA010000B583B05F
:10BAC00000238DF807300DF10700FEF7B7FE094B94
:10BAD000DA68013ADA60DB6833B19DF80700FEF7F7
:10BAE000D9FE03B05DF804FB00F05EF8014B0022C4
:10BAF0009A70F2E78C2D002000B583B001280BD09E
:10BB000043B223B103281FD003B05DF804FB114BEF
:10BB10000122C3F88020F7E700238DF807300DF1EC
:10BB20000700FEF78BFE0C4B1B7853B10A4BDA680B
:10BB30000132DA6001229A709DF80700FEF7AAFE32
:10BB4000E2E7FFF79BFFF1E700F018F8FFF7B6FF19
:10BB5000DAE700BF00E100E08C2D0020064B1B79E6
:10BB60003BB9054A93711060012111715371184658
:10BB700070478520704700BFA02D0020094B1B682F
:10BB800013F0010F07D1074BC02283F800230122D5
:10BB9000C3F880211A604FF080430022C3F81825B3
:10BBA000704700BF00E100E0054B01221A604FF032
:10BBB0008042D2F8183413F4803FFAD1704700BFA6
:10BBC0000C00004000B585B0294B1B6893B1284B91
:10BBD00000221A601B680093009B4FF080430122F3
:10BBE000C3F80823234B5B7923B9224B5A711B6896
:10BBF00000209847204B1B6873B11F4B00221A602E
:10BC00001B680193019B4FF080430222C3F8082375
:10BC1000184B1B6801209847184B1B6873B1174BD2
:10BC200000221A601B680293029B4FF0804310228F
:10BC3000C3F808230F4B1B6802209847104B1B6862
:10BC400093B100230F4A1360A2F6283213601268E2
:10BC50000392039A4FF080420821C2F80813054A64
:10BC6000937113680320984705B05DF804FB00BF8B
:10BC700000010040A02D0020040100401001004000
:10BC80000C010040340C0040054B4FF0FF3243F8EC
:10BC90002020072803D91844FF2380F84430704738
:10BCA000A82D00201B4B93F8533083BB10B582B0F6
:10BCB000184A02F12B034B32FF2103F8011F934274
:10BCC000FBD10024E0B2FFF7DFFF01340B2CF9D1E8
:10BCD000104C0422002104F14F0009F012FF0E4B1A
:10BCE000C02283F806234022C3F880211A600B4B40
:10BCF000002018601B680193019B094B4FF0004224
:10BD0000C3F80423012384F8533002B010BD082087
:10BD1000704700BFA82D002000E100E07C610040DA
:10BD200000600040034B93F85300003018BF01201F
:10BD3000704700BFA82D00203C4B034493F92C30E2
:10BD4000B3F1FF3F01D00820704770B48B780BBB74
:10BD5000364B0344FE2283F82C204B78012B57D01E
:10BD6000012383404FF0A042C2F80C3500F5E07289
:10BD70004FF0A043032143F822102D4A20FA01F38B
:10BD800000F0070101208840D15C0843D054002016
:10BD900070BC7047254B1B68B3F1FF3F3ED0254A6E
:10BDA000012352F8044BB4F1FF3F04D00133082BB8
:10BDB000F7D10420ECE75CB21C4A151885F82C403A
:10BDC000002542F82350B4F1FF3F08BF0420DFD024
:10BDD0000A784D78A30003F1804303F5C043D3F8FC
:10BDE000104524F4981424F4F854C3F81045D3F8FB
:10BDF0001065120402F440322C0504F4801422432E
:10BE0000040204F4F85422433243C3F81025A4E793
:10BE100083404FF0A042C2F80835A7E7034B1A1839
:10BE2000002482F82C401C60D2E700BFA82D00201F
:10BE3000F72D0020AC2D002038B50446164B0344E6
:10BE400093F82C00072819D9134B1A19FF2182F8EF
:10BE50002C1004F0070101228A404F33E108585C9E
:10BE600010420AD004F5E0744FF0A040022540F8DB
:10BE70002450585C20EA02025A5438BDFFF704FFF0
:10BE8000054B234493F92C3003F5A273034A002198
:10BE900042F82310D8E700BFA82D00200060004022
:10BEA000012303FA00F04FF0A043C3F808057047E0
:10BEB000012303FA00F04FF0A043C3F80C057047CC
:10BEC000144B034493F92C30072B0DDD800000F157
:10BED000A040D0F8003723F44033C0F80037D0F842
:10BEE0000037C0F800377047DAB2072A10D89A0036
:10BEF00002F1804202F5C042D2F8101521F0010192
:10BF0000C2F81015012202FA03F3034AC2F80833FB
:10BF1000704700BFA82D00200060004070B50446A7
:10BF2000FFF7CEFF154B234493F92C30DAB2072AE2
:10BF300005D803F5A273124A002142F8231004F039
:10BF40000702012393400F49E208885C18420AD097
:10BF500004F5E0704FF0A045022645F82060885CAB
:10BF600020EA03038B54054B1C4494F82C00FFF784
:10BF70008BFEFF2384F82C3070BD00BFA82D00205D
:10BF800000600040F72D002070B50F4D05F12B0427
:10BF900005F14B06C5F1FF2505F57F05D53503E015
:10BFA000FFF74AFFB4420AD0281914F9013F13F1F0
:10BFB000020FF5D0002BF5DBFFF7B0FFF2E7024BE5
:10BFC000002283F8532070BDA82D00202DE9F04FEA
:10BFD00087B000250595684B0122684E2F46684CB6
:10BFE00003E052000433A3420CD019680129F8D1B0
:10BFF000D6F804131142F4D01F6019680391039915
:10C000001543EEE75F4B1B68012B07D015F0FF0FC0
:10C0100014D1002D2FDB07B0BDE8F08F594B002263
:10C020001A601B680493049B4FF0A043D3F81035AB
:10C03000059315F0FF0F1ED045F0004500240126A2
:10C04000514F03E076000134082CE2D02E42F9D0A3
:10C05000A30003F1804303F5C043D3F81005D3F8E0
:10C06000101557F82430002BECD0C1F30141C0F378
:10C0700004209847E6E7002301934FF0FF33029333
:10C08000414D05F14F064FF0020905F14C044FF008
:10C09000000801270FE003290BD10DF1040E1EF853
:10C0A00002C04CEA030C0EF802C025E0BEF1030FFB
:10C0B0004DD0B4423BD014F9011BB1F1FF3FF8D091
:10C0C000C9B221F0C000C20801F0070307FA03F368
:10C0D0000DF1180C94441CF810CC1CEA030FE8D0A6
:10C0E000890905EB000C9CF92CC055F82CA0BAF17D
:10C0F000000FD0D00329D0D04FEA800C0CF1A04C17
:10C10000DCF800E7CEF3014E0DF1180B5A4412F89B
:10C11000042C1A42CAD0BEF1020FCAD1032904D09E
:10C12000BAF1000FC5D0D047C3E70A4612E0B8F114
:10C13000000F3FF470AF4FF0A043D3F81035059ACD
:10C140009A423FF468AF0593019B02939DE7032950
:10C15000E6D14A46DCF8003723F44033CCF8003708
:10C16000DCF8003743EA0243CCF8003708F1010855
:10C170005FFA88F8D4E700BF00610040006000402B
:10C18000206100407C610040A82D002000B585B0F2
:10C1900001238DF800308DF8081001924368016882
:10C1A0006846984705B05DF804FB000030B589B0DB
:10C1B000454BD3F82431002B3ED0434B0022C3F82B
:10C1C0002421D3F824110291029902218DF8101034
:10C1D000D3F88014C3F880140791D3F83C358DF858
:10C1E00018303A4BD96805919A61DA615A68196832
:10C1F00004A89047344BD3F844315BB1324B002252
:10C20000C3F84421D3F844310193019B2F4B9B6920
:10C21000002B3FD12C4BD3F820315BB12A4B0022AD
:10C22000C3F82021D3F820310093009B274B5B6992
:10C23000002B38D109B030BD234BD3F81031002B7F
:10C24000D8D0214B0022C3F81021D3F8102103923B
:10C25000039AD3F83C151D4B9B699942CAD11B4BDD
:10C26000DB6983B11948C268174DD5F8004224F044
:10C270002004C5F8004283610369C3600023C361E1
:10C28000FFF784FFB6E7114800238361C268FFF718
:10C290007DFFAFE70D4882610B4BD3F83C15C268B8
:10C2A000FFF774FFB6E7084BD3F84C358DF8102034
:10C2B0008DF81830054B996805915A615A681968CC
:10C2C00004A89047B6E700BF00200040FC2D0020E6
:10C2D00030B583B001248440C4F3100313B90720A0
:10C2E00003B030BD0A4BC3F8084500258DF8075050
:10C2F0000DF10700FEF7A2FA064A136823EA0404C8
:10C3000014609DF80700FEF7C5FA2846E8E700BF6D
:10C3100000F00140202E0020F0B589B0714B1B6861
:10C32000002B00F0A4806F4B00221A601B68009362
:10C33000009B6D4B93F82E30002B7BD06A4B93F80B
:10C340002F30002B40F0B880684B1B68002B00F0AA
:10C350009480664B00221A601B680193019B624A1D
:10C36000538B92F82D108AB293421BD99B1A9BB221
:10C370005D4843830289D21A436803EB42035C4A57
:10C38000C2F82C36C2F83016564B00221A601B68D1
:10C390000293029B574B01221A606EE0524B00221F
:10C3A0001A745DE09342EFD14F4BDB685BB14E4AAC
:10C3B000012082F82F00002050834D4AC2F82C360D
:10C3C000C2F83016E0E7484B012283F82F20002204
:10C3D0005A83D9E7444B5C69002C6BD04FF0004581
:10C3E00000271E4601E0002C64D0B4FA84F325FA3D
:10C3F00003F224EA020446339B0003F1804202F573
:10C40000E04211680029EED0176012680492049A85
:10C4100001228DF81420A3F58C73DA088DF818200A
:10C4200083F00403C3F380038DF81930336805A843
:10C430009847D8E700238DF814302B4B5A680692A2
:10C440001A89ADF81C20DA68002AA7D0264B198B70
:10C4500059835A6019810022DA60254B01221A6043
:10C46000214C236805A89847002384F82F301E4BE1
:10C4700093F82E30002B7FF467AF1F4B1B686BB116
:10C480001D4B00221A601B680393039B164B1A7402
:10C4900002228DF814201B6805A89847174B1B68CB
:10C4A000002B97D0154A0023136012680592059A55
:10C4B0000D4A137409B0F0BD00238DF814300A4BF7
:10C4C0005A6806921A89ADF81C20DA68002A3FF4EF
:10C4D00065AF054B198B59835A6019810022DA60C8
:10C4E000BEE700BF04710040242E00200071004010
:10C4F0000070004004700040107100401471004052
:10C50000234B93F82C30002B40D110B483B0204B38
:10C51000196002781F49C1F8F0254278C1F8F42566
:10C52000C27883F82E20012283F82C2000221A746E
:10C5300083F82D205A6183F82F206FF00044C1F852
:10C540000843154C226024680194019C134C22601E
:10C5500022680092009A82785201D2B2104880F884
:10C5600007238022C0F8802102600222C1F8042340
:10C5700093F82E3013B10122C1F80423054B012298
:10C58000C3F80025002003B010BC70470820704796
:10C59000242E002000700040047100400071004013
:10C5A00000E100E02F4B1B7C002B59D10B79012BB4
:10C5B0004BD92C4B03EB40031B7F2BB9294A92F834
:10C5C0002D30013382F82D3000F10C02254B03EBA6
:10C5D0004203CA791A710A7A5A714B781B0103F027
:10C5E00030038A78120202F4E06213430A7802F000
:10C5F00003021343CA78120302F4805213430A79E8
:10C60000120402F4E02213434A79120502F4801264
:10C6100013438A79120602F080721343020102F179
:10C62000804202F5E042C2F81835CB790A7A00015F
:10C6300000F1804000F5E040C0F81425C0F8103546
:10C640000B79012B06D900207047074B0022C3F855
:10C650000025AEE7044B0122C3F8002500207047F7
:10C6600011207047242E002000700040394B1B7CA5
:10C67000002B6DD130B482B0364A01241474364B8D
:10C680000325C3F80853C3F82C16C3F8304692F8B4
:10C690002D30A3420DD900221146130103F180432E
:10C6A00003F5E043C3F81415C3F810150132082A46
:10C6B000F3D100F10C02274B03EB42031A795B79AB
:10C6C000000100F1804000F5E040C0F81435C0F8EA
:10C6D00010250123204A13600432136042F21073C4
:10C6E0001E490A680AB9013BFBD11D4B00221A60A2
:10C6F0001B680193019B194B1A601B680093009BF8
:10C70000144B93F82D30012B0FD91249087F4C7F21
:10C71000130103F1804303F5E043C3F81445C3F864
:10C72000100501320231082AF0D10A4B93F82E305D
:10C730004BB1094B0322C3F804230020054B1874A6
:10C7400002B030BC7047044B0222C3F80423F4E764
:10C7500011207047242E002000700040047100401A
:10C7600000710040024B187C003018BF0120704758
:10C77000242E002030B48CB244EA0244030103F1B9
:10C78000804303F5E043C3F81C4540008024844007
:10C7900011F5006F1DD01C49451C4FF00043EB40C4
:10C7A0004D692B434B61194BC3F80443402383402D
:10C7B00040F2FF718A421AD013494FF0004222FA28
:10C7C00000F04A6902434A61104AC2F8043330BC9F
:10C7D00070470D4D411C4FF0004323FA01F16B6986
:10C7E00023EA01036B61094BC3F80843DEE70649FE
:10C7F0004FF0004222FA00F04A6922EA00024A6140
:10C80000024AC2F80833E2E7242E002000700040FC
:10C81000144B1B7C1BBB10B5124B03EB40031B7F5F
:10C820002BB1104A92F82D30013B82F82D3000F1E7
:10C830000C020C4B03EB420300241C715C710301DE
:10C8400003F1804303F5E043C3F81445C3F81045F2
:10C8500040F2FF720449FFF78DFF204610BD112002
:10C86000704700BF242E002000F8FFFF38B5164B9C
:10C870006FF00042C3F80823144B8022C3F88020D5
:10C88000134B01221A6042F2107312490A680AB966
:10C89000013BFBD100240C4BC3F800450E4B1C742C
:10C8A0001D4605E0E0B2FFF7B3FF0134082C05D0C8
:10C8B00005EB44031B7F002BF7D0F3E7064B002268
:10C8C00083F82C2038BD00BF0070004000E100E07C
:10C8D0000870004014710040242E00206AB32DE936
:10C8E000F04782B08846074600F5A075561EF6B29E
:10C8F00000244FF48039A24604E0631C0435B4429E
:10C9000018D01C46A00000F5A07080B22B68002B48
:10C91000F3D0D7F8043309FA04F11942EDD0C5F881
:10C9200000A02B680193019BD8F80030D8F80410C0
:10C930009847E2E702B0BDE8F0877047036801213D
:10C940001961037903EB4303024A02EB8303197273
:10C95000704700BF542E002038B5044603681B0BF7
:10C960005AB2520903F01F03012101FA03F32032E6
:10C970000B4941F822300368D3F800220025C3F8A0
:10C98000005203684FF0FF32C3F80823FFF7D6FFC9
:10C99000237903EB4303034A02EB83031D7238BD83
:10C9A00000E100E0542E002008B5042202490348AB
:10C9B000FFF794FF08BD00BF542E00200080004008
:10C9C00008B5042202490348FFF788FF08BD00BFED
:10C9D000602E002000900040032824D8012A07D0B0
:10C9E00001290CD04BB2BBB102290ED007207047F1
:10C9F000012901D00022F3E700F10E02D2B200EBD0
:10CA000040000A4B1A540020704700EB4000074BCF
:10CA1000184442700020704700EB4000034B18445C
:10CA20008270002070470720704700BF6C2E0020E6
:10CA300008B5012202210020FFF7CEFF10B1034606
:10CA4000072813D1072202210120FFF7C5FF034663
:10CA500008B107280AD10A2200210846FFF7BCFFC7
:10CA6000034618B1072814BF03460023184608BD23
:10CA700008B50388102B02D0112B2BD008BD1D4BFD
:10CA80001B6823B11B4A136801331360F6E70122C8
:10CA900000210846FFF7A0FF034608B1072812D17E
:10CAA000072202210120FFF797FF034608B107285C
:10CAB00009D1042202210020FFF78EFF034600283F
:10CAC000E0D00728DED00C4A1268002ADAD01846D7
:10CAD0009047D7E7074A1368013B1360002BCDD17D
:10CAE000FFF7A6FF0028C9D0034B1B68002BC5D059
:10CAF0009847C3E77C2E0020782E00200369C16888
:10CB00008B4204D882681A44013A501A7047013B9C
:10CB1000581A70472DE9F843054688461646C468FA
:10CB2000D0F80890A9EB0407974207D94068204441
:10CB300008F0BEFF3444EC60BDE8F88340683A4634
:10CB4000204408F0B5FF3444A4EB0904224608EB66
:10CB50000701686808F0ACFFEC60EDE72DE9F843E9
:10CB6000064688461746C5684FF000093469A54255
:10CB700024BFB268A418013C621BB3685C1BBC42B2
:10CB800028BF3C46944228BF14467068224641465E
:10CB9000284408F08DFFA144A0442544B368AB426B
:10CBA00008BF0025F5603F1BE0D14846BDE8F8838B
:10CBB00010B5114C022323616361104AA261104B2E
:10CBC000E3614FF4007323620023A3626362E362B4
:10CBD000A2640C4AE26410222265A3656365E365E2
:10CBE0000949E01D08F0C0FF0849204608F0BCFFD5
:10CBF0002023A37110BD00BF802E0020946402008A
:10CC0000082F0020F82E0020A0640200A464020077
:10CC1000F8B50F461646194A431C03EB430302EBD3
:10CC2000C30400EB400002EBC000C56A012D11D027
:10CC300025B1022D1BD000252846F8BD2046FFF760
:10CC40005DFFB042F8D3324639462046FFF762FF17
:10CC50003546F1E72046FFF751FF3546864228BFAB
:10CC600005462A4639462046FFF754FFE4E7324698
:10CC70002046FFF773FF0546DEE700BF802E002049
:10CC800008B5FFF795FF08BD6DDF704779DF704786
:10CC90007DDF704764DF70472DE9F04F85B00E9E51
:10CCA000BDF83CB0348801940488FCB19A4617461C
:10CCB000884605464FF000094C4635E0009011E0EB
:10CCC0000C2300930EE00C2300930BE0B9F1000F4E
:10CCD00008D03388013B019A9B1A9BB2FF2B08D8DE
:10CCE0000AF80230009805B0BDE8F08F00230093E9
:10CCF000F8E70C230093F5E7328813445B45E2DC48
:10CD0000328852440DF10B0103A8FFF7C3FF00283E
:10CD1000D4D19DF80B303288134433804FF0010991
:10CD200001342B88A342D1DD6B6853F824000390B3
:10CD300000220DF10B0103A8FFF7ACFF00900028C3
:10CD4000D0D19DF80B30BB42EAD1B9F1000FD3D15D
:10CD50003288134402335B45B2DC013292B2328036
:10CD60000AF80280338801333380C9E72DE9F041A6
:10CD700082B0064617469846089CBDF82450019597
:10CD800000940222FFF788FF034618B1184602B04C
:10CD9000BDE8F081019500944346102239463046A3
:10CDA000FFF77AFF0346F1E72DE9F04784B0054627
:10CDB0000E461446B2F800900023138090F82D30F0
:10CDC000002B40F0B080AB78002B40F0D980EB789E
:10CDD000002B40F0F7806B68B3B12288D11C494525
:10CDE00000F2C58193F900100223B3542388013364
:10CDF0009BB223800A22F254238801339BB2238002
:10CE0000F1542388013323802B89002B40F0F080DC
:10CE10002B8A002B40F0FB802B8B002B40F00681EF
:10CE20002B6A002B42D021888A1D4A4500F2B58129
:10CE30001A88052A40F2B381A2F6814080B24FF2EF
:10CE40007D37B84240F2AD815888052840F2AB8169
:10CE5000A0F68147BFB24FF27D3C674540F2A58105
:10CE60004FF6FF77BA4204D0B84202D0824200F2B5
:10CE70009E81052272542288013292B222801221B0
:10CE8000B1542288013292B222801988B018B1546C
:10CE9000090A41702288023292B222805B88B1185E
:10CEA000B3541B0A4B702388023323806F6A67B325
:10CEB000BB88023321888A1C1A444A4500F26781E4
:10CEC000FE2B00F2668101337354238801339BB239
:10CED0002380FF22F254238801339BB223803A88B7
:10CEE000F118F254120A4A702088023080B2208071
:10CEF000BA8852B1B968002900F04D81304408F079
:10CF0000D7FD2388BA881344238095F82C30002B52
:10CF100040F09B802B78002B40F0DB8000231846EC
:10CF200004B0BDE8F087B9F1080F40F2448102A8CF
:10CF3000FFF7AAFE03460028F1D123880822F25405
:10CF4000238801339BB223801B22F25420880130B6
:10CF500080B2208006220DF10901304408F0A8FDBE
:10CF6000238806339BB223809DF8082012F0FE0F21
:10CF70000CBF00220122F25423880133238022E7D0
:10CF8000238804334B4500F2148102A8FFF77EFE8C
:10CF900003460028C3D123880322F2542388013397
:10CFA0009BB223801922F254238801339BB2238041
:10CFB000BDF80820F118F254120A4A70238802338F
:10CFC000238004E72288D11C494500F2CE8002214B
:10CFD000B1542288013292B222800121B1542288B8
:10CFE0000A4492B22280B35423880B442380F2E691
:10CFF000CDF80490009433460622022105F1080082
:10D00000FFF7B4FE034600283FF402AF87E7CDF8F0
:10D010000490009433460722032105F11000FFF726
:10D02000A5FE034600283FF4F7AE78E7CDF804905C
:10D03000009433461522142105F11800FFF796FEDF
:10D04000034600283FF4ECAE69E7AF6A002F00F01A
:10D050009680BB880233FE2B00F293804FF00008CD
:10D060004FF0160A11E008F101085FFA88F895F808
:10D070002C3043457FF64EAF08EB4807AB6A03EB15
:10D080008707BB880233FE2B7DD822880133B35437
:10D09000238801339BB2238006F803A02388013341
:10D0A0009BB223803A88F118F254120A4A70208801
:10D0B000023080B22080BA88002AD4D0B968002912
:10D0C00063D0304408F0F4FC2388BA8813442380EA
:10D0D000C9E72A88012A40D02288901C48453ED8BA
:10D0E000012B04D16B7802331344994539D3A9F14C
:10D0F0000207BF1ABFB2ADF8087002A93044FFF7AB
:10D10000C7FD034600287FF40AAF2A78022A30D0F0
:10D110006978BDF80800814201D387421BD2012AF9
:10D1200013D0ADF808700820BDF80820FE2A1AD8E0
:10D130002188551C75542188013189B22180705491
:10D140002A4621880A442280E9E68F42E9D3ADF8D5
:10D1500008100820E8E70920E6E70723DFE60C23AC
:10D16000DDE60C23DBE60C23D9E60C23D7E60C2303
:10D17000D5E6BDF80820BA42D3D80920D4E7072362
:10D18000CDE60C23CBE60C23C9E60723C7E60C2328
:10D19000C5E60C23C3E60723C1E60C23BFE607233D
:10D1A000BDE60723BBE60723B9E60723B7E6072357
:10D1B000B5E60C23B3E60C23B1E6E8B1F0B40546BE
:10D1C000E2B11688002005E0884212D22C5C0134BE
:10D1D000204480B28642F7D807462C1864789C42D7
:10D1E000F2D188420CD202301080E85D013880B262
:10D1F00000E00020F0BC7047002070470020F9E7F5
:10D200000020F7E710B582B004460023ADF80630E1
:10D2100013460DF10602FFF7D0FF20B1BDF806005E
:10D22000204402B010BD0020FBE772DF704773DFBF
:10D23000704738B504460D460122B0F89810D0F872
:10D240009400FFF7DFFF00B1057004F13C0204F128
:10D25000940104F15400FFF7E8FF38BD80F8301066
:10D260007047F8B5002971D00F46002870D091F8AA
:10D270007A201AB191F89820002A6BD1D7F8A02013
:10D28000042A69D0D7F89C20042A67D004464FF0BE
:10D29000000C80F802C0051D07F178060FCE0FC5FF
:10D2A0000FCE0FC596E8070085E8070084F830C068
:10D2B000D7F8A4306363D7F8A830A3634FF6FF73A1
:10D2C000A4F8A83004F19403C4F8A43007226146FE
:10D2D00004F1AA0008F015FC237813B9FF2384F8A1
:10D2E000543004F15501C4F8941022461F2322F84B
:10D2F000983F3846FFF758FD034628BB04F17401F8
:10D30000C4F89C1022461F2322F8A03F07F13C00DE
:10D31000FFF74AFD0346B8B9012384F85130A269EA
:10D32000A4F8482084F83C300021216484F850108F
:10D330006369636404F13C0204F15400FFF775FF74
:10D34000034608B9012222701846F8BD0E23FBE7F8
:10D350000E23F9E70723F7E70723F5E70723F3E7AA
:10D36000F8B50678002E00F0F58004460D46A17051
:10D3700000F1AA0707220021384608F0C2FBE38823
:10D3800013B1A378012B18D0E37913B1A378022B42
:10D3900013D094F8AB304BB904F1AB0304F1B001F6
:10D3A00013F8012F12B98B42FAD100266B1E032B02
:10D3B00048D8DFE803F00E151A1E636B2BB101226B
:10D3C00084F8B12008209847E3E7002384F8B130BF
:10D3D000DFE7A37923B194F824300BB92EB10DE027
:10D3E000E37913B1002E40F0DE80237A002B40F069
:10D3F000C180637A002B40F0BF800025A570002318
:10D4000084F8B33004F13C0518220021284608F0C6
:10D4100078FB012384F83C30E36A5A1E012A40F26B
:10D420009E80012384F8513094F824306BB9002396
:10D4300084F85030A378042B5CD8DFE803F0870A27
:10D440002B3B65000023A370D9E7012384F85230F9
:10D45000EDE7012384F831300023C4F8A4302764B9
:10D460006364022384F83C308023A4F848302A46C1
:10D47000D4F8A41004F15400FFF7D7FE03460028A7
:10D4800069D194F8301094F85400FFF7D0FE0346A9
:10D4900098B360E0022384F83130032384F83C30F1
:10D4A0002369A4F848300023C4F8A4302764E36853
:10D4B0006364DCE763696364A369A4F84830637953
:10D4C0008BB194F8B23073B994F8B4305BB10223E5
:10D4D00084F8503004212046FFF7ABFE50B90523F5
:10D4E00084F8313002E0032384F8313004F19403EE
:10D4F000C4F8A430A378002BB9D1636B6BB394F854
:10D5000031009847002326E0E3696364236AA4F8A6
:10D510004830637993B194F8B2307BB994F8B43061
:10D5200063B1022384F8503004212046FFF781FEC6
:10D530000028DFD1062384F8313002E0042384F888
:10D54000313004F19403C4F8A430D3E7002384F805
:10D550003130D2E708231846F8BD0023FBE784F8F2
:10D56000513094F82430002B3FF461AFA36A84F863
:10D5700052305CE7032300E00423A370636B002BAD
:10D580003FF43DAF6279002A3FF439AF94F8B220FE
:10D59000002A7FF434AF84F8B420012284F8B32049
:10D5A000072098472EE7022528E70388102B00D094
:10D5B0007047C37B012B04BF8388A1F8A830F7E72D
:10D5C000704775DF704776DF70477ADF70477BDF23
:10D5D00070470000034B1A8882420CBF1846002097
:10D5E000704700BF2431002070B44C880588A542E4
:10D5F0001BD84588A5421BD384888D88944294BF4C
:10D60000261BA61AB54215D32244954214D8C288C7
:10D61000C8889A4294BF911AD11A88420ED31344F3
:10D6200098428CBF0020012000E0002070BC7047B1
:10D630000020FBE70020F9E70020F7E70020F5E7EE
:10D6400008B5024B9B6903B1984708BD083100201B
:10D6500030B583B084B22046FFF7BCFFA0B10546C9
:10D66000027A174B1B7B9A4210D300230372144B90
:10D670001B7CB3B9124B5B6933B100228DF80420D7
:10D68000ADF8064001A8984703B030BD00F10A018B
:10D690002046FFF796FF70B11128F5D0FFF7D0FFB5
:10D6A000F2E73B212046FFF78EFF30F00803E1D080
:10D6B000FFF7C6FFDEE72B7A01332B72E4E700BFEA
:10D6C0000831002000B583B00B46497A71B91A7A47
:10D6D0004AB90E4A516802465868FDF749F888B1C0
:10D6E000FFF7AEFF0EE0094A9168F4E700221A72D4
:10D6F000064B5B6933B101228DF80420ADF80600BA
:10D7000001A8984703B05DF804FB00BF0831002072
:10D7100070B504460388112B37D009D9122B61D07C
:10D72000502B04D1C2883A4BDB899A423ED070BD5F
:10D73000102BFCD1C37B012BF9D14FF6FF70FFF703
:10D7400049FF0546E8B1A68806800023037200F170
:10D750000A03304A03CAC5F80A00184659604FF652
:10D76000FF7340F2F31204F11001FFF73DFF6872FE
:10D77000274BDB89002BDAD129463046FFF7A2FF81
:10D78000D5E70420FFF75CFFD1E78088FFF722FF91
:10D7900004460028CBD04068FDF73AF818B94FF698
:10D7A000FF732380C3E7FFF74BFFF8E7038A022BE1
:10D7B000BDD185882846FFF70DFF06460028B6D064
:10D7C00004F1120000F0EBF920B131462846FFF7D2
:10D7D00079FFACE77068FDF71BF80028A7D0FFF7CA
:10D7E0002FFFA4E786883046FFF7F4FE05460028A1
:10D7F0009DD04FF6FF7340F2F31204F108010A3096
:10D80000FFF7F2FE687229463046FFF75BFF8EE7AE
:10D810000831002038310020F8B568B30646174FAC
:10D820003C4605460FCD0FC495E8070084E8070085
:10D83000134B3B603068C0B1FFF7C7FE034690B999
:10D8400032680F4B1068516803C30E484FF6FF73E0
:10D8500003800D4B40F8043F0C4A0021FCF772FF97
:10D86000031E18BF03231846F8BD0548FFF7AFFE97
:10D8700003460028E9D0F6E70E23F4E7083100203C
:10D8800038310020243100204031002051D60100E1
:10D89000F0B583B00190A1B10F46019D95B1164638
:10D8A0000024254602E00134142C0BD0214601A8A7
:10D8B000FDF7D8F80028F6D03146A0B2B8470135B8
:10D8C000F1E70025284603B0F0BD70B582B00646EA
:10D8D0000191019D85B10024254602E00134142CFC
:10D8E0000AD0214601A8FDF7BDF80028F6D006EBC6
:10D8F00045039C800135F1E73560304602B070BDCC
:10D900002DE9F04F8DB087880388112B43D0064650
:10D910001A2B45D0102B02D00DB0BDE8F08F304A45
:10D920009368DB43009351686846FDF705F9009959
:10D9300001A8FFF7CAFF019BA3B10DF1060505EB96
:10D940004309DFF89CA00AF1780B35F8028F0AF141
:10D95000040441462046FDF779F80434A345F8D184
:10D960004D45F2D1132F03D90420FCF707FCD3E770
:10D970001B4C394604F10800FDF74FF83946201DCD
:10D98000FDF74BF8F37B012BC6D0394604F10C00B0
:10D99000FDF743F8C0E739461248FDF757F8BBE7F3
:10D9A000047A2409012C0FD939460F48FDF735F8C0
:10D9B000022C04D939460D48FDF72FF8ACE739465B
:10D9C0000A48FDF743F8A7E7054C394604F1100073
:10D9D000FDF73CF8394604F11400FDF737F89BE7F2
:10D9E0006031002068310020703100207431002047
:10D9F000132801D90020704708B501460148FDF7FA
:10DA000031F808BD6431002008B5FFF7F1FF08BD0B
:10DA100010B50446FFF7ECFF08B9002010BD214601
:10DA20000348FDF71FF8002814BF02200120F5E786
:10DA30006831002010B50446FFF7DAFF034608B945
:10DA4000184610BD21460248FDF70CF80346F7E7DB
:10DA50007031002010B50446FFF7CAFF034608B92D
:10DA6000184610BD21460248FCF7FCFF0346F7E7C5
:10DA70007431002010B50446FFF7BAFF002814BF28
:10DA80002046142010BD000008B518210248FCF7FC
:10DA9000F2FFC0B208BD00BF6031002038B50446B7
:10DAA0000D460B48FCF7DEFF034608B9184638BDA3
:10DAB0002046FFF79DFF03460028F7D00635214694
:10DAC000034800EB8500FCF7CDFF0346EEE700BFFF
:10DAD0006031002070B504460D4616460D48FCF72F
:10DAE000C1FF00B970BD2046FFF782FF0028F9D0C2
:10DAF0003EB106352146074800EB8500FCF78DFF57
:10DB0000F0E706352146034800EB8500FCF79EFF51
:10DB1000E8E700BF6031002070B504460D461646A8
:10DB200001460848FCF79EFF08B9002070BD043488
:10DB3000044B03EB8404A06832462946FFF7A8FE95
:10DB4000F4E700BF60310020DAB138B51546002295
:10DB50002A60C0B10268C2B1C28812F0030F16D1A8
:10DB600004460846FFF786FFC0B2142811D0237977
:10DB7000834210D9E388226800FB0320286000203C
:10DB800038BD0E2070470E20FAE70E20F8E7072078
:10DB9000F6E70520F4E70420F2E7AADF70470078F3
:10DBA00000F001007047F0B591B005460C461646EE
:10DBB0008B78002B08BF01238DF80E300B88ADF851
:10DBC0000C300322002102A807F09BFF637C9DF824
:10DBD000082002F0F0026FF307128DF80820013BD5
:10DBE000042B0DD8DFE803F0031D28333E009DF819
:10DBF0000830012262F3030362F307138DF8083043
:10DC0000A37C9DF8092002F0F0026FF307128DF853
:10DC10000920013B042B38D8DFE803F02E929DA8A1
:10DC2000B3009DF80830012262F30303022262F37D
:10DC300007138DF80830E3E79DF80830012262F3FE
:10DC40000303032262F307138DF80830D8E79DF829
:10DC50000830022262F30303012262F307138DF8F6
:10DC60000830CDE79DF80830022262F3030362F327
:10DC700007138DF80830C3E79DF80930012262F3DD
:10DC8000030362F307138DF809309DF80A30E27B35
:10DC900062F3C303227C62F30413227B62F300036A
:10DCA000227D002A14BF0222012262F342038DF872
:10DCB0000A301C22002109A807F023FF637B13F020
:10DCC000300F68D1637B8DF82430A37B8DF825302D
:10DCD0001422002104A807F014FF03AB049302AB45
:10DCE0000593A388ADF81C30A3681BB1E288ADF89A
:10DCF00018200893A369002B00F00F8101AF0322C5
:10DD00000021384607F0FDFEA2691388ADF82C30DB
:10DD10005388ADF82E3053680A930D97137B9DF806
:10DD2000041001F0F0016FF307118DF80410013BAE
:10DD3000042B00F29580DFE803F08AA4AFBAC50097
:10DD40009DF80930012262F30303022262F30713F4
:10DD50008DF8093099E79DF80930012262F3030339
:10DD6000032262F307138DF809308EE79DF809301E
:10DD7000022262F30303012262F307138DF80930D4
:10DD800083E79DF80930022262F3030362F307136D
:10DD90008DF8093079E703220021684607F0B1FECB
:10DDA000E37C9DF8012002F0F0026FF307128DF87A
:10DDB0000120013B042B0DD8DFE803F0031E2934BA
:10DDC0003F009DF80130012262F3030362F3071361
:10DDD0008DF801309DF80030012262F3030362F3F5
:10DDE00007138DF800309DF8023062F342038DF87E
:10DDF0000230CDF838D065E79DF80130012262F39A
:10DE00000303022262F307138DF80130E2E79DF865
:10DE10000130012262F30303032262F307138DF83A
:10DE20000130D7E79DF80130022262F3030301229B
:10DE300062F307138DF80130CCE79DF80130022220
:10DE400062F3030362F307138DF80130C2E79DF814
:10DE50000430012161F3030361F307138DF80430EB
:10DE6000537B9DF8051001F0F0016FF307118DF859
:10DE70000510013B042B38D8DFE803F02E5A6570FB
:10DE80007B009DF80430012161F30303022161F35B
:10DE900007138DF80430E3E79DF80430012161F3A6
:10DEA0000303032161F307138DF80430D8E79DF8CD
:10DEB0000430022161F30303012161F307138DF89C
:10DEC0000430CDE79DF80430022161F3030361F3D0
:10DED00007138DF80430C3E79DF80530012161F385
:10DEE000030361F307138DF805309DF80630917A2E
:10DEF00061F3C3038DF80630D17A61F304138DF812
:10DF00000630117A61F30003927B002A14BF0222CB
:10DF1000012262F342038DF80630E36903B10C93EA
:10DF2000334604AA09A92846FFF737FE11B0F0BD11
:10DF30009DF80530012161F30303022161F307130A
:10DF40008DF80530D1E79DF80530012161F3030319
:10DF5000032161F307138DF80530C6E79DF80530FE
:10DF6000022161F30303012161F307138DF80530EA
:10DF7000BBE79DF80530022161F3030361F307134A
:10DF80008DF80530B1E7A5DF7047B5DF7047034670
:10DF900060B1C160F72202804280FB210171C28022
:10DFA0001722028100209872D87270470E207047A5
:10DFB00038B1A1F117039BB2E02B04D801800020F7
:10DFC00070470E2070470720704700008388002BA1
:10DFD00040F0A38010B582B00C460388112B4CD0C2
:10DFE00026D93A2B54D0552B4ED1C388C988172B2C
:10DFF00038BF17238B4228BF0B4623810020A07215
:10E00000FFF7C3FF002860D1E37A002B3CD1E3681F
:10E01000002B39D040F67722ADF800200022ADF871
:10E0200002202289ADF804206946204698472BE05B
:10E03000102B29D1C37B012B04BF0B88CB80C9884F
:10E0400023898B4220D20020FFF79DFF10B90123C6
:10E05000E37219E0112802D10123A37214E0FDF745
:10E06000A7F92E4B2E4A9B1ADB081B0402462D49AA
:10E0700043F00100FBF7ECFC06E0F723CB8017230D
:10E080000B8100238B72CB72A37A63BB02B010BDED
:10E090004389CA88934228BF1346172B38BF1723DA
:10E0A0000B81CA686AB1C97A59B140F67721ADF8D7
:10E0B00000100021ADF80210ADF80430694620468A
:10E0C00090470023E372A372DEE7FDF771F9134B6B
:10E0D000134A9B1ADB081B040246134943F0010054
:10E0E000FBF7B6FC90E7E1880020FFF74CFF20B972
:10E0F0000023A3720123E372C8E71128C6D0FDF7FD
:10E1000057F9064B064A9B1ADB081B0402460549D1
:10E1100043F00100FBF79CFCB8E77047F85C020095
:10E12000A85C0200AC640200E0640200B0DF70474B
:10E1300066DF7047037A03B9704710B504460021C3
:10E140004088FFF7F5FF10B90023237210BD112896
:10E1500002D062689047F9E701232372F6E760B1C5
:10E1600069B10278DE2A0CD00A684260DE220270B1
:10E170004FF6FF724280002070470E2070470E203D
:10E1800070470820704728B10278DE2A04D1418008
:10E19000002070470E2070470820704700295ED08D
:10E1A00030B585B00D4660B10A78DE2A09D1044643
:10E1B00082884B889A4206D00388012B0DD0512BC0
:10E1C00018D005B030BD0846FFF7B4FF2388112BE7
:10E1D00029D0512B0ED0012BF3D1237A012BF0D172
:10E1E000A2886B889A42ECD101232B722846FFF754
:10E1F000A1FFE6E7A0886B888342E2D1A379022BD6
:10E20000DFD1A37B03F0FD02042A14D0052BD8D163
:10E210000023009301930293039302228DF80020C0
:10E22000ADF8043013E0A2886B889A42C9D14FF64A
:10E23000FF736B80C5E70023009301930293039360
:10E2400002238DF800304FF4C073ADF804306946F6
:10E25000FFF76CFF0028B4D06A689047B1E77047B9
:10E2600070B50646064C04F1100501E0AC4206D03C
:10E2700054F8043B002BF9D030469847F6E770BDC0
:10E28000E43100204388033300EB8303994209D330
:10E2900082884FF6FF739A4206D00088B0FA80F069
:10E2A00040097047022070470120704768B101683B
:10E2B000094A91420BD14068084B984209D001337A
:10E2C00098420CBF012003207047032070470320B1
:10E2D00070470020704700BFDEC0ADDEFE011EF1BA
:10E2E000033080B240F2FD3398422AD810B4174B65
:10E2F0001B7843B9154A13895289134403449BB2CE
:10E30000B3F5806F10D3114B1B7DE3B90F4A938B8C
:10E31000D28B134403449BB2B3F5806F28BF072010
:10E3200012D201231C4601E000231C460B80074B40
:10E33000A200111903EB81014B8918444881002088
:10E3400002E009207047072010BC704718320020F7
:10E3500008B5124B5B8803EB8301114A02EB810283
:10E36000D26872B90D4A0421117003EB83030C4982
:10E3700001EB83010023012249680A4801F0B4F847
:10E3800008BD064B05221A70074902238B80002323
:10E3900001220968034801F0A7F8F1E7FC310020E9
:10E3A0001832002000250020E032002000B583B0A4
:10E3B000002300930823044A04490968044800F034
:10E3C000D3FF03B05DF804FB2C650200E0320020AF
:10E3D0000025002000B583B0002300930823044AE1
:10E3E0000146044800F0C0FF03B05DF804FB00BF25
:10E3F000246502000025002010B582B00C460023E1
:10E4000000930423094A0146094800F0ADFF50B9C2
:10E41000024604EB8404074B03EB840401232374BA
:10E42000104602B010BD0E22FAE700BF20650200C0
:10E43000002500201832002030B583B0094842681A
:10E44000094B9C881968538803339BB203250570D8
:10E45000002000909B0001EB8401044800F084FF41
:10E4600003B030BDFC310020E03200200025002048
:10E4700010B501460448FCF75BFA04461C22002153
:10E4800007F03FFB204610BDCC3200202DE9F843B9
:10E490000D46174600F5805600F1080402230B8054
:10E4A0004FF00109DFF8548020E0A368D8F800207D
:10E4B000934212D9C8F800300FE04FF480632B80EC
:10E4C0001AE031462046FFF7DDFE03460028ECD077
:10E4D0000FB187F80090022BEFD02B8803336288AE
:10E4E00013442B806388033304EB8304B44203D2C8
:10E4F0002368B3F1FF3FE4D1BDE8F8831032002078
:10E5000070B50E4600EB8000174B03EB80035B6891
:10E5100003F580550C6824B16388033304EB83044E
:10E5200019E003F1080416E03460012005E0638877
:10E53000033304EB83040EE0002070BD0020FCE7F1
:10E5400029462046FFF79EFE0128F0D043B2002B5B
:10E55000EAD00228F2D0AC42EED22368B3F1FF3FFA
:10E56000EED10020E9E700BF18320020F0B583B0FB
:10E5700042687AB1274BDB689A420BD3254B1B6963
:10E580009A4207D812F0030304D10589224C24894A
:10E59000A54217D00D46064600230B801F46019763
:10E5A00001A92888FFF7ACFF014658B3019B9C687E
:10E5B00032689442F4D17360174B1B89338108464B
:10E5C00003B0F0BD05689468A542E3D113484068E4
:10E5D000824203D900F5805082420BD30F488069F4
:10E5E00082420AD900F58050824238BF012202D30C
:10E5F0000A2303E000220A8000E00A23B3FA83F131
:10E600004909DCE72B8801339BB22B80012BC6D94B
:10E61000D5E700BF00250020FC3100201832002083
:10E620002DE9F047244C2478002C3DD0002A3DD021
:10E63000002B3DD09C88012C3CD81D4617468846AF
:10E640000646DFF87C904FF0000A07E0C5F800A00E
:10E65000AC880134A4B2AC80012C23D804EB840430
:10E6600019F82430002BF3D12946A888FFF748FF7A
:10E670000028EBD02B681EB1998832889142F3D1E3
:10E68000B8F1000F04D01988B8F800209142EBD1FE
:10E690009B683B602B687B60084B1B893B8100209B
:10E6A000BDE8F0870A20FBE70220F9E70520F7E73D
:10E6B0000520F5E70A20F3E7F4310020FC310020C3
:10E6C0001832002008B5064B191D5888FFF718FFAF
:10E6D00010B1FFF7B1FE08BDFFF73AFEFBE700BF40
:10E6E000FC3100202DE9F04788B00446A24DDFF848
:10E6F000AC82A24F66E241463846FCF753F92860E7
:10E7000064E234B93379032B5BD8DFE803F01907EF
:10E710002F3A9B4B00225A600124C1E0994B1B7891
:10E72000022B16D0974B1B7D022B08BF012111D065
:10E73000934B01221A7000225A6041F61D54AFE03B
:10E7400001233371FFF732FE00283AD108B0BDE84B
:10E75000F08700218B4B8A005018002403F82040DA
:10E7600003EB80035868FFF735FEEDE700233371B4
:10E77000854902228A8001220968844800F0B4FE9B
:10E78000E2E74FF0000986F804907F4C2068FFF71D
:10E7900021FED4F800E07E4B5E88DFF8E8A1B200ED
:10E7A00093190AEB830359682160C3F804E0B4F8B5
:10E7B00004C0A3F808C00223A38032440AF82290C0
:10E7C000C2E76F4B00225A600E2469E0B6F814903D
:10E7D00094B909EB89036B4901EB83031C895B68DE
:10E7E00003EB8404B37D062B00F2B480DFE803F072
:10E7F0002C94708421A6B400B37D022B09D909EBB7
:10E800008902604B03EB8202F388033311890B44C6
:10E8100013815C4A4FEA890101EB090002EB800099
:10E82000F388C3F57F43FD334289134443810124B8
:10E8300036E0584800234360B36903605649FFF748
:10E8400095FE002800F000820223B3750023009398
:10E850000423F21821464D4800F086FD00283FF4BD
:10E8600075AF0E24B37D022B09D909EB8902454B04
:10E8700003EB8202F388033311890B441381414A6D
:10E880004FEA890101EB090002EB8000F388C3F530
:10E890007F43FD33428913444381002C3FF456AF3C
:10E8A0000023039305930693079341F61D539C425F
:10E8B00008BF002404942A681378023B042B00F25A
:10E8C0007081DFE813F063019701AA01B601BD0171
:10E8D0003369002B14BF03230123B3750023009376
:10E8E000042306F10C0204F10801284800F03CFD65
:10E8F00000283FF42BAFB4E70123B375F3883269E6
:10E90000002100919B0004F10C01204800F02CFD37
:10E9100000283FF41BAFA4E7032A0CBF05230623FE
:10E92000B37500230093042306F10802E118174889
:10E9300000F01AFD00283FF409AF92E70623B375F3
:10E94000154B1988134B5868FFF756FD04460028ED
:10E9500088D1FBE60F2485E741F61D5485E7002C9E
:10E9600040F074813379012B34D05AB2C2B1022BFA
:10E9700000F005810F2493E714320020CC320020F0
:10E98000F431002018320020E03200200025002061
:10E99000FC310020D8310020EC3200200C32002065
:10E9A00002233371002304930593F36803930DF15D
:10E9B0000A0103A8FFF7DAFD08B90A246DE70498F5
:10E9C0008388F38003883381BDF80A10FFF714FDB4
:10E9D000044662E7A34B03AA0021B01DFFF720FE07
:10E9E000044658B99F4B99880498FFF705FD0446E3
:10E9F0000A287FF452AF41F61D5451E70822002146
:10EA0000984807F07EF841F61D530A2C08BF1C46B3
:10EA100046E7002C40F01C81934B1B7B6BB1924B63
:10EA200000221A731B78013B062B00F2AD80DFE851
:10EA300003F022509EA2AB6978008B4B1B78072B0A
:10EA40007AD8DFE803F00479793C4A6B6B75864B22
:10EA50001A8901321A8100225A801A7383490A786E
:10EA6000B2FA82F252099A720A7DB2FA82F252091D
:10EA7000DA7201221A707C4B9B7A4BB17A4B0022DE
:10EA80009A727A4BDB681BB9784B1B7C002B67D1E1
:10EA9000754BDB7A5BB1744B0022DA72734B1B6AE5
:10EAA0002BB9724B93F824300122002B59D16E4BB5
:10EAB00000221A705A805A6041F61D54F0E66C49E3
:10EAC000694A50688B880333408803448B80022353
:10EAD0001370FFF7F7FD0446DFE6654BD3F800E05F
