:020000021000EC
:1090000000600020759301005D9301005F930100F3
:10901000619301006393010065930100000000006B
:109020000000000000000000000000006793010045
:1090300069930100000000006B9301006D93010033
:1090400005A601006F930100E1AA01006F930100E2
:109050006F9301000000000001A9010005AC0100B0
:1090600029B2010041B201006F9301006F9301002A
:109070006F9301006F9301006F9301006F930100E4
:109080006F930100F59401006F9301006F9301004D
:10909000B59501006F930100810802006F930100F4
:1090A0006F9301006F9301000000000000000000BA
:1090B0006F9301006F9301000000000000000000AA
:1090C00000000000000000000000000000000000A0
:1090D0000000000000000000000000000000000090
:1090E0000000000000000000000000000000000080
:1090F0000000000000000000000000000000000070
:10910000000000000000000000000000000000005F
:10911000000000000000000000000000000000004F
:10912000000000000000000000000000000000003F
:10913000000000000000000000000000000000002F
:10914000000000000000000000000000000000001F
:10915000000000000000000000000000000000000F
:1091600000000000000000000000000000000000FF
:1091700000000000000000000000000000000000EF
:1091800000000000000000000000000000000000DF
:1091900000000000000000000000000000000000CF
:1091A00000000000000000000000000000000000BF
:1091B00000000000000000000000000000000000AF
:1091C000000000000000000000000000000000009F
:1091D000000000000000000000000000000000008F
:1091E000000000000000000000000000000000007F
:1091F000000000000000000000000000000000006F
:10920000354936480A1A02D0072291438D4634491F
:1092100034480A1A06D00722914381F309880222B2
:1092200082F3148830483149314A00F044F831481B
:109230003149324A00F03FF831483249324A00F0B1
:109240003AF832483249334A00F035F83248334967
:10925000334A00F030F833483349344A00F02BF8F1
:1092600033483449344A00F026F83448344900225F
:1092700000F02CF833483449002200F027F8334836
:109280003349091A082902DB002202604160314A91
:1092900090471F481F49884205D00268043003B434
:1092A000904703BCF7E700208646EC4600200021EB
:1092B000294A9047FEE7884207D0521A05D0037822
:1092C00001300B700131013AF9D17047884202D068
:1092D00002700130FAE7704700600020005800205B
:1092E00000600020006000203050020014250020A3
:1092F0008C250020C0930100C0930100584B020050
:10930000305002001425002014250020F44B0200E8
:10931000F44B0200F44B0200F44B0200F44B020049
:10932000F44B0200F44B0200F44B020030500200F8
:10933000A85002008C2500208C2500208C250020C0
:10934000D4410020D4410020D8410020D841002041
:10935000D84900208B93010029250200FEE7FEE793
:10936000FEE7FEE7FEE7FEE7FEE7FEE7FEE7FEE7D5
:10937000704700BF0C4880470C484FF007018843F6
:1093800085460B488047FFF73BBF0A480A490B4A0E
:10939000884207D0521A05D0037801300B70013192
:1093A000013AF9D17047000071930100006000207C
:1093B00049A10100E04B02000025002014250020F7
:1093C00000487047CC41002000B585B000210191D4
:1093D0000291039001AA44F2010000F003F805B0E5
:1093E0005DF804FB72B6094B1B6813F0010F00D047
:1093F00000BEBFF34F8F0649CA6802F4E062054B16
:109400001343CB60BFF34F8F00BFFDE7F0ED00E0EB
:1094100000ED00E00400FA0570B50E4B4FF4003289
:10942000C3F880200C4D4FF48033C5F84833C5F89D
:10943000083301266E60094C34434FF43C60A0476A
:10944000AE600025064B1D604FF43C60A047054B05
:109450001D7070BD00E100E000100140F44B0200FF
:10946000A8260020992600200B4A53780133DBB24E
:1094700092789A4208BF0023074A12789A4208D08D
:1094800003700548437803EB430300EBC30004304B
:1094900070470020704700BF8C25002030B583B096
:1094A00004460D4600238DF806300DF1060000F04D
:1094B000CDFA0DF10700FFF7D7FF88B105704460C2
:1094C0009DF80720094B5A709DF8060000F0EAFA53
:1094D000074B4FF48012C3F80021002003B030BDC9
:1094E0009DF8060000F0DEFA0420F7E78C25002046
:1094F00000E100E0F8B5284B0022C3F84021C3F892
:109500004421C3F84821C3F84C21C3F80021C3F813
:109510000421224B1B68002B31D002F1804202F55E
:109520008832D2F804451E4A1268A41A24F07F44F7
:109530001A68944212D30026374608E01F745A690D
:10954000986990475DB12A682B46A24207D8A41AB1
:109550001644DD691A7C002AF4D0EFE70026114B8F
:109560001B78114A12789A420AD00E4B1A780F4B88
:1095700043F822600E4B4FF48012C3F80021F8BD6F
:109580000133DBB2022B02D0064A1370EDE7054B24
:1095900000221A70E9E700BF00100140AC2600204D
:1095A000A8260020A5260020A42600209C26002016
:1095B00000E100E02DE9F04F83B07F4B1B787F4A3C
:1095C00012789A4243D07E4A16680133DBB2022BEE
:1095D00014D0794A1370784B1A787A4B53F82210CA
:1095E000731823F07F43764A1360774B1B6800247F
:1095F00025462046A6464FF0010C0DE06E4B00229A
:109600001A70E8E70CB170480360521A1A6001231F
:1096100001931EE064463B4693B11A688A42F1D832
:10962000891A1044C3F800E0DF69DC68002CF1D02F
:10963000321822F07F425A609C60DD611D46E9E7E6
:1096400014B1614B00221A600123019301E000254F
:1096500001955D4BD3F800B04FF000095B4B43F030
:10966000010A51E05A4A002111707DE0564B1D68F5
:10967000002D49D000232B74ED69002DFBD1524BF6
:1096800000221A6040E0504B1F68002F00F01F813D
:10969000BC420AD0B846D8F81C60002E00F01781F2
:1096A000B44200F00381B046F5E73E46B846FB6998
:1096B000454A1360002B40F0FC800123454A93602B
:1096C0003F4A00211160444A13704FF43C60D04778
:1096D000EFE05B1A23F07F43A268934234BFD31AB2
:1096E000002323601FE01C600EE001461A46374647
:1096F000BE1AC86928B10368B342F6D3DB1B134412
:1097000003602660E061CC610DB32C46ED696168B1
:109710002B4B1B68CA1A22F07F4230488242D8D8AD
:10972000A3681A44226000236360A36001222274AC
:10973000E361254B19680029D5D027680A6897424C
:10974000D6D8D21B0A60E1611F4B1C60DCE7204ABF
:10975000137852789A4243D05A1CD2B21C490A70EC
:10976000897891423FF47EAF03EB4302184901EB45
:10977000C20294681279022A85D0032A3FF476AF98
:10978000012AC1D1227C002ABED111495E00F21803
:1097900001EBC202D06860601069A0605269E260AB
:1097A000334401EBC3018B69A3610B4B1B78002B86
:1097B000ADD000236360AAE7A4260020A5260020E0
:1097C000A82600209C260020AC260020F44B020096
:1097D0008C2500200010014098260020FEFF7F000D
:1097E000B9F1000F06D13B4B1B689B4502D1019B91
:1097F000002B34D0374B1B68002B54D01F68364BDE
:10980000D3F80455354B1C682E1B26F07F460336D3
:10981000334B1B784BB3B7422CBFE419A41924F087
:109820007F442D4BC3F84045D3F804355B1B23F030
:109830007F430333641B24F07F44A3420FD9264B9C
:10984000D3F80425C3F84025264B4FF43C6043F081
:1098500001039847244B4FF40032C3F80021234BF7
:1098600000221A7003B0BDE8F08F03F1804303F5C6
:1098700088334FF48032C3F84423C3F804231A4AD0
:109880004FF40031C2F8801111604FF00108C3F8A5
:109890000080144B4FF43C6043EA08039847104B98
:1098A00083F80080B7E7FFF7B7FDD8E7B0453FF48E
:1098B000FEAE3168F369C8F81C3013B11A680A4467
:1098C0001A60044B1B689F4218BF4FF00109002328
:1098D000237419E7AC26002000100140A8260020C0
:1098E00099260020F44B020000E100E098260020B9
:1098F00010B5FFF791FD114B0020187058700B2226
:109900009A700F4B18600F4B18700F4B18700F4B5D
:109910004FF48012C3F88021C02183F814131A6019
:1099200002F18042A2F56F221F24C2F8084583F895
:109930001113D2F80425064B1A6010BD8C250020A7
:10994000AC260020A4260020A526002000E100E08F
:10995000A8260020094B9B783BB142B148B103686F
:10996000187C40B959745A61704708207047072025
:109970007047072070470820704700BF8C250020E3
:10998000244B9B78002B36D0002836D0042936D9BA
:109990004369002B35D0F0B583B016460D4604461A
:1099A000437C012B0CBF0F46002700238DF80730A6
:1099B0000DF1070000F04AF80DF10600FFF754FD25
:1099C00008B3012202704460134AD2F80425826071
:1099D000C560076146619DF806200E4B5A709DF8E0
:1099E000070000F05FF80D4B4FF48012C3F8002120
:1099F000002003B0F0BD0820704708207047072002
:109A00007047082070479DF8070000F04BF80420CD
:109A1000EFE700BF8C2500200010014000E100E0CE
:109A200008B5094B9B7843B148B143694BB100235A
:109A300003740221FFF732FD08BD0820FCE708206F
:109A4000FAE70820F8E700BF8C250020EFF310822A
:109A500072B6114B9B68C3B930B40F4901238B60B8
:109A60000E4BD3F880400E4D2C400C60C3F8805054
:109A7000D3F884404C604FF0FF31C3F884100023CA
:109A8000037002B962B630BC7047012303700AB993
:109A900062B67047704700BFB026002000E100E0CA
:109AA000FC06FFBD084B9B686BB160B9EFF31081FA
:109AB00072B6054B1868054A10605868506000225D
:109AC0009A6001B962B67047B026002000E100E05C
:109AD00079B110B40C46B2FBF3F103FB112189B24A
:109AE00049B90460416081608281C381084610BC2D
:109AF00070470E2070470920F9E782B050E8022F26
:109B0000C188B2EB324F4FF0000317BF92B241EA67
:109B1000014142EA014104E04268B2EB324F08BF22
:109B2000012340E80212002AE8D18DF807309DF8A1
:109B30000730DBB2002B14BF0020112002B07047A9
:109B400030B482B050E8013F9DB2C4892544848975
:109B5000A54228BF2D1B0489A54202BFBFF32F8F4A
:109B6000002207E0C5EA030540E80154002CE9D1D2
:109B70004FF001028DF803200193019B0B609DF8CB
:109B800003302BB10B880068184402B030BC70471A
:109B90000020FAE70A884B889A4201D000207047DB
:109BA00050E8012FC2EA024240E80123002BF7D11E
:109BB0000120704730B482B050E8023F1FFAA3F58D
:109BC000C488A54202BFBFF32F8F00220DE0C489D5
:109BD00025448489A54228BF2D1BC3EA054540E8DA
:109BE0000254002CE8D14FF001028DF803200193BC
:109BF000019B0B609DF803302BB14B880068184423
:109C000002B030BC70470020FAE70A884B889A42BD
:109C100001D00020704750E8022FC2EA224240E8FB
:109C20000223002BF7D10120704708B501F01F0275
:109C30004B090121914000EB830000F06FF808BD53
:109C400010B501F01F044B090121A14000EB830076
:109C500000F059F8E04000F0010010BD08B501F037
:109C60001F0301229A404B09D14300EB830000F00F
:109C700060F808BD4B0950F8230001F01F01C840EF
:109C800000F0010070472DE9F04705460F4601F14D
:109C9000FF3A4FEA5A1A4FF0000904E009F10103B4
:109CA000CA4522D0994605EB890855F82940E44376
:109CB00094FAA4F4B4FA84F41F2CEFD84FEA4916AE
:109CC0003444A742EAD921462846FFF7B9FF68B1D4
:109CD000D8F80040E44394FAA4F4B4FA84F41F2CB6
:109CE000DCD83444A742EED8D8E73C462046BDE84D
:109CF000F08750E8002F0B4640E8003C9CF0000F36
:109D0000F7D11046704750E8002F42EA010340E8BF
:109D1000003C9CF0000FF6D11046704750E8003F21
:109D200043EA010240E8002C9CF0000FF6D11046F7
:109D3000704750E8003F03EA010240E8002C9CF025
:109D4000000FF6D11046704750E8002F02EB0103D8
:109D500040E8003C9CF0000FF6D11046704750E8F8
:109D6000003F03EB010240E8002C9CF0000FF6D10D
:109D70001046704750E8003FA3EB010240E8002C7A
:109D80009CF0000FF6D11046704708B50121FFF78F
:109D9000BAFF08BD41DF704710B50024054B1C70A9
:109DA000054B1C60BFF35F8F0449054800F015F8B0
:109DB000204610BDC4260020C8260020FC4B02000F
:109DC000BC26002008B506F03FFD18B920BF40BFF3
:109DD00020BF08BDFFF7DEFFFBE701600B684360B3
:109DE0004A68934204BF002343607047436843B10D
:109DF000026891680B4443605268934204BF002399
:109E00004360704729DF704728DF70470268936816
:109E100033B300B587B000230093029303930493F8
:109E200001918368059303793BB1012B0FD09368AF
:109E30006846984707B05DF804FB01238DF80030B1
:109E400003690293C368039343690493EFE7022312
:109E50008DF80030C3681B03029343690493E6E75F
:109E6000704708467047002070470000024B187A80
:109E7000003018BF0120704768270020034B0122E3
:109E80005A74187AB0FA80F04009704768270020A9
:109E900008B510461A460AF031FA002008BD000045
:109EA00008B51422002104480AF051FA0348FFF7CC
:109EB00024FE002008BD00BF68270020582700208E
:109EC00008B5094B43600948FFF75FFF08B1002060
:109ED00008BD06F0B9FC054B18741C238C220449FC
:109EE0000448FFF7F5FDF2E7084C02006827002060
:109EF000CC2600205827002008B5831E012B0ED841
:109F0000274B1B7A5BB1022B03D1022808D0032810
:109F10002CD0234B5B7C002B3ED100F049F808BDD0
:109F2000204B18681E4B0022DA60037953B1012BD5
:109F3000EFD103690133036142699A4214BF0023E0
:109F400001230DE043698269991AB1F5805F94BFDE
:109F5000521802F580528261934214BF00230123FC
:109F6000002BD6D000210E4B19720EE00C4BDB6893
:109F70000133082B02D80A4AD360CAE7084B0022F3
:109F8000DA601A72074B18680D21FFF73FFF064988
:109F90000648FFF73AFEBCE706F042FCBFE700BF09
:109FA00068270020802700207C27002058270020D9
:109FB00010B5264B1B7AABB1244B02221A72244BEC
:109FC0001C682379D3B1012B31D003212046FFF740
:109FD0001DFF1E4B00221A725A601E491E48FFF7D1
:109FE00014FE10BD1B491C48FFF7E4FD184B186018
:109FF0000028E1D1154B00225A60F2E7A36962699B
:10A00000D21AB2F5805F28BF4FF480529208E168FF
:10A010002069012A38BF012219441844FFF7F2FED3
:10A0200058B11128D1D1094B01221A72D9E7E06841
:10A0300023691844FFF7E8FEF2E7044B1B7C002B72
:10A04000CFD100210220FFF757FFCAE76827002081
:10A05000802700207C2700205827002008B500F02A
:10A06000FD03012B00D008BD054B00225A740128C6
:10A0700014BF002001201874FFF79AFFF3E700BF18
:10A080006827002008B50548FFF77FFE10B9044B8C
:10A090005B7C03B108BDFFF78BFFFBE76C2700205B
:10A0A000682700202DE9F04182B080460D46164613
:10A0B0001F4601A90E48FFF743FDB0B104461C221C
:10A0C00000210AF044F901232371C4F80080A7603D
:10A0D0002D0BE560666101A90548FFF75BFDFFF701
:10A0E000D1FF002002B0BDE8F0810420FAE700BFF4
:10A0F000582700202DE9F04383B081468846174653
:10A100001E4601A90F48FFF71BFDC0B104461C22E3
:10A1100000210AF01CF900252571C4F800900A9B63
:10A12000A360C4F81080E760666101A90548FFF7E5
:10A1300031FDFFF7A7FF284603B0BDE8F0830420F8
:10A14000FAE700BF58270020A94B1B78062B00F028
:10A150008E80A84B1B68C3F34233A74A1360A44BFD
:10A160001B78062B00F0AE804FF080430022C3F82E
:10A170000C21C3F81021C3F838259D4B1B78062B02
:10A1800000F0B3804FF08052D2F804149B4BC3F818
:10A190002015D2F80814C3F82415D2F80C14C3F80B
:10A1A0002815D2F81014C3F82C15D2F81414C3F8DB
:10A1B0003015D2F81814C3F83415D2F81C14C3F8AB
:10A1C0004015D2F82014C3F84415D2F82414C3F86B
:10A1D0004815D2F82814C3F84C15D2F82C14C3F83B
:10A1E0005015D2F83014C3F85415D2F83414C3F80B
:10A1F0006015D2F83814C3F86415D2F83C14C3F8CB
:10A200006815D2F84014C3F86C15D2F84424C3F88A
:10A21000702503F54053FB22C3F81825744B1B78B7
:10A22000062B00F08F804FF08043D3F8003413F0FA
:10A23000010F05D04FF080436FF00102C3F80024F6
:10A240006F4B1B68062B00F095804FF01023D3F85E
:10A250000032002BC0F299804FF01023D3F8043263
:10A26000002BC0F29280674B674A1A607047674BB9
:10A270001B6813F00F0F14D1654B1B6803F0F0023D
:10A28000302A03D003F0E003402B0AD1614B1B6856
:10A29000C3F30423604A1360554B1B78062B7FF4ED
:10A2A00058AF5A4B1B6813F00F0F7FF452AF584B47
:10A2B0001B6803F0F003302B7FF44BAF574B584A29
:10A2C0001A6046E7514B1B6813F00F0F7FF44CAF39
:10A2D0004F4B1B6803F0F003302B7FF445AF514A1E
:10A2E000D36823F08073D3603EE7484B1B6813F0BC
:10A2F0000F0F0DD1464B1B6803F0F003302B0DD12F
:10A30000494B03221A603A4B1B78062B7FF43AAF75
:10A310003E4B1B6813F00F0F7FF434AF3C4B1B68B0
:10A3200003F0F003302B7FF42DAF404B05221A6071
:10A33000783301221A60703B00221A60043B3F22EE
:10A340001A601FE7314B1B6813F00F0F7FF46BAFE0
:10A350002F4B1B6803F0F002302A04D003F0E00317
:10A36000402B7FF460AF324B1B6803F04F03314A40
:10A37000136058E7304B1B68062B7FF466AF2F4AFB
:10A38000136843F4806313605FE72D4B0122C3F829
:10A3900004251A46D2F80034002BFBD04FF01023CE
:10A3A0001522C3F80022264AD2F80034002BFBD035
:10A3B0004FF010231522C3F80422214AD2F80034AA
:10A3C000002BFBD01E4B0022C3F804251A46D2F8FE
:10A3D0000034002BFBD0BFF34F8F1A49CA6802F438
:10A3E000E062194B1343CB60BFF34F8F00BFFDE713
:10A3F000E00F00F0440200103C05004000C00040A7
:10A4000030010010142500200090D003E40F00F06C
:10A41000E80F00F0240300104035014074C00740ED
:10A420000DF0ADBAF0ED00E0A00500401056004080
:10A4300058020010E40E0040340100103C170040A8
:10A4400000E0014000ED00E00400FA0538B538B145
:10A45000012813D10E4B01229A701C46154613E0B9
:10A460000B4B01225A701C46002504E01A68A260BA
:10A470005B6828469847A368002BF7D138BD1A6857
:10A4800022615B68284698472369002BF7D1F5E7DE
:10A490008427002000B1704738B5074B01225A705D
:10A4A0001C46002504E01A68A2605B6828469847AD
:10A4B000A368002BF7D138BD8427002010B50D4BC1
:10A4C0001B7813B18524204610BD0A4B00229A60E8
:10A4D0005A601A61DA60084800F060F8044606F035
:10A4E000B3F918B1034B01221A70ECE700F066F8DB
:10A4F000F8E700BF842700204DA4010000B583B019
:10A5000000238DF807300DF10700FFF79FFA094B84
:10A51000DA68013ADA60DB6833B19DF80700FFF7CB
:10A52000C1FA03B05DF804FB00F05EF8014B0022B5
:10A530009A70F2E78427002000B583B001280BD081
:10A5400043B223B103281FD003B05DF804FB114BC5
:10A550000122C3F88020F7E700238DF807300DF1C2
:10A560000700FFF773FA0C4B1B7853B10A4BDA68FC
:10A570000132DA6001229A709DF80700FFF792FA23
:10A58000E2E7FFF79BFFF1E700F018F8FFF7B6FFEF
:10A59000DAE700BF00E100E084270020064B1B79CA
:10A5A0003BB9054A9371106001211171537118462E
:10A5B00070478520704700BF98270020094B1B6813
:10A5C00013F0010F07D1074BC02283F800230122AB
:10A5D000C3F880211A604FF080430022C3F8182589
:10A5E000704700BF00E100E0054B01221A604FF008
:10A5F0008042D2F8183413F4803FFAD1704700BF7C
:10A600000C00004000B585B0294B1B6893B1284B66
:10A6100000221A601B680093009B4FF080430122C8
:10A62000C3F80823234B5B7923B9224B5A711B686B
:10A6300000209847204B1B6873B11F4B00221A6003
:10A640001B680193019B4FF080430222C3F808234B
:10A65000184B1B6801209847184B1B6873B1174BA8
:10A6600000221A601B680293029B4FF08043102265
:10A67000C3F808230F4B1B6802209847104B1B6838
:10A6800093B100230F4A1360A2F6283213601268B8
:10A690000392039A4FF080420821C2F80813054A3A
:10A6A000937113680320984705B05DF804FB00BF61
:10A6B00000010040982700200401004010010040E4
:10A6C0000C010040340C0040054B4FF0FF3243F8C2
:10A6D0002020072803D91844FF2380F8443070470E
:10A6E000A02700201B4B93F8533083BB10B582B0DA
:10A6F000184A02F12B034B32FF2103F8011F93424A
:10A70000FBD10024E0B2FFF7DFFF01340B2CF9D1BD
:10A71000104C0422002104F14F0009F018FE0E4BEA
:10A72000C02283F806234022C3F880211A600B4B15
:10A73000002018601B680193019B094B4FF00042F9
:10A74000C3F80423012384F8533002B010BD08205D
:10A75000704700BFA027002000E100E07C610040BE
:10A7600000600040034B93F85300003018BF0120F5
:10A77000704700BFA02700203C4B034493F92C30C6
:10A78000B3F1FF3F01D00820704770B48B780BBB4A
:10A79000364B0344FE2283F82C204B78012B57D0F4
:10A7A000012383404FF0A042C2F80C3500F5E0725F
:10A7B0004FF0A043032143F822102D4A20FA01F361
:10A7C00000F0070101208840D15C0843D0540020EC
:10A7D00070BC7047254B1B68B3F1FF3F3ED0254A44
:10A7E000012352F8044BB4F1FF3F04D00133082B8E
:10A7F000F7D10420ECE75CB21C4A151885F82C4010
:10A80000002542F82350B4F1FF3F08BF0420DFD0F9
:10A810000A784D78A30003F1804303F5C043D3F8D1
:10A82000104524F4981424F4F854C3F81045D3F8D0
:10A830001065120402F440322C0504F48014224303
:10A84000040204F4F85422433243C3F81025A4E769
:10A8500083404FF0A042C2F80835A7E7034B1A180F
:10A86000002482F82C401C60D2E700BFA027002003
:10A87000EF270020A427002038B50446164B0344D8
:10A8800093F82C00072819D9134B1A19FF2182F8C5
:10A890002C1004F0070101228A404F33E108585C74
:10A8A00010420AD004F5E0744FF0A040022540F8B1
:10A8B0002450585C20EA02025A5438BDFFF704FFC6
:10A8C000054B234493F92C3003F5A273034A00216E
:10A8D00042F82310D8E700BFA02700200060004006
:10A8E000012303FA00F04FF0A043C3F808057047B6
:10A8F000012303FA00F04FF0A043C3F80C057047A2
:10A900002DE9F04F87B000250595684B0122684E70
:10A910002F46684C03E052000433A3420CD0196860
:10A920000129F8D1D6F804131142F4D01F60196838
:10A93000039103991543EEE75F4B1B68012B07D08A
:10A9400015F0FF0F14D1002D2FDB07B0BDE8F08FFD
:10A95000594B00221A601B680493049B4FF0A043DC
:10A96000D3F81035059315F0FF0F1ED045F00045C4
:10A9700001260024514F03E076000134082CE2D078
:10A980002E42F9D0A30003F1804303F5C043D3F86E
:10A990001005D3F8101557F82430002BECD0C1F374
:10A9A0000141C0F304209847E6E7002301934FF0EC
:10A9B000FF330293414D05F14F064FF0020905F1B7
:10A9C0004C044FF0000801270FE003290BD10DF1D3
:10A9D000040E1EF802C04CEA030C0EF802C025E07B
:10A9E000BEF1030F4DD0B4423BD014F9011BB1F1BD
:10A9F000FF3FF8D0C9B221F0C000C20801F0070340
:10AA000007FA03F30DF1180C94441CF810CC1CEA5F
:10AA1000030FE8D0890905EB000C9CF92CC055F810
:10AA20002CA0BAF1000FD0D00329D0D04FEA800C6F
:10AA30000CF1A04CDCF800E7CEF3014E0DF1180B41
:10AA40005A4412F8042C1A42CAD0BEF1020FCAD1DD
:10AA5000032904D0BAF1000FC5D0D047C3E70A4696
:10AA600012E0B8F1000F3FF470AF4FF0A043D3F8FD
:10AA70001035059A9A423FF468AF0593019B029303
:10AA80009DE70329E6D14A46DCF8003723F440333A
:10AA9000CCF80037DCF8003743EA0243CCF8003743
:10AAA00008F101085FFA88F8D4E700BF00610040B0
:10AAB00000600040206100407C610040A027002031
:10AAC00000B585B001238DF800308DF80810019293
:10AAD000436801686846984705B05DF804FB0000CC
:10AAE00030B589B0454BD3F82431002B3ED0434BD1
:10AAF0000022C3F82421D3F82411029102990221E3
:10AB00008DF81010D3F88014C3F880140791D3F88F
:10AB10003C358DF818303A4BD96805919A61DA6165
:10AB20005A68196804A89047344BD3F844315BB194
:10AB3000324B0022C3F84421D3F844310193019BE6
:10AB40002F4B9B69002B3FD12C4BD3F820315BB1AD
:10AB50002A4B0022C3F82021D3F820310093009B18
:10AB6000274B5B69002B38D109B030BD234BD3F89C
:10AB70001031002BD8D0214B0022C3F81021D3F87C
:10AB800010210392039AD3F83C151D4B9B699942FF
:10AB9000CAD11B4BDB6983B11948C268174DD5F880
:10ABA000004224F02004C5F8004283610369C360B9
:10ABB0000023C361FFF784FFB6E7114800238361D8
:10ABC000C268FFF77DFFAFE70D4882610B4BD3F8FA
:10ABD0003C15C268FFF774FFB6E7084BD3F84C3555
:10ABE0008DF810208DF81830054B996805915A6141
:10ABF0005A68196804A89047B6E700BF00200040D3
:10AC0000F4270020F0B589B0714B1B68002B00F0D1
:10AC1000A4806F4B00221A601B680093009B6D4B51
:10AC200093F82E30002B7BD06A4B93F82F30002BFB
:10AC300040F0B880684B1B68002B00F09480664B96
:10AC400000221A601B680193019B624A538B92F8A1
:10AC50002D108AB293421BD99B1A9BB25D48438345
:10AC60000289D21A436803EB42035C4AC2F82C36CD
:10AC7000C2F83016564B00221A601B680293029BE2
:10AC8000574B01221A606EE0524B00221A745DE0AD
:10AC90009342EFD14F4BDB685BB14E4A012082F803
:10ACA0002F00002050834D4AC2F82C36C2F83016CF
:10ACB000E0E7484B012283F82F2000225A83D9E78E
:10ACC000444B5C69002C6BD04FF0004500271E46BA
:10ACD00001E0002C64D0B4FA84F325FA03F224EAEC
:10ACE000020446339B0003F1804202F5E042116802
:10ACF0000029EED0176012680492049A01228DF8A0
:10AD00001420A3F58C73DA088DF8182083F004035F
:10AD1000C3F380038DF81930336805A89847D8E746
:10AD200000238DF814302B4B5A6806921A89ADF81F
:10AD30001C20DA68002AA7D0264B198B59835A6049
:10AD400019810022DA60254B01221A60214C236808
:10AD500005A89847002384F82F301E4B93F82E3017
:10AD6000002B7FF467AF1F4B1B686BB11D4B00229C
:10AD70001A601B680393039B164B1A7402228DF80A
:10AD800014201B6805A89847174B1B68002B97D009
:10AD9000154A0023136012680592059A0D4A137430
:10ADA00009B0F0BD00238DF814300A4B5A680692A2
:10ADB0001A89ADF81C20DA68002A3FF465AF054B0C
:10ADC000198B59835A6019810022DA60BEE700BFEF
:10ADD00004710040182800200071004000700040FD
:10ADE000047000401071004014710040234B93F830
:10ADF0002C30002B40D110B483B0204B1960027866
:10AE00001F49C1F8F0254278C1F8F425C27883F8CB
:10AE10002E20012283F82C2000221A7483F82D2082
:10AE20005A6183F82F206FF00044C1F80843154C95
:10AE3000226024680194019C134C226022680092D5
:10AE4000009A82785201D2B2104880F807238022FB
:10AE5000C0F8802102600222C1F8042393F82E304A
:10AE600013B10122C1F80423054B0122C3F80025C8
:10AE7000002003B010BC704708207047182800203D
:10AE800000700040047100400071004000E100E0EB
:10AE90002F4B1B7C002B59D10B79012B4BD92C4B01
:10AEA00003EB40031B7F2BB9294A92F82D30013365
:10AEB00082F82D3000F10C02254B03EB4203CA79D6
:10AEC0001A710A7A5A714B781B0103F030038A78A1
:10AED000120202F4E06213430A7802F00302134301
:10AEE000CA78120302F4805213430A79120402F45E
:10AEF000E02213434A79120502F4801213438A793F
:10AF0000120602F080721343020102F1804202F540
:10AF1000E042C2F81835CB790A7A000100F180408E
:10AF200000F5E040C0F81425C0F810350B79012B6E
:10AF300006D900207047074B0022C3F80025AEE772
:10AF4000044B0122C3F800250020704711207047F0
:10AF50001828002000700040394B1B7C002B6DD15D
:10AF600030B482B0364A01241474364B0325C3F83A
:10AF70000853C3F82C16C3F8304692F82D30A3427C
:10AF80000DD900221146130103F1804303F5E0437C
:10AF9000C3F81415C3F810150132082AF3D100F1D3
:10AFA0000C02274B03EB42031A795B79000100F195
:10AFB000804000F5E040C0F81435C0F810250123AA
:10AFC000204A13600432136042F210731E490A686B
:10AFD0000AB9013BFBD11D4B00221A601B6801938B
:10AFE000019B194B1A601B680093009B144B93F84C
:10AFF0002D30012B0FD91249087F4C7F130103F12B
:10B00000804303F5E043C3F81445C3F8100501324B
:10B010000231082AF0D10A4B93F82E304BB1094B7C
:10B020000322C3F804230020054B187402B030BC7F
:10B030007047044B0222C3F80423F4E71120704741
:10B04000182800200070004004710040007100408A
:10B05000024B187C003018BF0120704718280020D0
:10B0600030B48CB244EA0244030103F1804303F597
:10B07000E043C3F81C4540008024844011F5006F74
:10B080001DD01C49451C4FF00043EB404D692B433C
:10B090004B61194BC3F804434023834040F2FF71D6
:10B0A0008A421AD013494FF0004222FA00F04A694E
:10B0B00002434A61104AC2F8043330BC70470D4D58
:10B0C000411C4FF0004323FA01F16B6923EA0103AD
:10B0D0006B61094BC3F80843DEE706494FF00042B5
:10B0E00022FA00F04A6922EA00024A61024AC2F8E2
:10B0F0000833E2E71828002000700040144B1B7C46
:10B100001BBB10B5124B03EB40031B7F2BB1104A46
:10B1100092F82D30013B82F82D3000F10C020C4BDF
:10B1200003EB420300241C715C71030103F18043B3
:10B1300003F5E043C3F81445C3F8104540F2FF722D
:10B140000449FFF78DFF204610BD1120704700BF56
:10B150001828002000F8FFFF38B5164B6FF00042AA
:10B16000C3F80823144B8022C3F88020134B01221C
:10B170001A6042F2107312490A680AB9013BFBD106
:10B1800000240C4BC3F800450E4B1C741D4605E013
:10B19000E0B2FFF7B3FF0134082C05D005EB440300
:10B1A0001B7F002BF7D0F3E7064B002283F82C20FF
:10B1B00038BD00BF0070004000E100E008700040B2
:10B1C00014710040182800206AB32DE9F04782B0BE
:10B1D0008846074600F5A075561EF6B200244FF4C7
:10B1E0008039A24604E0631C0435B44218D01C46E2
:10B1F000A00000F5A07080B22B68002BF3D0D7F828
:10B20000043309FA04F11942EDD0C5F800A02B6807
:10B210000193019BD8F80030D8F804109847E2E772
:10B2200002B0BDE8F087704708B504220249034820
:10B23000FFF7CAFF08BD00BF48280020008000407B
:10B2400008B5042202490348FFF7BEFF08BD00BF4E
:10B250005428002000900040032824D8012A07D059
:10B2600001290CD04BB2BBB102290ED00720704788
:10B27000012901D00022F3E700F10E02D2B200EB67
:10B2800040000A4B1A540020704700EB4000074B67
:10B29000184442700020704700EB4000034B1844F4
:10B2A0008270002070470720704700BF6028002090
:10B2B00008B5012202210020FFF7CEFF10B103469E
:10B2C000072813D1072202210120FFF7C5FF0346FB
:10B2D00008B107280AD10A2200210846FFF7BCFF5F
:10B2E000034618B1072814BF03460023184608BDBB
:10B2F00008B50388102B02D0112B2BD008BD1D4B95
:10B300001B6823B11B4A136801331360F6E701225F
:10B3100000210846FFF7A0FF034608B1072812D115
:10B32000072202210120FFF797FF034608B10728F3
:10B3300009D1042202210020FFF78EFF03460028D6
:10B34000E0D00728DED00C4A1268002ADAD018466E
:10B350009047D7E7074A1368013B1360002BCDD114
:10B36000FFF7A6FF0028C9D0034B1B68002BC5D0F0
:10B370009847C3E7702800206C2800206DDF7047D5
:10B3800079DF70477DDF704764DF70472DE9F04F4C
:10B3900085B00E9EBDF83CB0348801940488FCB1A1
:10B3A0009A461746884605464FF000094C4635E058
:10B3B000009011E00C2300930EE00C2300930BE0AF
:10B3C000B9F1000F08D03388013B019A9B1A9BB258
:10B3D000FF2B08D80AF80230009805B0BDE8F08FBE
:10B3E00000230093F8E70C230093F5E73288134419
:10B3F0005B45E2DC328852440DF10B0103A8FFF7F4
:10B40000C3FF0028D4D19DF80B3032881344338019
:10B410004FF0010901342B88A342D1DD6B6853F84A
:10B420002400039000220DF10B0103A8FFF7ACFFED
:10B4300000900028D0D19DF80B30BB42EAD1B9F181
:10B44000000FD3D13288134402335B45B2DC0132A2
:10B4500092B232800AF80280338801333380C9E720
:10B460002DE9F04182B0064617469846089CBDF883
:10B470002450019500940222FFF788FF034618B17B
:10B48000184602B0BDE8F0810195009443461022B1
:10B4900039463046FFF77AFF0346F1E72DE9F047DA
:10B4A00084B005460E461446B2F80090002313807F
:10B4B00090F82D30002B40F0B080AB78002B40F09E
:10B4C000D980EB78002B40F0F7806B68B3B122880D
:10B4D000D11C494500F2C58193F900100223B354F1
:10B4E000238801339BB223800A22F254238801333C
:10B4F0009BB22380F1542388013323802B89002BB6
:10B5000040F0F0802B8A002B40F0FB802B8B002B2F
:10B5100040F006812B6A002B42D021888A1D4A45C3
:10B5200000F2B5811A88052A40F2B381A2F6814063
:10B5300080B24FF27D37B84240F2AD81588805287D
:10B5400040F2AB81A0F68147BFB24FF27D3C674528
:10B5500040F2A5814FF6FF77BA4204D0B84202D03C
:10B56000824200F29E81052272542288013292B2F8
:10B5700022801221B1542288013292B2228019888D
:10B58000B018B154090A41702288023292B2228066
:10B590005B88B118B3541B0A4B7023880233238095
:10B5A0006F6A67B3BB88023321888A1C1A444A45F4
:10B5B00000F26781FE2B00F2668101337354238809
:10B5C00001339BB22380FF22F254238801339BB2C4
:10B5D00023803A88F118F254120A4A702088023007
:10B5E00080B22080BA8852B1B968002900F04D813C
:10B5F000304408F083FE2388BA881344238095F8EA
:10B600002C30002B40F09B802B78002B40F0DB800F
:10B610000023184604B0BDE8F087B9F1080F40F2E6
:10B62000448102A8FFF7AAFE03460028F1D123882F
:10B630000822F254238801339BB223801B22F25448
:10B640002088013080B2208006220DF109013044AB
:10B6500008F054FE238806339BB223809DF808200F
:10B6600012F0FE0F0CBF00220122F2542388013396
:10B67000238022E7238804334B4500F2148102A87B
:10B68000FFF77EFE03460028C3D123880322F2542D
:10B69000238801339BB223801922F254238801337B
:10B6A0009BB22380BDF80820F118F254120A4A70A8
:10B6B00023880233238004E72288D11C494500F205
:10B6C000CE800221B1542288013292B2228001211F
:10B6D000B15422880A4492B22280B35423880B4486
:10B6E0002380F2E6CDF8049000943346062202212E
:10B6F00005F10800FFF7B4FE034600283FF402AF4F
:10B7000087E7CDF80490009433460722032105F122
:10B710001000FFF7A5FE034600283FF4F7AE78E7D8
:10B72000CDF80490009433461522142105F1180039
:10B73000FFF796FE034600283FF4ECAE69E7AF6AD8
:10B74000002F00F09680BB880233FE2B00F293801E
:10B750004FF000084FF0160A11E008F101085FFAF7
:10B7600088F895F82C3043457FF64EAF08EB480734
:10B77000AB6A03EB8707BB880233FE2B7DD8228898
:10B780000133B354238801339BB2238006F803A00E
:10B79000238801339BB223803A88F118F254120AAD
:10B7A0004A702088023080B22080BA88002AD4D023
:10B7B000B968002963D0304408F0A0FD2388BA8816
:10B7C00013442380C9E72A88012A40D02288901C8C
:10B7D00048453ED8012B04D16B7802331344994578
:10B7E00039D3A9F10207BF1ABFB2ADF8087002A998
:10B7F0003044FFF7C7FD034600287FF40AAF2A78DC
:10B80000022A30D06978BDF80800814201D387420E
:10B810001BD2012A13D0ADF808700820BDF808200B
:10B82000FE2A1AD82188551C75542188013189B205
:10B83000218070542A4621880A442280E9E68F42FA
:10B84000E9D3ADF808100820E8E70920E6E7072368
:10B85000DFE60C23DDE60C23DBE60C23D9E60C2324
:10B86000D7E60C23D5E6BDF80820BA42D3D8092084
:10B87000D4E70723CDE60C23CBE60C23C9E6072348
:10B88000C7E60C23C5E60C23C3E60723C1E60C2359
:10B89000BFE60723BDE60723BBE60723B9E6072378
:10B8A000B7E60723B5E60C23B3E60C23B1E6E8B10F
:10B8B000F0B40546E2B11688002005E0884212D2B5
:10B8C0002C5C0134204480B28642F7D807462C18FD
:10B8D00064789C42F2D188420CD202301080E85D3C
:10B8E000013880B200E00020F0BC704700207047B3
:10B8F0000020F9E70020F7E710B582B004460023E6
:10B90000ADF8063013460DF10602FFF7D0FF20B167
:10B91000BDF80600204402B010BD0020FBE772DF36
:10B92000704773DF704738B504460D460122B0F802
:10B930009810D0F89400FFF7DFFF00B1057004F114
:10B940003C0204F1940104F15400FFF7E8FF38BD14
:10B9500080F830107047F8B5002971D00F460028E4
:10B9600070D091F87A201AB191F89820002A6BD102
:10B97000D7F8A020042A69D0D7F89C20042A67D0E1
:10B9800004464FF0000C80F802C0051D07F1780650
:10B990000FCE0FC50FCE0FC596E8070085E807004C
:10B9A00084F830C0D7F8A4306363D7F8A830A36315
:10B9B0004FF6FF73A4F8A83004F19403C4F8A43040
:10B9C0000722614604F1AA0008F0C1FC237813B9EC
:10B9D000FF2384F8543004F15501C4F89410224632
:10B9E0001F2322F8983F3846FFF758FD034628BB2F
:10B9F00004F17401C4F89C1022461F2322F8A03FD2
:10BA000007F13C00FFF74AFD0346B8B9012384F86B
:10BA10005130A269A4F8482084F83C300021216408
:10BA200084F850106369636404F13C0204F154002B
:10BA3000FFF775FF034608B9012222701846F8BDCA
:10BA40000E23FBE70E23F9E70723F7E70723F5E7C4
:10BA50000723F3E7F8B50678002E00F0F5800446DA
:10BA60000D46A17000F1AA0707220021384608F010
:10BA70006EFCE38813B1A378012B18D0E37913B1DE
:10BA8000A378022B13D094F8AB304BB904F1AB037D
:10BA900004F1B00113F8012F12B98B42FAD100263C
:10BAA0006B1E032B48D8DFE803F00E151A1E636BDC
:10BAB0002BB1012284F8B12008209847E3E7002346
:10BAC00084F8B130DFE7A37923B194F824300BB9BF
:10BAD0002EB10DE0E37913B1002E40F0DE80237A21
:10BAE000002B40F0C180637A002B40F0BF8000251E
:10BAF000A570002384F8B33004F13C05182200211E
:10BB0000284608F024FC012384F83C30E36A5A1EDE
:10BB1000012A40F29E80012384F8513094F82430A9
:10BB20006BB9002384F85030A378042B5CD8DFE88D
:10BB300003F0870A2B3B65000023A370D9E701239C
:10BB400084F85230EDE7012384F831300023C4F843
:10BB5000A43027646364022384F83C308023A4F873
:10BB600048302A46D4F8A41004F15400FFF7D7FE59
:10BB70000346002869D194F8301094F85400FFF778
:10BB8000D0FE034698B360E0022384F831300323EB
:10BB900084F83C302369A4F848300023C4F8A4306A
:10BBA0002764E3686364DCE763696364A369A4F8FA
:10BBB000483063798BB194F8B23073B994F8B430EB
:10BBC0005BB1022384F8503004212046FFF7ABFE1E
:10BBD00050B9052384F8313002E0032384F8313072
:10BBE00004F19403C4F8A430A378002BB9D1636B9B
:10BBF0006BB394F831009847002326E0E36963644F
:10BC0000236AA4F84830637993B194F8B2307BB9D1
:10BC100094F8B43063B1022384F8503004212046F4
:10BC2000FFF781FE0028DFD1062384F8313002E0DF
:10BC3000042384F8313004F19403C4F8A430D3E72A
:10BC4000002384F83130D2E708231846F8BD0023DA
:10BC5000FBE784F8513094F82430002B3FF461AFB7
:10BC6000A36A84F852305CE7032300E00423A37046
:10BC7000636B002B3FF43DAF6279002A3FF439AF8C
:10BC800094F8B220002A7FF434AF84F8B420012263
:10BC900084F8B320072098472EE7022528E7038879
:10BCA000102B00D07047C37B012B04BF8388A1F801
:10BCB000A830F7E7704775DF704776DF70477ADFA7
:10BCC00070477BDF70470000034B1A8882420CBF2D
:10BCD00018460020704700BF9028002070B44C88A0
:10BCE0000588A5421BD84588A5421BD384888D882A
:10BCF000944294BF261BA61AB54215D322449542FE
:10BD000014D8C288C8889A4294BF911AD11A88421E
:10BD10000ED3134498428CBF0020012000E0002085
:10BD200070BC70470020FBE70020F9E70020F7E730
:10BD30000020F5E708B5024B9B6903B1984708BDA1
:10BD40007428002030B583B084B22046FFF7BCFFD2
:10BD5000A0B10546027A174B1B7B9A4210D30023F1
:10BD60000372144B1B7CB3B9124B5B6933B10022D5
:10BD70008DF80420ADF8064001A8984703B030BD07
:10BD800000F10A012046FFF796FF70B11128F5D0A7
:10BD9000FFF7D0FFF2E73B212046FFF78EFF30F0A0
:10BDA0000803E1D0FFF7C6FFDEE72B7A01332B72E1
:10BDB000E4E700BF7428002000B583B00B46497A41
:10BDC00071B91A7A4AB90E4A516802465868FDF7A5
:10BDD000D7FD88B1FFF7AEFF0EE0094A9168F4E79E
:10BDE00000221A72064B5B6933B101228DF80420E0
:10BDF000ADF8060001A8984703B05DF804FB00BF4A
:10BE00007428002070B504460388112B37D009D957
:10BE1000122B61D0502B04D1C2883A4BDB899A4255
:10BE20003ED070BD102BFCD1C37B012BF9D14FF656
:10BE3000FF70FFF749FF0546E8B1A688068000239A
:10BE4000037200F10A03304A03CAC5F80A00184613
:10BE500059604FF6FF7340F2F31204F11001FFF73F
:10BE60003DFF6872274BDB89002BDAD1294630462B
:10BE7000FFF7A2FFD5E70420FFF75CFFD1E780883A
:10BE8000FFF722FF04460028CBD04068FDF7C8FD2D
:10BE900018B94FF6FF732380C3E7FFF74BFFF8E7AE
:10BEA000038A022BBDD185882846FFF70DFF064681
:10BEB0000028B6D004F1120000F0EBF920B13146B1
:10BEC0002846FFF779FFACE77068FDF7A9FD002869
:10BED000A7D0FFF72FFFA4E786883046FFF7F4FED0
:10BEE000054600289DD04FF6FF7340F2F31204F18F
:10BEF00008010A30FFF7F2FE687229463046FFF764
:10BF00005BFF8EE774280020A4280020F8B568B3F2
:10BF10000646174F3C4605460FCD0FC495E807006F
:10BF200084E80700134B3B603068C0B1FFF7C7FEE1
:10BF3000034690B932680F4B1068516803C30E482E
:10BF40004FF6FF7303800D4B40F8043F0C4A00216D
:10BF5000FDF700FD031E18BF03231846F8BD054872
:10BF6000FFF7AFFE03460028E9D0F6E70E23F4E71B
:10BF700074280020A428002090280020AC2800204D
:10BF800045BD0100F0B583B00190A1B10F46019D00
:10BF900095B116460024254602E00134142C0BD03E
:10BFA000214601A8FDF766FE0028F6D03146A0B272
:10BFB000B8470135F1E70025284603B0F0BD70B55C
:10BFC00082B006460191019D85B10024254602E01C
:10BFD0000134142C0AD0214601A8FDF74BFE00289D
:10BFE000F6D006EB45039C800135F1E7356030461D
:10BFF00002B070BD2DE9F04F8DB087880388112BFA
:10C0000043D006461A2B45D0102B02D00DB0BDE808
:10C01000F08F304A9368DB43009351686846FDF720
:10C0200088FE009901A8FFF7CAFF019BA3B10DF19B
:10C03000060505EB4309DFF89CA00AF1780B35F8FB
:10C04000028F0AF1040441462046FDF707FE04343E
:10C05000A345F8D14D45F2D1132F03D90420FDF7A4
:10C06000B3F9D3E71B4C394604F10800FDF7DDFDB9
:10C070003946201DFDF7D9FDF37B012BC6D039468B
:10C0800004F10C00FDF7D1FDC0E739461248FDF779
:10C09000E5FDBBE7047A2409012C0FD939460F4886
:10C0A000FDF7C3FD022C04D939460D48FDF7BDFD4F
:10C0B000ACE739460A48FDF7D1FDA7E7054C3946FC
:10C0C00004F11000FDF7CAFD394604F11400FDF734
:10C0D000C5FD9BE7CC280020D4280020DC280020C8
:10C0E000E0280020132801D90020704708B5014638
:10C0F0000148FDF7BFFD08BDD028002008B5FFF7B7
:10C10000F1FF08BD10B50446FFF7ECFF08B90020A9
:10C1100010BD21460348FDF7ADFD002814BF0220E5
:10C120000120F5E7D428002010B50446FFF7DAFF18
:10C13000034608B9184610BD21460248FDF79AFD8E
:10C140000346F7E7DC28002010B50446FFF7CAFFD6
:10C15000034608B9184610BD21460248FDF78AFD7E
:10C160000346F7E7E028002010B50446FFF7BAFFC2
:10C17000002814BF2046142010BD000008B5182167
:10C180000248FDF780FDC0B208BD00BFCC280020EA
:10C1900038B504460D460B48FDF76CFD034608B95B
:10C1A000184638BD2046FFF79DFF03460028F7D00C
:10C1B00006352146034800EB8500FDF75BFD03468D
:10C1C000EEE700BFCC28002070B504460D461646A9
:10C1D0000D48FDF74FFD00B970BD2046FFF782FF07
:10C1E0000028F9D03EB106352146074800EB85000E
:10C1F000FDF71BFDF0E706352146034800EB8500FF
:10C20000FDF72CFDE8E700BFCC28002070B5044600
:10C210000D46164601460848FDF72CFD08B90020DA
:10C2200070BD0434044B03EB8404A06832462946F5
:10C23000FFF7A8FEF4E700BFCC280020DAB138B53C
:10C24000154600222A60C0B10268C2B1C28812F04D
:10C25000030F16D104460846FFF786FFC0B2142824
:10C2600011D02379834210D9E388226800FB032090
:10C270002860002038BD0E2070470E20FAE70E20FF
:10C28000F8E70720F6E70520F4E70420F2E7AADF45
:10C290007047007800F001007047F0B591B0054696
:10C2A0000C4616468B78002B08BF01238DF80E3004
:10C2B0000B88ADF80C300322002102A808F047F8E3
:10C2C000637C9DF8082002F0F0026FF307128DF8EE
:10C2D0000820013B042B0DD8DFE803F0031D2833B1
:10C2E0003E009DF80830012262F3030362F3071356
:10C2F0008DF80830A37C9DF8092002F0F0026FF35E
:10C3000007128DF80920013B042B38D8DFE803F031
:10C310002E929DA8B3009DF80830012262F303031A
:10C32000022262F307138DF80830E3E79DF8083026
:10C33000012262F30303032262F307138DF808302E
:10C34000D8E79DF80830022262F30303012262F36A
:10C3500007138DF80830CDE79DF80830022262F30C
:10C36000030362F307138DF80830C3E79DF8093023
:10C37000012262F3030362F307138DF809309DF87D
:10C380000A30E27B62F3C303227C62F30413227B54
:10C3900062F30003227D002A14BF0222012262F30D
:10C3A00042038DF80A301C22002109A807F0CFFFB4
:10C3B000637B13F0300F68D1637B8DF82430A37B4F
:10C3C0008DF825301422002104A807F0C0FF03AB2C
:10C3D000049302AB0593A388ADF81C30A3681BB18E
:10C3E000E288ADF818200893A369002B00F00F81B4
:10C3F00001AF03220021384607F0A9FFA269138884
:10C40000ADF82C305388ADF82E3053680A930D9751
:10C41000137B9DF8041001F0F0016FF307118DF804
:10C420000410013B042B00F29580DFE803F08AA49E
:10C43000AFBAC5009DF80930012262F3030302225E
:10C4400062F307138DF8093099E79DF8093001224E
:10C4500062F30303032262F307138DF809308EE7BA
:10C460009DF80930022262F30303012262F30713ED
:10C470008DF8093083E79DF80930022262F3030347
:10C4800062F307138DF8093079E70322002168462B
:10C4900007F05DFFE37C9DF8012002F0F0026FF3EE
:10C4A00007128DF80120013B042B0DD8DFE803F0C3
:10C4B000031E29343F009DF80130012262F303037B
:10C4C00062F307138DF801309DF80030012262F30A
:10C4D000030362F307138DF800309DF8023062F316
:10C4E00042038DF80230CDF838D065E79DF8013071
:10C4F000012262F30303022262F307138DF8013075
:10C50000E2E79DF80130012262F30303032262F3A4
:10C5100007138DF80130D7E79DF80130022262F34E
:10C520000303012262F307138DF80130CCE79DF875
:10C530000130022262F3030362F307138DF8013026
:10C54000C2E79DF80430012161F3030361F307138F
:10C550008DF80430537B9DF8051001F0F0016FF366
:10C5600007118DF80510013B042B38D8DFE803F0E4
:10C570002E5A65707B009DF80430012161F303039E
:10C58000022161F307138DF80430E3E79DF80430CE
:10C59000012161F30303032161F307138DF80430D4
:10C5A000D8E79DF80430022161F30303012161F310
:10C5B00007138DF80430CDE79DF80430022161F3B4
:10C5C000030361F307138DF80430C3E79DF80530CA
:10C5D000012161F3030361F307138DF805309DF822
:10C5E0000630917A61F3C3038DF80630D17A61F396
:10C5F00004138DF80630117A61F30003927B002A50
:10C6000014BF0222012262F342038DF80630E3696F
:10C6100003B10C93334604AA09A92846FFF737FE55
:10C6200011B0F0BD9DF80530012161F30303022133
:10C6300061F307138DF80530D1E79DF8053001212E
:10C6400061F30303032161F307138DF80530C6E797
:10C650009DF80530022161F30303012161F3071303
:10C660008DF80530BBE79DF80530022161F3030327
:10C6700061F307138DF80530B1E7A5DF7047B5DF2B
:10C680007047034660B1C160F72202804280FB21FF
:10C690000171C2801722028100209872D8727047FF
:10C6A0000E20704738B1A1F117039BB2E02B04D8DC
:10C6B0000180002070470E20704707207047838854
:10C6C000002B73D110B582B00C460388112B3AD0E1
:10C6D00022D93A2B42D0552B3CD1C388C988172B7D
:10C6E00038BF17238B4228BF0B4623810020A0723E
:10C6F000FFF7C5FFE37A6BBBE3685BB340F67722D5
:10C70000ADF800200022ADF802202289ADF8042007
:10C710006946204698471DE0102B1BD1C37B012B97
:10C7200004BF0B88CB80C98823898B4212D200209A
:10C73000FFF7A3FF10B90123E3720BE0112809D121
:10C740000123A37206E0F723CB8017230B8100237C
:10C750008B72CB72A37AF3B902B010BD4389CA8839
:10C76000934228BF1346172B38BF17230B81CA6883
:10C770006AB1C97A59B140F67721ADF800100021AD
:10C78000ADF80210ADF8043069462046904700230A
:10C79000E372A372DEE7E1880020FFF76EFF002856
:10C7A000DAD10023A3720123E372D5E77047B0DF2B
:10C7B000704766DF7047037A03B9704710B50446C7
:10C7C00000214088FFF7F5FF10B90023237210BD48
:10C7D000112802D062689047F9E701232372F6E737
:10C7E00060B169B10278DE2A0CD00A684260DE22AC
:10C7F00002704FF6FF724280002070470E20704793
:10C800000E2070470820704728B10278DE2A04D134
:10C810004180002070470E20704708207047002993
:10C820005ED030B585B00D4660B10A78DE2A09D1F8
:10C83000044682884B889A4206D00388012B0DD08B
:10C84000512B18D005B030BD0846FFF7B4FF238840
:10C85000112B29D0512B0ED0012BF3D1237A012B90
:10C86000F0D1A2886B889A42ECD101232B72284622
:10C87000FFF7A1FFE6E7A0886B888342E2D1A379A6
:10C88000022BDFD1A37B03F0FD02042A14D0052B79
:10C89000D8D10023009301930293039302228DF8D1
:10C8A0000020ADF8043013E0A2886B889A42C9D109
:10C8B0004FF6FF736B80C5E700230093019302934B
:10C8C000039302238DF800304FF4C073ADF80430A9
:10C8D0006946FFF76CFF0028B4D06A689047B1E75B
:10C8E0007047000070B50646064C04F1100501E0E3
:10C8F000AC4206D054F8043B002BF9D030469847A0
:10C90000F6E770BD502900204388033300EB830312
:10C91000994209D382884FF6FF739A4206D0008865
:10C92000B0FA80F04009704702207047012070473C
:10C9300068B10168094A91420BD14068084B98429E
:10C9400009D0013398420CBF012003207047032017
:10C950007047032070470020704700BFDEC0ADDE87
:10C96000FE011EF1033080B240F2FD3398422AD816
:10C9700010B4174B1B7843B9154A138952891344D5
:10C9800003449BB2B3F5806F10D3114B1B7DE3B909
:10C990000F4A938BD28B134403449BB2B3F5806F41
:10C9A00028BF072012D201231C4601E000231C46A9
:10C9B0000B80074BA200111903EB81014B8918442E
:10C9C0004881002002E009207047072010BC704712
:10C9D0008429002008B5124B5B8803EB8301114AC0
:10C9E00002EB8102D26872B90D4A0421117003EB87
:10C9F00083030C4901EB83010023012249680A48A3
:10CA000000F0FDFF08BD064B05221A7007490223FE
:10CA10008B80002301220968034800F0F0FFF1E752
:10CA20006829002084290020002500204C2A0020AD
:10CA300000B583B0002300930823044A0449096821
:10CA4000044800F0A9FF03B05DF804FB404C02006D
:10CA50004C2A00200025002000B583B0002300935D
:10CA60000823044A0146044800F096FF03B05DF82D
:10CA700004FB00BF384C02000025002010B582B036
:10CA80000C46002300930423094A0146094800F09C
:10CA900083FF50B9024604EB8404074B03EB840484
:10CAA00001232374104602B010BD0E22FAE700BF26
:10CAB000344C0200002500208429002030B583B0CA
:10CAC00009484268094B9C881968538803339BB214
:10CAD00003250570002000909B0001EB84010448B1
:10CAE00000F05AFF03B030BD682900204C2A002016
:10CAF0000025002010B501460448FDF721F8044642
:10CB00001C22002107F023FC204610BD382A0020FB
:10CB10002DE9F8430D46174600F5805600F108044C
:10CB200002230B804FF00109DFF8548020E0A36856
:10CB3000D8F80020934212D9C8F800300FE04FF423
:10CB400080632B801AE031462046FFF7DDFE034666
:10CB50000028ECD00FB187F80090022BEFD02B8883
:10CB60000333628813442B806388033304EB83040C
:10CB7000B44203D22368B3F1FF3FE4D1BDE8F883A8
:10CB80007C29002070B50E4600EB8000174B03EBAC
:10CB900080035B6803F580550C6824B16388033318
:10CBA00004EB830419E003F1080416E0346001206B
:10CBB00005E06388033304EB83040EE0002070BDBE
:10CBC0000020FCE729462046FFF79EFE0128F0D012
:10CBD00043B2002BEAD00228F2D0AC42EED2236856
:10CBE000B3F1FF3FEED10020E9E700BF8429002028
:10CBF000F0B583B042687AB1274BDB689A420BD319
:10CC0000254B1B699A4207D812F0030304D105890A
:10CC1000224C2489A54217D00D46064600230B80DE
:10CC20001F46019701A92888FFF7ACFF014658B3BA
:10CC3000019B9C6832689442F4D17360174B1B8946
:10CC40003381084603B0F0BD05689468A542E3D17E
:10CC500013484068824203D900F5805082420BD3CA
:10CC60000F48806982420AD900F58050824238BF5D
:10CC7000012202D30A2303E000220A8000E00A23F3
:10CC8000B3FA83F14909DCE72B8801339BB22B808F
:10CC9000012BC6D9D5E700BF002500206829002058
:10CCA000842900202DE9F047244C2478002C3DD025
:10CCB000002A3DD0002B3DD09C88012C3CD81D463D
:10CCC000174688460646DFF87C904FF0000A07E0DA
:10CCD000C5F800A0AC880134A4B2AC80012C23D8E4
:10CCE00004EB840419F82430002BF3D12946A888DA
:10CCF000FFF748FF0028EBD02B681EB199883288D7
:10CD00009142F3D1B8F1000F04D01988B8F800208F
:10CD10009142EBD19B683B602B687B60084B1B8981
:10CD20003B810020BDE8F0870A20FBE70220F9E7FD
:10CD30000520F7E70520F5E70A20F3E76029002042
:10CD4000682900208429002008B5064B191D588841
:10CD5000FFF718FF10B1FFF7B1FE08BDFFF73AFE6D
:10CD6000FBE700BF682900202DE9F04788B00446A2
:10CD7000A24DDFF8AC82A24F66E241463846FCF78E
:10CD800019FF286064E234B93379032B5BD8DFE8FC
:10CD900003F019072F3A9B4B00225A600124C1E08F
:10CDA000994B1B78022B16D0974B1B7D022B08BF8B
:10CDB000012111D0934B01221A7000225A6041F6D2
:10CDC0001D54AFE001233371FFF732FE00283AD142
:10CDD00008B0BDE8F08700218B4B8A005018002472
:10CDE00003F8204003EB80035868FFF735FEEDE7BA
:10CDF00000233371854902228A8001220968844810
:10CE000000F0FDFDE2E74FF0000986F804907F4C4A
:10CE10002068FFF721FED4F800E07E4B5E88DFF843
:10CE2000E8A1B20093190AEB830359682160C3F8A3
:10CE300004E0B4F804C0A3F808C00223A38032447D
:10CE40000AF82290C2E76F4B00225A600E2469E074
:10CE5000B6F8149094B909EB89036B4901EB83038D
:10CE60001C895B6803EB8404B37D062B00F2B4805D
:10CE7000DFE803F02C94708421A6B400B37D022B6C
:10CE800009D909EB8902604B03EB8202F388033373
:10CE900011890B4413815C4A4FEA890101EB0900B7
:10CEA00002EB8000F388C3F57F43FD3342891344CE
:10CEB0004381012436E0584800234360B36903608E
:10CEC0005649FFF795FE002800F000820223B37553
:10CED000002300930423F21821464D4800F05CFD26
:10CEE00000283FF475AF0E24B37D022B09D909EB5E
:10CEF0008902454B03EB8202F388033311890B440B
:10CF00001381414A4FEA890101EB090002EB8000DD
:10CF1000F388C3F57F43FD33428913444381002CDA
:10CF20003FF456AF0023039305930693079341F60E
:10CF30001D539C4208BF002404942A681378023BC6
:10CF4000042B00F27081DFE813F063019701AA015E
:10CF5000B601BD013369002B14BF03230123B37550
:10CF600000230093042306F10C0204F10801284871
:10CF700000F012FD00283FF42BAFB4E70123B37596
:10CF8000F3883269002100919B0004F10C012048D4
:10CF900000F002FD00283FF41BAFA4E7032A0CBFFA
:10CFA00005230623B37500230093042306F108022A
:10CFB000E118174800F0F0FC00283FF409AF92E7B1
:10CFC0000623B375154B1988134B5868FFF756FDA8
:10CFD0000446002888D1FBE60F2485E741F61D545E
:10CFE00085E7002C40F074813379012B34D05AB29C
:10CFF000C2B1022B00F005810F2493E780290020A5
:10D00000382A002060290020842900204C2A002092
:10D01000002500206829002044290020582A0020EB
:10D020007829002002233371002304930593F368C9
:10D0300003930DF10A0103A8FFF7DAFD08B90A24EA
:10D040006DE704988388F38003883381BDF80A1064
:10D05000FFF714FD044662E7A34B03AA0021B01DAD
:10D06000FFF720FE044658B99F4B99880498FFF7B4
:10D0700005FD04460A287FF452AF41F61D5451E7DE
:10D0800008220021984807F062F941F61D530A2C46
:10D0900008BF1C4646E7002C40F01C81934B1B7BCD
:10D0A0006BB1924B00221A731B78013B062B00F2E6
:10D0B000AD80DFE803F022509EA2AB6978008B4B75
:10D0C0001B78072B7AD8DFE803F00479793C4A6BA8
:10D0D0006B75864B1A8901321A8100225A801A73A5
:10D0E00083490A78B2FA82F252099A720A7DB2FA38
:10D0F00082F25209DA7201221A707C4B9B7A4BB190
:10D100007A4B00229A727A4BDB681BB9784B1B7CF6
:10D11000002B67D1754BDB7A5BB1744B0022DA725E
:10D12000734B1B6A2BB9724B93F824300122002BEE
:10D1300059D16E4B00221A705A805A6041F61D5424
:10D14000F0E66C49694A50688B8803334088034491
:10D150008B8002231370FFF7F7FD0446DFE6654B73
:10D16000D3F800E0614C6688DFF884C1B10088190B
:10D170000CEB800042681A60C0F804E099880181D5
:10D1800002229A8006232370584B5B8803EB8303AB
:10D19000574A02EB83035868FFF75EFC0446BEE67D
:10D1A000524B07221A70514B00225A60FFF740FC85
:10D1B0000446B4E64D4B01221A709EE7013B062B54
:10D1C00022D801A252F823F0FBD0010057D1010070
:10D1D000F3D10100FBD1010009D2010089D1010086
:10D1E000A7D101000022414B5A80FFF7ADFD044654
:10D1F00095E6FFF763FC044691E6FFF7EBFB044678
:10D200008DE641F61D548AE60F2488E60F2489E650
:10D2100001238DF80C301389ADF818309388ADF8E0
:10D220001A30D368059303A8FFF75CFB00232B603B
:10D2300041463846FCF7E9FC01212F48FCF79AFDEE
:10D2400000283FF4C5AD00242B68002B3FF495ADBA
:10D250002E683278531E052B3ED801A151F823F0D9
:10D2600087CD010051CE010051CE0100E3CF010076
:10D27000E3CF010097D0010002238DF80C30138911
:10D28000ADF818309388ADF81A30D3680593937DC4
:10D29000062B14BF002301238DF81C30C3E70323A2
:10D2A0008DF80C30D388ADF818301389ADF81A30EA
:10D2B000D3680593B7E704238DF80C30D388ADF815
:10D2C0001830B0E705238DF80C30ACE70A2429E6C6
:10D2D000012427E6012425E6002303930593069302
:10D2E00007930F2428E600BF5C2A0020682900204D
:10D2F000842900204C2A0020482A002008B54068D4
:10D30000FFF732FD08BD000008B501210348FCF716
:10D310001BFD00B108BDFFF727FDFBE7482A0020F1
:10D320002DE9F04383B03F4C2478002C6FD00029C6
:10D330006FD00D884FF6FF74A5426CD04C88002C3E
:10D340006BD04D6815F0030569D11F468846064627
:10D35000002A37D01388ADF80630B2F8029068463C
:10D36000FFF7C8FB0446002837D0077000238375F9
:10D37000BDF806308382D8F80430036101212A48C1
:10D38000FCF7EDFCE060B8F800302381B8F802301B
:10D39000A380A4F80690032F2ED000236381694652
:10D3A0002248FCF7F7FB3EB100237360E26832606D
:10D3B000B3721F4B1B893381FFF7A6FF284603B0CA
:10D3C000BDE8F083B1F808900DF106014846FFF77B
:10D3D000C9FA0028C3D00546F0E7BDF80600154B92
:10D3E0008200111803EB81014B89033BA3EB090970
:10D3F000A1F80A900825E1E70423A3753368A36127
:10D400000023638169460948FCF7C4FBCCE7022589
:10D41000D4E70525D2E70425D0E70425CEE7032588
:10D42000CCE700BF602900207C290020382A00209A
:10D43000682900208429002008B5084B1B68042BAC
:10D440000AD0034605480168054A42F82130012107
:10D45000FCF785FC002008BD0C20FCE7542A0020C6
:10D46000502900202DE9F04F89B000230393049345
:10D47000059306930793844B1B783BB903F0FF0990
:10D480008248FCF782FC48B1002503E003A8FFF7BF
:10D4900029FA0025284609B0BDE8F08F4FF0102387
:10D4A0005B694FF080521269B3F1FF3F04BF02EB9A
:10D4B0004202130176480361A3F54053C360002282
:10D4C000744900F05DFA05460028E3D11C238C2244
:10D4D00071497248FCF7FCFA2F46A84603230093D3
:10D4E0000026DFF8ACB1DFF8C0A10AF10403019314
:10D4F00023E0CAF800400223AAF804304FF00109E3
:10D500004BE06749B3009A19002001F8220001EBB3
:10D510008202546033449B0003F1100208330A4432
:10D5200019442046FFF7F4FA48F002080136B6B273
:10D5300007F58057B7F5405F55D0DBF80C403C4409
:10D540002046FFF7F5F901282AD043B2002BD8D0A6
:10D550000328EDD12368B3F1FF3F40F08480231D01
:10D5600004F580511A68B2F1FF3F7CD1043399422F
:10D57000F8D1DAF80030002BBBD0494BB20090193B
:10D5800003EB800C022103F82010CCF80440ACF827
:10D590000810444B5E800136B6B248F00108C7E778
:10D5A000B9F1000F0FD03E4BB200901903EB800C85
:10D5B000022103F82010DAF80000CCF80400ACF8DF
:10D5C00008100136B6B2CAF8004000220199204680
:10D5D000FFF79EFABAF80430022B0CBF042308238D
:10D5E00048EA0308A4E7009B012B34D95FFA88F4CA
:10D5F000022C32D0062C08D1234B01221A700022B3
:10D600005A6003A8FFF76EF944E744B302A8FFF796
:10D6100071FA30B30122027004F1FF38B8F10A0F39
:10D6200009D8DFE808F006080608150815080F12E3
:10D630000F000022027102A91848FCF7ABFAFFF7AD
:10D6400063FE27E703220271F5E702220271F2E787
:10D6500001220271EFE70B251CE70B251AE70B25CA
:10D6600018E7082516E7009B013B9BB200930C4985
:10D67000B3009A1901EB820254603344032201F88B
:10D6800023200136B6B253E7602900206429002028
:10D6900000250020144C0200AC290020382A00206C
:10D6A00084290020682900204C2A002000B370B58E
:10D6B00082B00446F1B10D460DF10601FFF798FA6C
:10D6C00010B90A2002B070BD6668BDF8060000EB14
:10D6D0008000094B03EB800001210C30FCF73FFB7D
:10D6E0002E6063680C336B600123A3720020E9E7AE
:10D6F000052070470520E5E78429002000B310B518
:10D7000082B004460DF10601FFF772FAD0B1BDF800
:10D71000063003EB83010F4A02EB8102D268A2B10B
:10D72000A27AA2B10B4A9900C81802EB8000C06827
:10D7300001380B4402EB8302D0600020A07202E0AB
:10D74000052070470A2002B010BD0620FBE7062026
:10D75000F9E700BF8429002008B502230022FFF763
:10D76000DFFD08BD28B108B503230022FFF7D8FD6F
:10D7700008BD052070470000104B1B78C3B14FF661
:10D78000FF73984216D010B582B0044601A8FFF787
:10D79000B1F988B10522027001220271C48001A989
:10D7A0000748FCF7F7F9FFF7AFFD002002B010BD06
:10D7B00002207047042070470820F7E76029002006
:10D7C000382A00200F4B1B78BBB100B583B001A8ED
:10D7D000FFF790F998B10622027001A90A48FCF7F8
:10D7E000D9F90A4B1B7813B1084B01221A73FFF7C2
:10D7F0008BFD002003B05DF804FB02207047082079
:10D80000F8E700BF60290020382A0020682900209E
:10D8100000B583B0ADF80600ADF8041001A90DF114
:10D820000600FFF73FFA03B05DF804FB00B583B0D4
:10D83000ADF8060013460A460DF106010020FFF779
:10D8400031FA03B05DF804FB00B583B0ADF8060013
:10D8500013460A4600210DF10600FFF723FA03B034
:10D860005DF804FB20B129B103680B60002070470C
:10D8700005207047052070472DE9F84F3E4B1B7877
:10D88000002B63D0002863D004461222002106F04A
:10D890005EFD03232380394F4FF00008B9464FF057
:10D8A000010A28E02388013B23802FE0E38801332D
:10D8B000E380E38903336A881344E3816B8803338D
:10D8C00005EB830551E0A3880133A3806B88033304
:10D8D00005EB830549E0E3880133E380751BE689A6
:10D8E00006EBA505E58184F810A008F101081437BE
:10D8F000B8F1020F27D0C3463E463D897B891D44BF
:10D90000ADB27868FFF714F80328CBD00BEB8B0B84
:10D9100009EB8B0BDBF80C3062881344638023899E
:10D9200072891344238163892B446381C5F5806523
:10D93000ADB2A389AB4238BFA581766806F1080570
:10D9400006F5805611E00020BDE8F88F0220FBE7C5
:10D950000520F9E731462846FEF7D6FF0128A5D075
:10D9600043B2002BAFD00228B5D0AE42BDD92B6850
:10D97000B3F1FF3FEED1B8E76029002084290020F1
:10D9800030B108B531B101600B681146984708BD48
:10D990000E2070470E20FAE7E0B170B582B0044661
:10D9A000D2B10568D5B1DBB140684668B3FBF6F08B
:10D9B00006FB1030B0B942EA010010F0030F13D19A
:10D9C000E068814212D3481E18442669B0420FD93C
:10D9D000102012E00E2070470E200EE008200CE010
:10D9E00009200AE0092008E0102006E0102004E0E9
:10D9F0002046069C0094EC68A04702B070BDA0B120
:10DA000070B50446056895B19AB140680068461E35
:10DA10000E4210D1E668B1420FD34E1E00FB0260E9
:10DA20002669B0420BD910200CE00E207047082068
:10DA300008E0092006E0102004E0102002E0204663
:10DA40002C69A04770BDA0DF704710B50446408820
:10DA500000F058FCA080204601F052FB10BD00B53C
:10DA600087B0002300930193039304930593072346
:10DA70008DF80030ADF8020002916846FFF7E5FF2F
:10DA800007B05DF804FB000010B586B000230093DA
:10DA900001930293039304930593ADF802004FF6AC
:10DAA000FF73984211D0044600F028FB0B2817D0D2
:10DAB0000DD9112822D043F20203984218D1002236
:10DAC0000F4B19782046FEF77FFB06B010BD78B9E2
:10DAD0000E238DF800306846FFF7B7FF0022EFE70E
:10DAE0000F238DF800306846FFF7AFFF0022E7E70D
:10DAF00001462046FFF7B3FF0022E1E70122DFE7FE
:10DB0000692A002008B5FFF7BFFF08BD10B582B035
:10DB1000044600F0F7FB00236A46092101F03CF9B6
:10DB2000052801D002B010BD0122034B1978204610
:10DB3000FEF74AFBF6E700BF682A002010B582B066
:10DB40000446042200210DEB020006F000FC42F620
:10DB5000A623ADF8043001238DF80630044B1B6872
:10DB600000936A4601A92046FFF76DFF02B010BD81
:10DB7000484C020030B587B0044601212248FCF72A
:10DB8000B8F8BFF35F8F08B107B030BD204600F092
:10DB90006DFA11282CD00CD9862812D043F202033A
:10DBA00098421FD10022194B19782046FEF70CFB32
:10DBB00024E0B8B90022154B19782046FEF704FB83
:10DBC000E2E70025009501950295039504950595DA
:10DBD00006238DF80030ADF802406846FFF735FFA8
:10DBE0002A4606E001462046FFF739FF002200E002
:10DBF0000122064B19782046FEF7E6FABFF35F8F45
:10DC0000014B00221A60BFE7642A00206A2A002024
:10DC100030B587B00446274B1978FEF7B9FA08B13A
:10DC200007B030BD0546204600F0C2FA082813D0E0
:10DC30000FD943F2020398422CD043F20143984299
:10DC400023D0112828D001462046FFF708FF0122E3
:10DC500023E040B10628F6D1204600F053FB00F047
:10DC6000C3FA2A4619E00023009301930293039319
:10DC70000493059310238DF80030ADF802406846F8
:10DC8000FFF7E3FE01252A4607E02046FFF7FCFEEA
:10DC9000012202E0012200E00122074B1978204610
:10DCA000FEF792FA2A46034B19782046FEF78CFAC3
:10DCB000B6E700BF6C2A00206B2A002038B5037835
:10DCC00003B138BD04464088FFF7DEFE658828466C
:10DCD00000F05BFA88B96088FFF718FF00220A4954
:10DCE0000A4B1878FEF792FA0028EAD10022084978
:10DCF000084B1878FEF78AFAE3E70122064B1978F9
:10DD00002846FEF761FAE6E775DB01006A2A002083
:10DD10003DDB0100682A00206B2A002010B582B08C
:10DD20000378082B09D0002229492A4B1878FEF7DE
:10DD30006DFA002844D002B010BD0446437A002B8F
:10DD4000F1D1037A072B20D0082B2FD0012BEAD159
:10DD50006A460121808800F02BFE0028E3D1019B58
:10DD60001B78002BDFD0A08800F000FB4FF6FF737C
:10DD70009842D8D0184C01222178FEF725FA0022CB
:10DD800016492078FEF742FACDE7808800F0EEFAD7
:10DD900004464FF6FF739842C5D001220D4B197807
:10DDA000FEF712FA2046FFF7B1FEBCE70C4B1B68EA
:10DDB000012BB8D1BFF35F8F094B00221A60B2E785
:10DDC00000220849084B1878FEF720FAB3E700BF95
:10DDD00075DB01006A2A00206B2A002011DC01009B
:10DDE000642A00203DDB0100682A002010B5FEF700
:10DDF000C5F9194C2070FEF7C1F9184B1870FEF7E1
:10DE0000BDF9174B1870FEF7B9F9164B1870FEF7ED
:10DE1000B5F9154B18702378182B13D00F4B1B78BE
:10DE2000182B11D00E4B1B78182B0FD00D4B1B78D5
:10DE3000182B0DD018280DD000200C4B1860BFF304
:10DE40005F8F10BD0320FCE70320FAE70320F8E70B
:10DE50000320F6E70320F4E76A2A0020692A00205D
:10DE60006B2A00206C2A0020682A0020642A0020E7
:10DE700000B583B00023ADF802300123ADF80030C7
:10DE800009238DF80230074B074A002908BF1346C3
:10DE9000019300F037FA0022694600F0F1FF03B069
:10DEA0005DF804FB504C02004C4C020030B587B0CA
:10DEB000044685880388353B1F2B14D8DFE803F020
:10DEC00063131313131313131313131313131313D2
:10DED00013131313131313131313134413101321D6
:10DEE0002846FFF7D1FD00223249334B1878FEF760
:10DEF0008DF900223149324B1878FEF787F907B0C7
:10DF000030BD002400940194029403940494059479
:10DF100011238DF80030ADF80250284600F0F2F9D8
:10DF2000ADF8040000F060F92246264B1978284627
:10DF3000FEF74AF92246224B19782846FEF744F9A3
:10DF40006846FFF782FDCEE7037B012BCBD1837AB6
:10DF5000012BC8D1028942F602139A42C3D11A4C4E
:10DF6000012221782846FEF72FF900221749207850
:10DF7000FEF74CF90028B6D100221549154B187848
:10DF8000FEF744F9AFE70022124B19782846FEF756
:10DF90001BF9E38823B100212846FFF769FFA2E7B8
:10DFA000A389012B01D00021F6E7A17B003118BF26
:10DFB0000121F1E705DB0100692A002011DC0100E5
:10DFC0006B2A00206C2A00206A2A002075DB0100E1
:10DFD0003DDB0100682A0020AFDF7047B1DF7047EA
:10DFE000B2DF7047B3DF704730B583B0124A6B467B
:10DFF00092E8030083E80300104C002219462088B1
:10E0000000F03EFF23884FF6FF72934211D0112893
:10E010000FD00025184600F091FF20802A4669465F
:10E0200000F02EFF23884FF6FF72934201D0112893
:10E03000F0D103B030BD00BF544C02006E2A002066
:10E0400008B5054B1A884FF6FF739A4200D108BDF8
:10E05000FFF7CAFFFBE700BF6E2A0020024B4FF616
:10E06000FF721A80002070476E2A00202DE9F043CD
:10E0700083B0804600F046F94FF6FF7398423AD0DD
:10E080000546012208270326541CA4B26B463946D4
:10E09000284600F093FC814638BB01990A4642F8B5
:10E0A000046B334606314046FFF79AFF38B10C281F
:10E0B0000CD13946284600F0F5FC2246E4E72A4612
:10E0C0000821284600F022FD81460AE0052818BFF5
:10E0D00081460821284600F0E5FC002818BF4FF0D3
:10E0E0000309484603B0BDE8F083072814BF814602
:10E0F0004FF00C09F5E743F20209F2E72DE9F04F82
:10E1000083B0074600F0FEF84FF6FF73984209D13E
:10E11000032400252E464FF00109CA464FF000089F
:10E12000C3461DE06A46082100F042FC20B9019B6D
:10E130009E1D9D881C68EEE7032400252E46EAE715
:10E140003DB1032445460AE01120B9F1000F08BF94
:10E150000B2003B0BDE8F08F0020F6E75446C1461F
:10E1600023462A4631463846FFF738FF0428EBD0CD
:10E170000828F1D00B28E8D114F0020FEED1002EC0
:10E18000DED0032445465E46E9E700B585B00DF1D3
:10E190000F03029300F0B6F801AA012100F008FC79
:10E1A00020B9029B187805B05DF804FB0020FAE75F
:10E1B000F8B505460B48FFF715FF80B9094C4FF637
:10E1C000FF7743F2030602E02388013323803A46B7
:10E1D00021882846FFF700FFB042F5D0F8BD0320A4
:10E1E000FCE700BF702A002010B582B004466B46E1
:10E1F000054A92E8030083E80300002219462046FE
:10E2000000F03EFE02B010BD5C4C020046DF7047DD
:10E21000037843B903460F3013F8012F2AB983421C
:10E22000FAD1002070470120704701207047A0B14B
:10E230000246A1B108B503780878434013F0FE0FF9
:10E2400001D0002008BD104606220131013005F042
:10E25000D5FEB0FA80F04009F4E7002070470020B6
:10E2600070472DE9F04704460E4600F1110901F10F
:10E27000110A471C01F1010810224146384605F0F9
:10E28000BDFE48B905463846FFF7C2FF28B14046F3
:10E29000FFF7BEFF054600E0002505F001055146E9
:10E2A0004846FFF7C4FF637C03F0FC03042B04D053
:10E2B000737C03F0FC03042B00D1284600F001001E
:10E2C000BDE8F08770B584B006460D4600F0A0FDAD
:10E2D000072401AA0DF10E01204600F0A3FD60B154
:10E2E000BDF80E30AB42F4D002993046FFF7B9FFCB
:10E2F0000028EED0BDF80E0001E04FF6FF7004B02C
:10E3000070BD000013280AD810B50446FDF7EAFED8
:10E3100040B104EB8400054B33F8100010BD4FF6FC
:10E32000FF7070474FF6FF70F8E700BF742A0020B7
:10E33000132813D838B50D460446FDF7D3FE80B137
:10E3400004EB8400084C04EB400050F8023F2B60C3
:10E3500082888379AA80AB71002038BD43F2020025
:10E36000704743F20200F8E7742A0020F8B54FF630
:10E37000FF73984215D007460B4D002403E001348B
:10E380000A35142C09D0A6B22B88BB42F7D13046EF
:10E39000FDF7A8FE0028F2D001E04FF6FF763046E8
:10E3A000F8BD0646FBE700BF742A0020038853B976
:10E3B000837853B9C31C0A3013F8012B3AB983424E
:10E3C000FAD10020704701207047012070470120DA
:10E3D000704738B504460D46FFF7E8FF034620B105
:10E3E00022882B889A4202D00023184638BD082282
:10E3F000A91CA01C05F002FEB0FA80F35B09F4E74B
:10E4000030B585B0044600F003FD072501AA0DF1E3
:10E410000E01284600F006FD80B1029946312046E3
:10E42000FFF7D7FF30B902992A312046FFF7D1FF15
:10E430000028EBD0BDF80E0005B030BD4FF6FF70E0
:10E44000FAE70000132804D800EB8000014B23F802
:10E4500010107047742A002038B50546FFF786FF74
:10E460000446284600F028FB034640B9132C06D882
:10E4700004EB8404034A4FF6FF7122F81410184687
:10E4800038BD00BF742A002030B58DB00D4614464B
:10E4900010306B4604A910F8012D03F8012B9942A6
:10E4A000F9D10D22002104A805F051FF2B788DF839
:10E4B0001F306B788DF81E30AB788DF81D306846B4
:10E4C000FFF7A4FE9DF82F3023709DF82E30637067
:10E4D0009DF82D30A3700DB030BD037803F0FE031E
:10E4E000042B01D00020704730B585B00D4604469E
:10E4F0000322411C03A805F001FF0322211D01A8EE
:10E5000005F0FCFE02AA01A92846FFF7BDFF032281
:10E5100002A903A805F072FDB0FA80F0400905B029
:10E5200030BD00000388102B40F0938030B593B0CD
:10E5300008AD041D0FCC0FC50FCC0FC594E8030028
:10E5400085E803009DF8243003F0FE03062B16D166
:10E55000BDF820103F4B8A0050184FF6FF7423F887
:10E56000104003EB40039A1C0998C3F80200BDF861
:10E5700028109DF82A309180937113B030BD00F0BF
:10E5800047FC9DF824305B08012B14D9022B24D1C1
:10E59000072402AA0DF10601204600F043FC0028E2
:10E5A00042D00399013109A8FFF797FF0028F0D066
:10E5B000BDF8064013E0072402AA0DF1060120462B
:10E5C00000F030FC80B30399113109A8FFF72FFE4A
:10E5D0000028F1D0BDF8064001E04FF6FF74BDF809
:10E5E00020201C4B9100881823F8104003EB4003B7
:10E5F000991C0998C3F80200BDF828009DF82A303C
:10E6000088808B714FF6FF739C42B6D0ADF80A201C
:10E61000ADF80C4000238DF8083002A800F074FD1E
:10E6200002A8FFF74BFBA8E7BDF8202009490A2301
:10E6300003FB02F3CA184FF6FF70C852931C0998E7
:10E64000C2F80200BDF828109DF82A2099809A711E
:10E6500093E77047742A00200B68032B1DD810B471
:10E6600003EB43020E4C34F8222082420BD003EB22
:10E6700043020B4C04EB82020133042B0BD032F823
:10E680000C4F8442F8D10B6003EB4303044800EBCA
:10E69000830010BC70470020FBE70020704700BFDC
:10E6A000902C002030B583B005460C460023019322
:10E6B00001A9FFF7D1FF034648B912E0019B0133DE
:10E6C000019301A92846FFF7C7FF034648B19A788E
:10E6D000A242F3D19A7A12F0030FEFD15A68002ABE
:10E6E000ECD1184603B030BD10B5044600F044FE2E
:10E6F000204601F0C7FD2046FFF7A2FC2046FFF7A9
:10E700000DFB10BD70B50546037A5BB100240D4EBC
:10E71000697A2144C9B2304601F0B4F801342B7A49
:10E72000A342F5D84FF6FF732B80AB70FF236B72BB
:10E73000AB7A03F0FD036FF30003AB7200232B727F
:10E740006B6070BD802C002010B582B004460023A1
:10E750000093019383788DF80230417A2C4801F0C0
:10E7600079F8002852D0A278237A03EB83038DF83E
:10E77000022001909B00ADF80030531E072B08D8F3
:10E78000DFE803F01E070707072204261423ADF86D
:10E790000030224632F8040B694600F071FB07286E
:10E7A00025D01BD9112826D0862822D1A37A03F0A0
:10E7B000FD0343F00103A372164B01221A7016E009
:10E7C0000123ADF80030E4E70123ADF80030E0E7C5
:10E7D000838809339B08ADF80030DAE730B9A37AB3
:10E7E00003F0FD036FF30003A37200E0032002B007
:10E7F00010BD0320FBE7A37A43F002036FF300038D
:10E80000A372044B01221A700020F0E70320EEE708
:10E81000802C00207C2C00202DE9F04387B004469A
:10E82000C368474A526893422AD0454A12699342C4
:10E8300022D0434AD269934220D0414A926A9342FD
:10E8400008BF03201DD000202378092B26D0132BCE
:10E850002ED0082B1BD000262046FFF745FF394B52
:10E860001B78002B45D00024364B1C70344D2F46AE
:10E8700099464FF0010852E0012002E0022000E03A
:10E88000002000EB40032E4800EB8300DCE7637AB6
:10E8900083B988B1FFF736FF0026DDE7637A6BB9ED
:10E8A00070B100264660837A43F002038372DAE790
:10E8B0000126D1E70026CFE70026CDE70026CBE7EB
:10E8C0000026C9E74FF6FF72ADF8022004EB4404BE
:10E8D0001B4A32F82420ADF8042086280CD00722E9
:10E8E0008DF80020029000238DF80C306846FFF769
:10E8F000FBFE07B0BDE8F08306238DF80030F5E796
:10E9000089F8008002E089F8008026B12846FFF7E8
:10E910001BFF0028D6D101340C35042CE9D004EBC0
:10E92000440307EB83039B7A13F0020FE8D104EB57
:10E93000440307EB83039B7A13F0010FE3D1EAE76B
:10E94000902C00207C2C0020F0B583B0144B0021CB
:10E950004FF6FF75FF271E460C461D809D705F72A7
:10E9600001EB410206EB8202907A00F0FD006FF3AA
:10E97000000090721C725C6001310C330429ECD1F0
:10E980005023019304230093064B4FF4A0720649D1
:10E99000064800F03FFF002818BF032003B0F0BD79
:10E9A000902C0020C02C00203C2B0020802C00202C
:10E9B00008B5002300F0F0F908BD0000002B60D07E
:10E9C0002DE9F0411C46CB1FDBB2012B5BD8531E57
:10E9D000032B5BD817460E460546FFF763FE8046BD
:10E9E000F0B1037ABB4255D198F80930FF2B21D002
:10E9F000002588F8087098F80910294800F02AFFC7
:10EA0000002849D0A670606007EB8702120192B21D
:10EA100092082280002D41D0082E2DD0002033E016
:10EA2000FF214FF6FF70FFF73DFE804680B3058063
:10EA30008670D9E739461A4800F03DFF88F809008A
:10EA4000FF2818BF0125D4D14FF6FF73A8F8003076
:10EA500088F80230FF2388F8093098F80A3003F06C
:10EA6000FD036FF3000388F80A30002388F80830AC
:10EA7000C8F80430112007E09200063A8280002096
:10EA800002E00E2070470720BDE8F0810720FBE779
:10EA90001120F9E70F20F7E70320F5E70020F3E75F
:10EAA000802C002008B5FFF7FDFD18B1FFF72AFE06
:10EAB000002008BD0520FCE710B582B00446002305
:10EAC000019301A9FFF7C8FD0346A8B9204600F04D
:10EAD00026FA034618B107280CBF0346032318463D
